:100000000C9436020C9453020C9453020C94990EE7
:100010000C9453020C9453020C9453020C9453020C
:100020000C9453020C9453020C9453020C945302FC
:100030000C9453020C94A9040C94B1050C94530233
:100040000C9453020C9453020C9446090C945302E2
:100050000C944A1E0C9453020C94BD1D0C94530234
:100060000C9453020C9453020C9453020C945302BC
:100070000C94E2150C940E160C9453020200080026
:1000800012001F003100470060007E009F00C50085
:10009000EE001B014D018201BB01F80139027E0215
:1000A000C70213036403B90311046E04CE043305BD
:1000B0009B0507067706EC066407E0076008E4087E
:1000C0006B09F709870A1A0BB20B4E0CED0C900D59
:1000D000380EE30E920F4510FC10B711761239134B
:1000E0000014CB1499156C1643171D18FC18DE1953
:1000F000C41AAF1B9D1C8F1D851E7F1F7D207F2175
:1001000084228E239C24AE25C326DD27FA281B2AB1
:10011000412B6A2C972DC82EFD2F36317332B43304
:10012000F93442368E37DF38333A8C3BE83C493E6F
:10013000AD3F15418142F1436545DD465948D949F6
:100140005D4BE54C704E005094512B53C65466568F
:100150000958B0595B5B0B5DBE5E75602F62EE6344
:10016000B16578674269116BE46CBA6E9470737212
:1001700055743B762578137A067CFB7DF57FF381F9
:10018000F583FB850488128A238C398E52907092F5
:100190009194B696DF980C9B3D9D729FABA1E8A30E
:1001A00029A66DA8B6AA03AD53AFA8B100B45CB63A
:1001B000BDB821BB89BDF5BF65C2D9C451C7CDC982
:1001C0004CCCD0CE58D1E3D373D606D99EDB39DEE2
:1001D000D8E07BE322E6CEE87DEB2FEEE6F0A1F35C
:1001E00060F623F9E901B4048207550A2B0D0510C6
:1001F000E412C615AC18961B841E76216C24652764
:10020000632A652D6A30743382369339A83CC23F25
:10021000DF42004625494E4C7B4FAC52E1551A59FE
:10022000565C975FDC6224667169C16C15706E73F1
:10023000CA762A7A8E7DF6806284D287468BBE8EFD
:100240003992B9953D99C49C50A0DFA372A70AAB1F
:10025000A5AE44B2E7B58EB939BDE8C09BC452C85B
:100260000CCCCBCF8ED354D71FDBEDDEBFE296E6AE
:1002700070EA4EEE30F216F610FF00026007000042
:100280001000400011FF4000600700001100400016
:1002900012FF4000600700001200400010FF400005
:1002A00030F7000040000000400100004002000064
:1002B000507D000011FF000F6002000011000001DE
:1002C0006002000030FC0000800000004000FF00E1
:1002D0004001000040020000507D0000400000008E
:1002E0004001FF0040020000507D0000400000007F
:1002F000400100004002FF00507D000040008000EF
:100300004001000040020000507D0000400000005D
:100310004001800040020000507D000040000000CD
:100320004001000040028000507D000030E80000E5
:1003300000002202600700000001220260070000A6
:10034000000222026007000030FA000010FF0002E5
:10035000600700001000400011FF4000600700002F
:100360001100400012FF4000600700001200400032
:1003700010FF400030F70000400000004001000086
:100380004002000010FF0002600500001000400065
:1003900012FF4000600500001200400010FF400006
:1003A00030FA0000400000004002000040019600CA
:1003B000507D000040010000507D000030FC000036
:1003C00040000000400100004002000012FF004019
:1003D00060040000500200001200004060040000B1
:1003E0005006000012FF00406004000050020000B0
:1003F00012000040600400005032000030F40000A1
:100400008000000040010000400200004000960013
:10041000507D000040000000507D000030FC0000D6
:1004200040000000400100004002000010A0100049
:1004300011A0090012A008006007000010002000B1
:1004400011002000120020006007000030F80000BA
:10045000400100004002000040009600507D000076
:1004600040000000507D000030FC000011241FBE41
:10047000CFEFD0E1DEBFCDBF12E0A0E0B1E0E4ED10
:10048000F6E402C005900D92AE30B107D9F71DE039
:10049000AEE0B2E001C01D92A936B107E1F70E94BB
:1004A00061020C9469230C94000088E190E029E03B
:1004B0000FB6F894A895809360000FBE209360005B
:1004C000FFCFCFEFD0E1DEBFCDBF88E10FB6F8940C
:1004D00080936000109260000FBE84B7877F84BF56
:1004E0008091600088618093600010926000209885
:1004F000289A189991C08EE1809311020E940E1FD4
:1005000080911102853109F49DC0809111028E31D4
:1005100009F490C00E94500584E090E00E943816D3
:1005200080E091E09093660D8093650D0E94E9094B
:100530000E9405060E949E0B80911102853109F4EC
:1005400076C0809111028E3109F46AC00E94D113E5
:100550000E94FA180E94771D0E94821360E080E0DA
:100560000E94801C6091690D70916A0D88279927FF
:100570000E94941F0E948F1F70936A0D6093690DF3
:1005800078940E94291F80911202813240F01092CB
:10059000120280910E0285FD39C00E94581C809184
:1005A0000E0286FD30C080910E0282FD24C0809133
:1005B0000E0281FF05C080910E028D7F80930E0296
:1005C00080910E0280FF10C080910E028E7F80937A
:1005D0000E0280913E028823E1F480910E0283FF97
:1005E000D0CF0E941806CDCF0E94FD090E9472183C
:1005F0000E941817C6CF0E944D1480910E028B7F67
:1006000080930E02D4CF0E94D015CDCF0E94AA1E97
:10061000C6CF0E944D04E1CF85E1809311026ECFD9
:10062000339994CF60E083E00E94FD188FCF339B15
:10063000F9CF87CF3B98439A0E94FE1E86E00E9426
:10064000DF1E68CF3B98439A65CF0E946F1680E00B
:1006500090E0089589E080938100EFE6F0E08081EA
:100660008660808380E09AEF909389008093880071
:1006700088EE9DEF90938B0080938A0008950F93EE
:100680001F93CF93DF93CDB7DEB723970FB6F894C0
:10069000DEBF0FBECDBF8E010F5F1F4FD801EEE052
:1006A000F1E083E001900D928150E1F720E030E02D
:1006B00090910403D901AA0FBB1FAA0FBB1FAA0F59
:1006C000BB1FFD01E451FD4F8181882341F08F3F25
:1006D00009F441C0989FC0011124892F9927A45182
:1006E000BD4FFD0182832F5F3F4F2330310501F75E
:1006F00031E051E080E090E0B801680F791FD80147
:10070000A30FB11D4C91E42FFF27EE0FFF1FEE0F3B
:10071000FF1FEE0FFF1FE451FD4F9281FB0120816F
:10072000E22FFF27EE0FFF1FEE0FFF1FEE0FFF1F41
:10073000E451FD4F8281981718F4FB0140832C93FC
:100740003F5F3330E0F2352F3F5F852F333039F094
:10075000532F9927D1CF9F3F09F0BCCFC0CFD801ED
:1007600040E010E050E0BE016C5F7F4F8C91282F7D
:100770003327220F331F220F331F220F331FF9019C
:10078000E451FD4F82818823B9F182818F3FA1F12D
:10079000553B98F48281853B80F0842F9927FC019A
:1007A000EE0FFF1FE80FF91FE452FD4F88EE9DEF9B
:1007B000928381838FEF80834F5FF901E451FD4F76
:1007C0008281581708F04BC08681182B5281242F44
:1007D0003327E281FF27EE0FFF1FE658FF4F859179
:1007E0009491F901EE0FFF1FE20FF31FE452FD4F4A
:1007F0009283818310834F5F1196A617B70709F084
:10080000B5CF553B80F4842F9927FC01EE0FFF1FD5
:10081000E80FF91FE452FD4F88EE9DEF928381832C
:100820008FEF80834F5F1092E8024093E9021092AD
:10083000EA028091EE028823F9F49FEF8091F6029C
:10084000882321F08091FA02809598238091FE02FE
:100850008823B1F0809102038095982311C086818E
:10086000182B842F9927FC01EE0FFF1FE80FF91FAB
:10087000E752FD4F1083C0CF9091F2029095DECFEA
:100880009093EB0223960FB6F894DEBF0FBECDBF58
:10089000DF91CF911F910F91089560E070E0AB015F
:1008A000440F551F440F551F440F551FFA01E451C3
:1008B000FD4F91818381981709F444C0A1819181F2
:1008C00083819817B8F48081918124813581280F24
:1008D000391F3183208381818A17D8F091818381E8
:1008E0008917B8F0FA01E451FD4F9181838198177F
:1008F00049F519C0918183818917A0F78081918181
:1009000024813581821B930B918380838181A81779
:1009100088F4838181831082FA01E451FD4F918133
:100920008381981779F4FA01ED50FD4F8081816041
:10093000808308C0918183819817A0F68381818389
:100940001082EACF6F5F7F4F6330710509F0A7CF48
:1009500008951F920F920FB60F9211242F933F9379
:100960004F935F936F937F938F939F93AF93BF93B7
:10097000EF93FF938091EA02882311F16091E802DE
:1009800080910E02846080930E028091E9026817C4
:1009900008F066C0862F9927FC01EE0FFF1FE80FB5
:1009A000F91FE452FD4F8181928190938B008093D7
:1009B0008A0080818093EA026F5F6093E8025FC0E3
:1009C00082B1887F82B992B18091EB028095877065
:1009D000892B82B980918400909185006091E80212
:1009E000462F5527DA01AA0FBB1FFD01E40FF51FA3
:1009F000E452FD4F218132818053984F28173907E7
:100A000048F5809184009091850082179307C8F380
:100A100092B1A40FB51FA452BD4F8C9187708095E1
:100A2000892382B96F5F8091840090918500462F61
:100A30005527DA01AA0FBB1FFD01E40FF51FE45291
:100A4000FD4F218132818053984F28173907C8F212
:100A50006093E80280910E02816080930E0290CF35
:100A60001092E80280910E02826080930E0288EE5E
:100A70009DEF90938B0080938A000E943F03FF912B
:100A8000EF91BF91AF919F918F917F916F915F9106
:100A90004F913F912F910F900FBE0F901F9018957F
:100AA000CF93DF9389E08093810080916F0086600F
:100AB00080936F0080E09AEF909389008093880084
:100AC00088EE9DEF90938B0080938A008FEF809348
:100AD0000403109206031092ED021092EF0280E0E0
:100AE00091E09093F1028093F0028091F3028E7F67
:100AF0008093F3021092EC0281E08093F20221E0F5
:100B000030E0F901EE0FFF1FEE0FFF1FEE0FFF1F8A
:100B1000DF01A451BD4FED0119821B8280E091E0FD
:100B20009D838C83ED50FD4F80818E7F80831C924E
:100B300081E090E0022E02C0880F991F0A94E2F72C
:100B40008E832F5F3F4F23303105D9F60E943F033C
:100B500082B1887F82B981B1876081B9DF91CF91FD
:100B600008951F920F920FB60F9211242F933F9367
:100B70004F935F936F937F938F939F93AF93BF93A5
:100B8000EF93FF9382B19091EA029770909598232A
:100B900092B92091E8028091E9022817B0F4822FDF
:100BA0009927FC01EE0FFF1FE80FF91FE452FD4FDC
:100BB0008181928190938B0080938A0080818093C1
:100BC000EA022F5F2093E8020FC01092E8028091A2
:100BD0000E02826080930E0288EE9DEF90938B0050
:100BE00080938A000E943F03FF91EF91BF91AF91E4
:100BF0009F918F917F916F915F914F913F912F9135
:100C00000F900FBE0F901F9018951092C402109273
:100C1000C3021092C6021092C5028091C802887F5A
:100C200088608093C8021092D8021092D902089569
:100C30008091F30280FD24C090E08091FB0280FF50
:100C400008C08091FA02982B8091FB028E7F8093DE
:100C5000FB028091030380FF08C080910203982B60
:100C6000809103038E7F809303038091C802982BA9
:100C70009770887F892B8093C80283FF09C00895ED
:100C80009091F2028091F3028E7F8093F302D5CF90
:100C9000E091C302F091C40283EC92E009950895BB
:100CA000EF92FF920F931F93CF93DF93CDB7DEB7F1
:100CB00024970FB6F894DEBF0FBECDBF8C017E0126
:100CC0000894E11CF11CF80182819381AC014F5F13
:100CD0005F4F53834283FC018491F8018483282F62
:100CE0002F7029839A012F5F3F4F33832283FA01AC
:100CF00094919A83A9014F5F5F4FF8015383428318
:100D0000F90194919B834F5F5F4FF80153834283B6
:100D100041505040FA0194919C8382958F70E82F46
:100D2000FF27EE0FFF1FEF5EFE4F0190F081E02DD9
:100D3000B801C7010995823021F0813009F0C3CF95
:100D400004C0F80185818860858324960FB6F894E5
:100D5000DEBF0FBECDBFDF91CF911F910F91FF90EE
:100D6000EF900895DC01FC018281938101979383C8
:100D70008283892BC1F485898150858B9927FC0159
:100D8000EE0FFF1FEE0FFF1FE80FF91FEA0FFB1F0B
:100D90008681978111969C938E9380859185FD0124
:100DA0009383828314820895DC01FC014281538184
:100DB0002581322F3770832F992784239523892B00
:100DC000F1F0842F80958323287F282B2583858924
:100DD0008150858B9927FC01EE0FFF1FEE0FFF1F3F
:100DE000E80FF91FEA0FFB1F8681978111969C93EC
:100DF0008E9380859185FD0193838283148208956B
:100E000081E090E00895CF93DF93EC01DB018B81CB
:100E10009927382F22278A81280F311D8881682F32
:100E20007727422FFB01E451FD4F238FFD01868977
:100E300087FD0DC08823F1F002C0220F331F8A9571
:100E4000E2F7C901232B89F44FEF9FEF19C09927CF
:100E500087FD9095909581959F4F02C03695279577
:100E60008A95E2F7C901232B49F0482F892F99274A
:100E7000982F06C0832F9927982F02C041E090E059
:100E80008981FB01EE0FFF1FEE0FFF1FEE0FFF1F0B
:100E9000E451FD4F83834483958380E090E0DF91AC
:100EA000CF910895CF93DF93FC018481807F8035BB
:100EB00009F447C0668940E050E0A62FBB27A7FD94
:100EC000B095CC27DD27CA1BDB0BFA01E451FD4F9F
:100ED000838D282F332767FD26C0662349F00A2E0D
:100EE00002C0220F331F0A94E2F721153105B1F039
:100EF000722F832F9927FA01EE0FFF1FEE0FFF1FAE
:100F0000EE0FFF1FE451FD4F7483858335832483E7
:100F10004F5F5F4F43305105C1F638C02FEF3FEFB1
:100F20007FEF8FEFE8CF0C2E02C0369527950A94FD
:100F3000E2F721153105E1F621E030E071E080E0D3
:100F4000DACF2789308D868987FD0FC0882351F03D
:100F500002C0369527958A95E2F72115310511F4DF
:100F600021E030E03383228311C0992787FD9095DB
:100F7000909581959F4F02C0220F331F8A95E2F70B
:100F80002115310579F72FEF3FEFECCFDF91CF91AE
:100F90000895FC0181818093EF0282818093F702A2
:100FA00083818093FF0280E090E00895CF93DF93E8
:100FB000FB01EC018981282F332727FD309537FF6E
:100FC00002C021503040220F331F220F331F828175
:100FD0009381820F931F9383828380E090E0DF915F
:100FE000CF910895FC01A181BB278281AA0FBB1F6D
:100FF000AA0FBB1FAA0FBB1FA451BD4FFD018183C8
:10100000838380E090E00895CF93DF93FC01DB01C0
:1010100082819927382F22278181280F311DED01E8
:10102000388F2F8B8E8987FD0DC08823D9F002C0A1
:10103000369527958A95E2F72115310599F421E037
:1010400030E010C0992787FD9095909581959F4F2E
:1010500002C0220F331F8A95E2F72115310511F4E2
:101060002FEF3FEFFD0185899927FC01EE0FFF1F50
:10107000EE0FFF1FE80FF91FEA0FFB1F8D919C91E8
:10108000119797838683ED018D899927FC01EE0FD7
:10109000FF1FEE0FFF1FE80FF91FEA0FFB1F8A81EA
:1010A0009B819187808782EB96E08D939C933B8315
:1010B0002A838D898F5F8D8B81E090E0DF91CF91C6
:1010C0000895CF93DF93DB01EB012D893327F901DD
:1010D000EE0FFF1FEE0FFF1FE20FF31FE60FF71FCC
:1010E0002D913C911197378326832D893327F90160
:1010F000EE0FFF1FEE0FFF1FE20FF31FEA0FFB1FA4
:101100002A813B813187208724ED36E02D933C9363
:10111000FC01818199279B838A838D898F5F8D8BC9
:1011200081E090E0DF91CF910895FB018581887F78
:10113000858380E090E0089582E090E008950F9329
:101140001F93CF93DF93EC0119810E948F1F2A8197
:10115000260F09F421E0012F1127000F111F000FA6
:10116000111F000F111FF801E451FD4F24830E944D
:101170008F1F8B81861718F466958617E8F3E801B0
:10118000C451DD4F6D830E948F1F8B81681729F436
:101190000E948F1F8B818617D9F304511D4FF801D0
:1011A000638380E090E0DF91CF911F910F910895CC
:1011B000AF92BF92CF92DF92EF92FF920F931F9365
:1011C000CF93DF93CDB7DEB724970FB6F894DEBF89
:1011D0000FBECDBF8C01E2E0AE2EB12CAC0EBD1E19
:1011E0006E010894C11CD11C75E0E72EF12CEC0EA9
:1011F000FD1EF8018281938101969383828301977A
:10120000F999FECF92BD81BDF89A20B5F8012483EB
:10121000822F8F708983D501F80182819381019695
:10122000938382830197F999FECF92BD81BDF89A8D
:1012300080B58D93AE15BF0579F722952F70E22FFB
:10124000FF27EE0FFF1FEF5EFE4F0190F081E02DB4
:10125000B801C6010995823021F0813009F0C9CF6B
:1012600004C0F80185818860858324960FB6F894C0
:10127000DEBF0FBECDBFDF91CF911F910F91FF90C9
:10128000EF90DF90CF90BF90AF90089578941F9229
:101290000F920FB60F9211242F933F934F935F93AA
:1012A0006F937F938F939F9320910D0330910E0343
:1012B00080911102853109F448C0809111028E316C
:1012C00009F447C090E060E070E08EEF86BD409189
:1012D0000C034F5F40930C034E3450F036FD32C088
:1012E00035FF30C030930B0320930A0320E030E039
:1012F00050910F039527892F9927062E02C09595A7
:1013000087950A94E2F780FF28C0852F8095809307
:101310000F034A3168F420E030E0992702C0959528
:1013200087956A95E2F780FF216010920C0315C043
:101330002115310591F3443380F036FDEECF220FB5
:10134000331FEBCF20E030E0D3CF99B167E070E0FE
:10135000BCCF93B161E070E0B8CF30930E0320931F
:101360000D03809112028F5F809312029F918F91E3
:101370007F916F915F914F913F912F910F900FBE91
:101380000F901F9018950097B9F0892F992786958F
:1013900086958695982F9170209113022F5F209348
:1013A000130280912301981751F010921302909329
:1013B000230181E090E0089580E090E008952A30D4
:1013C00029F02B30C9F78AE08093130281E090E086
:1013D000089584E085BD80916E00816080936E00E9
:1013E00080911102853139F0809111028E3109F01E
:1013F0000895299A08955F9A0895EF92FF920F93A6
:101400001F93CF93DF93CDB7DEB721970FB6F89434
:10141000DEBF0FBECDBFF894E0900A03F0900B033F
:1014200010920B0310920A037894C7010E94C3091B
:10143000882319F481E090E028C18701002E012F54
:10144000000C001F110B000C001F111F0F71C701B2
:1014500080959095880F892F881F990B80742E2D69
:101460002F73822B898384E291E00E948516802F5E
:101470000E946F1689810E946F168AE291E00E9495
:1014800085160530B9F680910F02813009F443C00A
:101490009981933109F466C0923109F459C09032B0
:1014A00009F46AC0913209F471C09C3009F478C023
:1014B000892F8150893008F43FC0903109F484C0ED
:1014C000913181F1903309F489C0973309F49AC0BE
:1014D0009F3009F4A1C09E3009F46CC09C3209F41D
:1014E00069C0892F8E52823008F4A0C09C3309F461
:1014F0007FC0953209F47CC0943109F4A9C09531BC
:1015000009F4B0C09F3309F4B7C09B3209F498C006
:1015100080E090E0BAC099819C3009F2973309F0DD
:1015200089CFC6CF40E050E060E070E084E10E94E7
:10153000781180E090E0A9C0898340E050E0BE01CE
:101540006F5F7F4F81E20E94781180E090E09DC044
:1015500040E050E060E070E081E10E94781180E0BE
:1015600090E093C040E050E060E070E082E10E94D3
:10157000781180E090E089C040E050E060E070E0E9
:1015800085E10E94781180E090E07FC040E050E06B
:1015900060E070E086E10E94781180E090E075C024
:1015A00040E050E060E070E080E10E94781180E06F
:1015B00090E06BC040E050E060E070E08CE10E94A1
:1015C000781180E090E061C040E050E060E070E0C1
:1015D00083E10E94781180E090E057C040E050E045
:1015E00060E070E087E10E94781180E090E04DC0FB
:1015F00040E050E060E070E08EE10E94781180E011
:1016000090E043C040E050E060E070E088E10E947C
:10161000781180E090E039C040E050E060E070E098
:1016200089E10E94781180E090E02FC040E050E016
:1016300060E070E08DE10E94781180E090E025C0CC
:1016400040E050E060E070E080E20E94781160CFFE
:1016500040E050E060E070E08AE10E94781180E0B4
:1016600090E013C040E050E060E070E08BE10E9449
:10167000781180E090E009C040E050E060E070E068
:101680008FE10E94781180E090E021960FB6F894E7
:10169000DEBF0FBECDBFDF91CF911F910F91FF90A5
:1016A000EF900895F999FECF92BD81BDF89A80B56B
:1016B00099270895F999FECF1FBA92BD81BD60BDEB
:1016C0000FB6F894FA9AF99A0FBE089560918101C5
:1016D0007091820122E53BE042E350E00E94AF1F9F
:1016E0000895CF93DF93C0E0D0E0BC0180E193E0A8
:1016F0000E94A61F892B11F4C1E0D0E0CE01DF913A
:10170000CF910895DC01FC0101900020E9F73197A9
:101710004E2F481B433328F0FC0111AA42E350E04E
:1017200003C055274F5F5F4F2AE53BE0BD01809125
:101730008101909182010E94CC1F089522E53BE037
:1017400042E050E060E070E08CE493E00E94AF1F64
:1017500080914D03882309F44EC08FEF80930403DA
:101760001092D90280E596E09093C4028093C30260
:1017700088E792E09093C6028093C5028091C802E8
:10178000877F8093C8028AEF8093ED028093EF02F7
:1017900080910E02886080930E0210920F02809159
:1017A0000E028F7D80930E02609181017091820103
:1017B00022E53BE042E350E080E193E00E94AF1F6E
:1017C000809110038F3F09F00895A0E1B3E0E3E7B3
:1017D000F1E08EE001900D928150E1F72AE53BE0C7
:1017E00042E350E060E173E08091810190918201D9
:1017F0000E94CC1F089522E53BE04EE150E062E0FC
:1018000070E08CEE92E00E94AF1F22E53BE049E1E0
:1018100050E060E270E083EC92E00E94AF1F22E5AE
:101820003BE040E150E069E370E08CED92E00E9423
:10183000AF1F22E53BE044E050E069E470E08EE059
:1018400092E00E94AF1FB0CF0F931F9310924D03F1
:101850000AE51BE0980142E050E06CE473E080E0B0
:1018600090E00E94CC1F98014EE150E06CEE72E0D7
:1018700082E090E00E94CC1F980149E150E063ECC7
:1018800072E080E290E00E94CC1F980140E150E0BD
:101890006CED72E089E390E00E94CC1F980144E077
:1018A00050E06EE072E089E490E00E94CC1F1F914E
:1018B0000F9108959C017727762F662740E007C097
:1018C000220F331F4F5F483081F0660F771FCB0127
:1018D0008227932797FFF4CF220F331F81E290E1F5
:1018E000282739274F5F483081F7C901089582E5DD
:1018F0008CBD08959C01EA982C98892F99278EBD5C
:101900000DB407FEFDCF8EB52EBD0DB407FEFDCF85
:101910002EB59927982F88272C9AEA9A3327822B5D
:10192000932B0895CF93DF93CDB7DEB724970FB6EF
:10193000F894DEBF0FBECDBF84B1806B84B926980A
:101940002C9A2E9A0E94770C2B9A2B9819821A8225
:101950001B821C8289819A81AB81BC81805A9B4BFE
:10196000AD40B040A0F489819A81AB81BC810196E1
:10197000A11DB11D89839A83AB83BC8389819A8120
:10198000AB81BC81805A9B4BAD40B04060F32B9A39
:1019900020E080E094EB0197F1F72F5F2436C9F740
:1019A00080EE90EC0E947A0C87ED90E80E947A0C11
:1019B0008BEA92EC0E947A0C81E89AEC0E947A0CF5
:1019C00080E090EE0E947A0C80E098EC0E947A0C05
:1019D00087EF94EC0E947A0C80E090E00E947A0CF1
:1019E00080914E03887F80934E0322982A9A80919B
:1019F0006900806280936900EA9A24960FB6F89491
:101A0000DEBF0FBECDBFDF91CF91089599278770BC
:101A10009070880F991F82959295907F9827807F6C
:101A20009827552747705070842B952B94697727FA
:101A300063707070660F771F660F771F660F771FD2
:101A4000862B972B0E947A0C08958036910548F0DA
:101A50002FE08034920710F4906A05C08FE39FE076
:101A6000FBCF80E690EA0E947A0C089522E0873945
:101A7000920720F125E18831920788F49C014427E0
:101A8000552760E678EA80E090E00E94E422DA01DF
:101A9000C90101978068966C0E947A0C08959C0198
:101AA000442755276CEF72E485E090E00E94C22243
:101AB000DA01C9010197966C0E947A0C0895992762
:101AC00087709070986977276F70707062957295C3
:101AD000707F7627607F7627862B972B0E947A0C63
:101AE000089580914E0382FD1DC081FD1EC080FFC0
:101AF00003C083E090E0089588EC92E80E947A0C9D
:101B000081E89AEC0E947A0C83E89AEC0E947A0CA5
:101B10001092140280914E03816080934E0380E006
:101B200090E0089581E090E0089582E090E00895CB
:101B30001F93CF93DF93EC0180914E0380FD50C043
:101B400082FF49C08B7F80934E038091830188235D
:101B5000B1F440914F03442309F440C020E0E22F48
:101B6000FF27DF01AC0FBD1FE15BFC4F81818C9330
:101B70002F5F80914F03281790F3992733C0A0E07F
:101B8000B0E010E0E0E0F0E0E15BFC4F6081CD010F
:101B90000E945A0CDC011F5FE12FFF2740914F0389
:101BA000842F99270196E817F90774F3E15BFC4F3E
:101BB000208133271F5FE12FFF27E15BFC4F8081EE
:101BC0009927982F8827822B932BA817B90719F2EA
:101BD00080E090E007C08EEF90E004C080E0CDCFC1
:101BE0008FEF90E0DF91CF911F91089580914E0388
:101BF00081FF03C08FEF90E0089580E090E00895AA
:101C000088E092E80E947A0C80914E03887F80934E
:101C10004E0380E090E00E947A0C0895EF92FF92CC
:101C20000F931F93CF93DF93EC01F62E0E941F1F9B
:101C300080914E0381FD74C094E69F1518F484E0F2
:101C400090E070C0826080934E0389E0F80EF092BD
:101C5000140297EFF90E80911402E82FFF27E15B41
:101C6000FC4F9AEA90838150E82FFF27E15BFC4FFD
:101C700090838150E82FFF27E15BFC4F90838150D8
:101C8000E82FFF27E15BFC4F9DE290838150E82F16
:101C9000FF27E15BFC4F94ED90838150E82FFF27F5
:101CA000E15BFC4FF082E82EEA946F2D80E090E03B
:101CB0000E945A0C9C01FF2091F01E2D00E0E12FA4
:101CC000FF27E15BFC4F8881808311506991C90136
:101CD0000E945A0C9C010F5F0F1589F7EF18EE2D2B
:101CE000FF27E15BFC4F2083EE2DE150AE2FBB2799
:101CF000A15BBC4F832F99278C93E150AE2FBB275C
:101D0000A15BBC4F8AEA8C93E150FF27E15BFC4F5B
:101D1000808388E392E80E947A0C80E090E002C021
:101D200082E090E0DF91CF911F910F91FF90EF90B3
:101D3000089578941F920F920FB60F9211242F934B
:101D40003F934F935F936F937F938F939F93AF9343
:101D5000BF93EF93FF9380914E0380FF27C0809144
:101D600014028436C8F188E092E80E947A0C0E943E
:101D7000181F80914E038E7F80934E032091140292
:101D8000332780914F0399270396281739070CF4BE
:101D900047C088E092E80E947A0C0E94181F809148
:101DA0004E038E7F846080934E033AC081FF38C01B
:101DB000E0911402FF27E15BFC4F80819927986B2B
:101DC0000E947A0C809114028823F9F08091140209
:101DD00081508093140224C00E94131F80E090EB76
:101DE0000E947A0C282F80911402882319F425363A
:101DF00008F024E680911402E82FFF27E15BFC4FF6
:101E000020838F5F80931402B9CF80914E038D7F22
:101E100080934E0388E092E80E947A0C0E94241F6F
:101E2000FF91EF91BF91AF919F918F917F916F91B2
:101E30005F914F913F912F910F900FBE0F901F9088
:101E400018950895982FEFE1F2E020E030E08081CE
:101E50008917E9F02F5F3F4F32962A303105B9F7E5
:101E600080911E02E82FFF27EE0FFF1FE15EFD4F5E
:101E7000908361838F5F80931E028A3019F081E026
:101E800090E0089510921E0281E090E0089590E0A5
:101E9000F901EE0FFF1FE15EFD4F8181861391E096
:101EA0006183892F9927089580911A028F5F80930B
:101EB0001A029927089520E030E08091840185304E
:101EC00011F421E030E0C9010895CF93DF93EC01D4
:101ED00080918401853019F081E090E03EC010923D
:101EE00084018C8180FF2AC082E48093600481E0B9
:101EF00080931B02809317029C8191FF06C081E0B2
:101F000080931D0282E098279C8380911A0280931F
:101F100061044E815527495F5F4FBE0182E694E020
:101F20000E949D1F8E81875F809318028091150209
:101F30008B7F8093150280E090E00FC080E5809356
:101F4000600410921B028AE0809317028B818093B9
:101F5000BF038A818093C003CFCFDF91CF910895D3
:101F6000CF93DF93EC0180911D02882301F1209132
:101F70001502822F992782FD02C081FF1AC01E829E
:101F80008091620489830E94361B88830E94361BDD
:101F90008A830E94361B8B838EEF8D83809115027E
:101FA00081FF17C088E08C8381E090E016C020910B
:101FB000150220FD03C080E090E00FC0FE01AFEFEE
:101FC000B4E087E00D9001928150E1F781E090E06C
:101FD00004C084E08C8381E090E0DF91CF9108958C
:101FE000FC0180911D028823A9F080911502282F01
:101FF000332722FD02C021FF0FC0CF010E94B00F86
:1020000080911502897F8093150210921D0280E055
:1020100090E008958091150280FD03C081E090E07A
:102020000895409105055527495F5F4F6FEF74E0B4
:10203000CF010E949D1F8091150291E08927809316
:10204000150280E090E00895EF92FF920F931F93A6
:10205000CF93DF93CDB7DEB724970FB6F894DEBFEA
:102060000FBECDBF8C01FC018081813461F042E064
:10207000E42EF12CE00EF11E823409F452C08035BA
:1020800009F06AC019C0218180911A028F5F281758
:1020900009F062C09091BF038281981709F05CC07B
:1020A0009091C0038381981709F056C081E0809316
:1020B000190220931A0250C0C7010E943E1B8823B8
:1020C00021F480911C02882389F081E48983F8013E
:1020D00081818F5F8A8384818C8385818B830E9439
:1020E000000E64E0CE0101960E940E0EF80161819F
:1020F00084810E94220F882321F480911C0288236E
:1021000059F1F80140855527495F5F4FB7018FEFBF
:1021100094E00E949D1F80911502816080931502BA
:102120001BC0C7010E944A1B882321F480911C0216
:10213000882379F0F80140855527495F5F4FB70143
:102140008FEF94E00E949D1F809115028160809323
:102150001502F801808193CF24960FB6F894DEBF64
:102160000FBECDBFDF91CF911F910F91FF90EF90E8
:1021700008950E94000E6091180280E694E00E948B
:102180000E0E089581EC93E00E94980D682F815007
:102190008D3F58F10E94F60D882331F5809184011E
:1021A000823041F1833070F48823F1F58091170279
:1021B0008150809317028F3F09F468C081E08093BB
:1021C00084010895843049F50E94710D80911902AF
:1021D000882309F050C08091160281508093160226
:1021E000882311F410928401089581EC93E00E94F9
:1021F0002410D0CF8091160281508093160288233C
:1022000099F780E090E00E947A0C90FDD7CF0E9471
:10221000B91083E08093840108958430A0F0853064
:1022200019F70E94710D08958130F1F680E090E079
:102230000E947A0C90FDD8CF83E08093160282E052
:102240008093840108950E94F60D882369F60E9408
:10225000710D84E1809316021092190280911B0285
:102260008823E9F08091150284608093150285E04F
:1022700080938401089580911502846080931502F3
:102280000E94710D85E0809384010895809115026C
:1022900082608093150285E080938401089584E034
:1022A0008093840108951092EF028091EF02809351
:1022B000ED021092F7028091F7028093F5021092DE
:1022C000FF028091FF028093FD0208959093C40263
:1022D0008093C3027093C6026093C5028091C802C6
:1022E000877F8093C8021092D8020E9453110895EC
:1022F0000F931F93CF93DF93EB018A01823109F48F
:1023000046C0813109F44FC0853109F458C0863187
:1023100009F475C0803109F45EC0813209F455C0FA
:10232000833109F490C0843109F49BC0873109F4EA
:102330007CC0883109F4B5C0893109F4A7C08C315B
:1023400009F4AAC08D3109F4B1C08E3109F4B9C0C5
:102350008A3109F4BCC08B3109F4CAC08F3109F449
:10236000D8C0803209F4E5C0863509F4F1C087345D
:1023700009F00DC180910F02FA0180838091D9028A
:10238000818380910403828383E090E0ACC18091DB
:1023900004038823E9F080910403815080930403AF
:1023A00080E090E0A0C1809104038F3F89F080918C
:1023B00004038F5F8093040380E090E094C18FEF6B
:1023C0008093040380E090E08EC168816930E0F082
:1023D00080E090E088C180910F02813009F450C004
:1023E00080910F02863061F180910F02809310027C
:1023F00080E090E00E94351480E090E074C110927B
:10240000040380E090E06FC1E62FFF27EE0FFF1F6F
:10241000EE0FFF1FE356FE4F628173818081918131
:102420000E94661180E090E05EC180910F028230D0
:1024300009F442C082E080930F0280E090E053C133
:1024400010921002D5CF8091D90288300CF68F5FA0
:102450008093D90283EC92E00E94520780E090E0E2
:1024600042C18091D902893F0CF4B2CF8150809350
:10247000D90283EC92E00E94520780E090E033C1E1
:1024800084E080930F0280E090E02DC185E080938E
:102490000F0280E090E027C11092060380E090E0F8
:1024A00022C10E94240C80E090E01DC181E0809355
:1024B000060380E090E017C110920F0280E090E0E8
:1024C00012C182E08093060380E090E00CC1E091AD
:1024D0000603FF27EE0FFF1FEE0FFF1FEE0FFF1F7C
:1024E000E451FD4F81818F5F818380E090E0FBC0EC
:1024F000E0910603FF27EE0FFF1FEE0FFF1FEE0F09
:10250000FF1FE451FD4F81818150818380E090E085
:10251000EAC0E0910603FF27EE0FFF1FEE0FFF1F3B
:10252000EE0FFF1FE451FD4F8FEF818380E090E0BD
:10253000DAC0E0910603FF27EE0FFF1FEE0FFF1F2B
:10254000EE0FFF1FE451FD4F118280E090E0CBC001
:102550008091110299279F938F9385E891E09F9333
:102560008F931F930F930E94E91FF80101900020A1
:10257000E9F73197E01B8E2F99272DB73EB72A5FD9
:102580003F4F0FB6F8943EBF0FBE2DBFACC0833790
:1025900051F1833509F4A2C0843409F499C083341D
:1025A00009F48EC0823709F486C0883709F468C000
:1025B0008F3409F460C08E3409F445C08735C1F109
:1025C000813579F1813441F1883511F1863489F012
:1025D0008B3409F0FDCE86E00E94DF1E9F938F931F
:1025E00088E991E0BCCF88818093D90280E090E0B7
:1025F0007AC02B813327322F22278C81280F311D5F
:102600004A81698188810E94031480E090E06BC058
:102610001092C9011092C8010E943D1480E090E020
:1026200062C01092C9011092C80180E090E05BC0C6
:1026300088818823C1F080910E02806280930E020F
:1026400080E090E050C0CB010E94820BC80101964F
:102650000E94660BF80101900020E9F73197E01B1A
:102660008E2F992740C080910E028F7D80930E029D
:1026700080E090E038C00E94311480E090E033C0E8
:10268000CB010E94710B882309F4A2CEFE010190B8
:102690000020E9F73197EC1B8E010E0F111DF80198
:1026A000628181810E94781CF80183810E942B1431
:1026B00080E090E018C00E94550280E090E013C0D6
:1026C0004A81698188810E941A1480E090E00BC0E1
:1026D00088818093040380E090E005C08881809326
:1026E0000F0280E090E0DF91CF911F910F9108954C
:1026F000FC01AB01BC016F5F7F4F80810E947811AC
:1027000099270895CF93DF93CDB7DEB724970FB6FF
:10271000F894DEBF0FBECDBF19821A821B821C82C5
:1027200089819A81AB81BC8180519742A040B040A1
:10273000A0F489819A81AB81BC810196A11DB11D54
:1027400089839A83AB83BC8389819A81AB81BC8165
:1027500080519742A040B04060F383E00E9413197B
:102760008823B1F00E94920C80EC96E00E94250D27
:1027700044E061E084E00E94060D80E09BE40E945A
:10278000360D66E080E00E945F0D80E00E94210F20
:1027900024960FB6F894DEBF0FBECDBFDF91CF9168
:1027A000089581E08093CA0180910E0286958695F6
:1027B0008695817080933E02089580913B029091AE
:1027C0003C02892B41F08091C6019091C701909302
:1027D0003C0280933B0280910F02823099F08091FD
:1027E0000F02873079F080910F028093100282E00F
:1027F00080930F028091C6019091C70190933C0293
:1028000080933B0208958093EF026093F702409318
:10281000FF02832F99278093F1022093F002809387
:10282000F9022093F80280930103209300030E9491
:10283000DD130895F8948093ED028093EF02609386
:10284000F5026093F7024093FD024093FF027894F3
:102850000E94DD13089580933D0282E08093CA01B7
:10286000089583E08093CA01089590934002809375
:102870003F0283E080930F020895909110038091AE
:10288000CA01833049F0692F892F0E94781C81E0AA
:102890000E942B140E94311408950F931F93CF931D
:1028A000DF9380910F02853009F4B8C08630A0F123
:1028B000873009F4E0C0873008F452C0883009F44A
:1028C000D0C0893009F488C02091C8013091C90175
:1028D0002115310569F08091CB019091CC010197D0
:1028E0009093CC018093CB018F5F9F4F09F4E8C098
:1028F00080913B0290913C02009709F44CC10197F2
:1029000090933C0280933B02892B09F044C1809153
:10291000100280930F023FC1823009F477C08330E8
:1029200098F0833009F4B0C0843071F680910503CB
:102930008093040380910E02886080930E02809140
:10294000100280930F02C0CF882309F0BDCF81E031
:1029500080933E0280910E02886080930E02B4CF75
:102960008091330290913402A0913502B0913602E9
:102970000196A11DB11D8093330290933402A09360
:102980003502B093360220913702309138024091DF
:10299000390250913A0282179307A407B50709F04C
:1029A00093CF10923302109234021092350210929B
:1029B00036028091040381508093040380910403C4
:1029C000882309F081CF81E080930F0280910E026D
:1029D000877F80930E0278CF8091410290914202CE
:1029E000019790934202809341028F5F9F4F09F0BD
:1029F0006BCF12B883B7817F846083BF83B7816058
:102A000083BF889583B78E7F83BFF8CF10923E0235
:102A100080910E02877F80930E0256CF1092330270
:102A20001092340210923502109236026091040323
:102A3000772784EE97E50E94AF22882777FD80955F
:102A4000982F6093370270933802809339029093E5
:102A50003A02809104038093050386E080930F027D
:102A600033CF88EB9BE0909342028093410289E050
:102A700080930F0229CF81E080933E0280910E0265
:102A8000877F80930E0220CF809141029091420275
:102A9000019790934202809341028F5F9F4F09F00C
:102AA00013CF809104038093050310920403809157
:102AB0000E02877F80930E0281E080930F0204CF85
:102AC0003093CC012093CB0186E00E94DF1EEC0105
:102AD0008091CA01813039F11092AE0680913D0299
:102AE0008093AB060E94361B8093AA060E94361B79
:102AF0008093AC068FEF8093AF068091CA0181303E
:102B000099F1823009F443C0809111028E3170F442
:102B100081E08093B00682E48093B1068AEA96E071
:102B20000E94C81BE5CE8093AE06D8CF01EB16E01D
:102B3000DF93CF9381EC91E09F938F931F930F933B
:102B40000E94E91FF80101900020E9F78F01025B64
:102B500016400093B0068DB79EB706960FB6F89450
:102B60009EBF0FBE8DBFDACF01EB16E082E58093EA
:102B7000B106C80101960E94660BF8010190002081
:102B8000E9F78F01025B16400093B006C7CF01EB57
:102B900016E089E4ECCFDF91CF911F910F9108955A
:102BA00080910F02893069F080910F02883049F0DE
:102BB00060E574E080E596E00E94661188E080930D
:102BC0000F0208951F920F920FB60F9211242F93A8
:102BD0008F939F93EF93FF939091C8002091CE0025
:102BE000E091A502EF5FEF718091A602E81749F02E
:102BF000892F8871E093A502FF27ED57FD4F2083B1
:102C000001C082E08093A702FF91EF919F918F9185
:102C10002F910F900FBE0F901F9018951F920F923B
:102C20000FB60F9211248F939F93EF93FF93909180
:102C3000A3028091A402981769F0E091A402EF5FCB
:102C4000EF73E093A402FF27ED5BFD4F808180933B
:102C5000CE0005C08091C9008F7D8093C900FF918F
:102C6000EF919F918F910F900FBE0F901F9018952D
:102C70009C011092A3021092A4021092A50210923D
:102C8000A60297FF04C082E08093C8003F77832F9D
:102C900099278093CD002093CC0088E98093C900C8
:102CA00086E08093CA0008959091A5028091A602C3
:102CB000981791F0E091A602EF5FEF71E093A60202
:102CC000FF27ED57FD4F20818091A7029927982F6C
:102CD0008827820F911D089580E091E00895282FA4
:102CE0009091A3029F5F9F738091A4029817E1F3D4
:102CF000E92FFF27ED5BFD4F20839093A302809186
:102D0000C90080628093C9000895CF93DF93EC01DE
:102D10008881882331F021960E946F16888188234C
:102D2000D1F7DF91CF910895CF93DF93FC01849188
:102D3000882349F0EF0121960E946F16FE0121962B
:102D400084918823C9F7DF91CF91089581E090E0C5
:102D5000089508958091A8029091A90208958DE99F
:102D600095E008951092A9021092A8020895CF93B9
:102D7000DF930E945416EC0190FF03C080E090E0C6
:102D800042C00E94131F2C2FC13619F18091AB0253
:102D9000882331F01092AB02C33679F1C23631F19B
:102DA0008091AC029091AD02FC01E456FA4F208371
:102DB00001969093AD028093AC028E509140F4F254
:102DC0008DE091E09093AD028093AC0280E090E0C2
:102DD0001AC08091AB02882331F481E08093AB026A
:102DE00080E090E010C01092AB02DACF0E94181F72
:102DF0008091AC029091AD0206C01092AD0210928B
:102E0000AC0280E090E0DF91CF910895FF920F93A4
:102E10001F93F82E062F142F0E94D113612F802F9D
:102E20000E94801CF092AA021F910F91FF900895BA
:102E30008091A8029091A902892B09F008950E941F
:102E4000B7160097D9F320919C05293479F02735DE
:102E5000B1F0223729F09093A9028093A802089537
:102E600001979093A9028093A802089540919F052D
:102E700060919E0580919D050E940617089540E08F
:102E800050E06DE975E087E50E9478110895CF93D1
:102E9000DF93EC018091A8029091A902892B51F057
:102EA00080919C05803549F0823439F01092A90256
:102EB0001092A80280E090E01AC09091AA02988334
:102EC00080919D0589839A830E94361B8B8382E0C3
:102ED0008C8380919C05823439F08091A8028250C5
:102EE0008E8381E090E003C083E08C83F6CFDF9196
:102EF000CF910895CF93DF93EC018091A802909138
:102F0000A902892B19F481E090E011C0CE010E9442
:102F100047174E8155276EE975E0CE0107960E944E
:102F20009D1F1092A9021092A80280E090E0DF910C
:102F3000CF91089581E60E946F1682E60E946F1677
:102F4000089581E60E946F1683E60E946F16089529
:102F5000EF92FF920F931F93CF93DF93EC017B01CE
:102F6000672BC1F000E010E008C00E946F160F5FF1
:102F70001F4F0E151F0571F0219688818136A9F724
:102F80000E946F1688810E946F160F5F1F4F0E15EB
:102F90001F0591F7DF91CF911F910F91FF90EF9057
:102FA0000895CF93DF93EC018881882339F411C011
:102FB00021960E946F168881882359F08136C1F7C7
:102FC0000E946F16888121960E946F16888188233F
:102FD000A9F7DF91CF9108951F93182F813619F427
:102FE00081E60E946F16812F0E946F161F9108952F
:102FF0000F931F938C0181E60E946F1683E60E9457
:103000006F16C8010E94D11781E60E946F1682E6F2
:103010000E946F161F910F910895CF93DF93EC01DB
:103020000E941F1F8C81992782FD2EC083FD27C01F
:103030008E818823A1F181E60E946F1683E60E94AB
:103040006F168C8180FF27C082E40E94EC1780E01D
:103050000E94EC1789810E94EC1788810E94EC176E
:103060006E817727CE0107960E94A81781E60E94FD
:103070006F1682E60E946F160E94241F10C080ED1A
:1030800091E00E94F817D4CF8DEC91E00E94F817E0
:103090008C819927CBCF80E50E94EC17D8CF80E0B8
:1030A00090E0DF91CF9108951F93182F81E60E9441
:1030B0006F1683E60E946F16812F0E94EC1781E63F
:1030C0000E946F1682E60E946F161F9108958091EC
:1030D000AE028111089589E40E94541881E0809322
:1030E000AE02089508950E949D1D08950E943A1D04
:1030F00099270895CF93DF93EC018091B302882341
:1031000021F08091B002882391F40E94651D0797F9
:1031100018F480E090E01CC0FE01A7E4BBE087E06B
:103120000D9001928150E1F781E090E011C01E8284
:103130008091AF0289830E94361B88830E94361BD0
:103140008A830E94361B8B8384E08C8381E090E02D
:10315000DF91CF910895CF93DF93EC018091B3027B
:10316000882321F08091B0028823B1F40E94651D6C
:10317000892B19F481E090E018C00E94651DAC0114
:1031800067E47BE0CE010E949D1F0E94451D0E94C6
:10319000481D80E090E009C0CE010E947A1810928C
:1031A000B0021092B30280E090E0DF91CF910895D9
:1031B000CF93DF93EC019C8191FF09C082E09827B7
:1031C0009C8381E08093B00288818093AF024E811E
:1031D0005527495F5F4FBE0185E59CE00E949D1F1A
:1031E0008E81992707960E94441D80E090E0DF9130
:1031F000CF9108950E94771D0895382F20910002E5
:10320000222381F0E3EDF1E090E004C09F5F3F9660
:10321000921741F080818317C9F766879F5F3F96B9
:103220009217C1F70895A82F709100027723E9F053
:103230008091D3018A17E1F060E014C0262F332774
:10324000A901440F551FFA01E20FF31FCF01880FA8
:10325000991F880F991FE80FF91FED52FE4F8081CB
:103260008A1751F06F5F671749F780E090E0089583
:1032700020E030E040E050E0FA01E20FF31FCF0120
:10328000880F991F880F991FE80FF91FED52FE4F05
:10329000868599270895A82F709100027723E9F079
:1032A0008091D3018A17E1F060E014C0262F332704
:1032B000A901440F551FFA01E20FF31FCF01880F38
:1032C000991F880F991FE80FF91FED52FE4F80815B
:1032D0008A1751F06F5F671749F78FEF90E00895F5
:1032E00020E030E040E050E0FA01E20FF31FCF01B0
:1032F000880F991F880F991FE80FF91FED52FE4F95
:103300008585992708951F9340910002442309F170
:1033100010E003C01F5F1417E0F4812F99279C0170
:10332000220F331F280F391FF901EE0FFF1FEE0F79
:10333000FF1FE20FF31FED52FE4F8685882351F3E6
:103340000184F285E02D0995409100021F5F14175A
:1033500020F31F910895CF93DF93782F8E5F8230F3
:10336000C0F1A0910002AA23E9F08091D301871750
:10337000E1F060E014C0262F3327A901440F551F48
:10338000FA01E20FF31FCF01880F991F880F991FD1
:10339000E80FF91FED52FE4F8081871751F06F5FE4
:1033A0006A1749F780E090E01BC020E030E040E081
:1033B00050E0CA01820F931FDC01AA0FBB1FAA0FA6
:1033C000BB1FA80FB91FAD52BE4FED018E858823DC
:1033D00019F481E090E004C0EF81F8850995992700
:1033E000DF91CF9108951F93CF93DF93182FEB01B7
:1033F000709100027723E9F08091D3018117E1F009
:1034000060E014C0262F3327A901440F551FFA018D
:10341000E20FF31FCF01880F991F880F991FE80F44
:10342000F91FED52FE4F8081811751F06F5F6717D2
:1034300049F781E090E017C020E030E040E050E044
:10344000FA01E20FF31FCF01880F991F880F991F10
:10345000E80FF91FED52FE4F0380F481E02DCE01FD
:1034600009951D839927DF91CF911F910895EF92C0
:10347000FF921F93CF93DF937C014091000244237E
:1034800019F110E003C01F5F1417F0F4812F992782
:103490009C01220F331F280F391FE901CC0FDD1FBC
:1034A000CC0FDD1FC20FD31FCD52DE4F8E85882378
:1034B00051F3ED81FE81C7010995882341F44091C4
:1034C00000021F5F141710F38EEF90E005C0888193
:1034D000F701858388819927DF91CF911F91FF9014
:1034E000EF9008951F93CF93DF93182FB0910002B0
:1034F000BB23E9F08091D3018117E1F0A0E014C073
:103500002A2F3327A901440F551FFA01E20FF31F99
:10351000CF01880F991F880F991FE80FF91FED52EF
:10352000FE4F8081811751F0AF5FAB1749F781E003
:1035300090E01DC020E030E040E050E0CA01820F82
:10354000931FDC01AA0FBB1FAA0FBB1FA80FB91F37
:10355000AD52BE4FED018E85882319F480E090E0D6
:1035600006C0ED01E981FA81CB0109959927DF9128
:10357000CF911F9108950F931F93CF93DF93082F3F
:10358000EB01509100025523E9F1E3EDF1E090E009
:1035900020E004C09F5F3F96951759F08081801707
:1035A000C9F783858823B1F321E09F5F3F96951784
:1035B000A9F7222339F110E004C01F5F151708F0A6
:1035C0004EC0812F99279C01220F331F280F391FCE
:1035D000F901EE0FFF1FEE0FFF1FE20FF31FED5279
:1035E000FE4F8081801749F38685882331F301805F
:1035F000F281E02DCE010995509100021F5F151751
:1036000000F32DC0442341F5552349F110E003C0D8
:103610001F5F151720F5812F99279C01220F331F5B
:10362000280F391FF901EE0FFF1FEE0FFF1FE20FEA
:10363000F31FED52FE4F8081801751F3848588235C
:1036400039F38685882321F30180F281E02DCE01B4
:10365000099550910002DCCF552309F0ACCF80E0F2
:1036600090E0DF91CF911F910F9108958091B10269
:10367000992708958091B2029927089520E030E0BB
:10368000FC0193818091B102981711F421E030E0A0
:10369000C901089520E030E0FC0191818091B202DF
:1036A000981711F421E030E0C90108958823B9F09A
:1036B0002091B102821799F08130A1F0823001F19E
:1036C0008330A9F0843009F448C08530E1F4822FBA
:1036D000992783FF09C0807F9070C09729F481E00B
:1036E00090E0089523FDFBCF80E090E00895822FC5
:1036F000992783FFF9CF807F90704097A9F7EFCF8C
:1037000023FDF2CFECCF863029F4822F992783FD59
:10371000EBCFF1CF8730B1F0883049F1893091F1AA
:103720008A3041F480E090E0207F2032D1F681E0C1
:1037300090E008958B30C1F680E090E0207F203348
:10374000B1F30895332723FDCFCF80E090E0207FB1
:1037500030702032310559F30895822F992783FF65
:10376000C3CF807F9070809709F0BECFB8CF33274A
:1037700023FDBACF80E090E0207F30702033310508
:10378000B1F2089580E090E0207F203181F2089529
:10379000CF93DF93EC0180910E0285FD33C08C81C5
:1037A00080FF11C09D819F3FE1F42FEF8091B10216
:1037B0008A8389818B839F3F01F140E0BE01822F84
:1037C0000E94BB1A1FC08091B1028A83CE010E9461
:1037D000BA1C8B83CE010E94AA1CBE010E94721AE1
:1037E00011C0CE010E949A1C282F9D818091B102A8
:1037F0008A8389818B839F3F01F741E0BE01822F3D
:103800000E94BB1ADF91CF910895CF93DF93EC0113
:103810000E94F71C8C8180FD0AC09091B1028981C1
:10382000891701F18B81981709F03FC017C0CE01AD
:103830000E94C81B89810E94561B882359F58C81E0
:1038400081FF33C084E08C831E82888189838091CC
:10385000B1028883CE010E94C81B27C0CE010E94FE
:10386000C81B23C0CE010796BC010E947813982F75
:103870008823B9F48C8181FF18C084E08C839E83F7
:10388000888189838091B1028A838883CE010E94D6
:10389000C81B0BC060E070E0CE0107960E94781351
:1038A000CECF8C8181FFEBCFE8CFDF91CF91089510
:1038B0001F930E9483190E94D51C8AEA96E00E94F9
:1038C000371A182F8E3F91F08AEA96E00E94AA1CC0
:1038D0000E94AB19882351F06AEA76E0812F0E949A
:1038E000F319612F8AEA96E00E94051C1F91089542
:1038F0008093B1026093B2026FEF0E94CA1C0895D8
:103900008093B1026093B2020E948C1C6FEF809191
:10391000B1020E94CA1C0895E7E4F7E08EEF8083AD
:1039200011828FEF8283138234968BE0E734F8079D
:10393000A9F70895CF93DF93EC01EA81FF27EE0FFB
:10394000FF1FEE0FFF1FE95BF84F80819927DF9182
:10395000CF910895CF93DF93EC01EB81FF27EE0F1A
:10396000FF1FEE0FFF1FE95BF84F80819927DF9162
:10397000CF910895CF93DF93EC01E981FF27EE0FFC
:10398000FF1FEE0FFF1FE95BF84F81819927DF9141
:10399000CF910895E82FFF27EE0FFF1FEE0FFF1FB7
:1039A000E95BF84F608381830895809101029091D3
:1039B0000202019790930202809301028F5F9F4F52
:1039C00009F0089588EE93E090930202809301023B
:1039D000E7E4F7E005C034968BE0EF33F80789F3AE
:1039E0008381815083838F3FB1F78283F4CFFF922D
:1039F0000F931F93CF93DF93EC01F62E1881862F40
:103A00000E944B19082F0E94361B811711F01123B9
:103A1000C9F41A810E94361B181731F19A81992333
:103A200019F1E92FFF27EE0FFF1FEE0FFF1FE95BD4
:103A3000F84F82818017C0F0F082918302838CE37B
:103A4000838312C0E12FFF27EE0FFF1FEE0FFF1F32
:103A5000E95BF84F82818017E0F2F0828A818183EE
:103A600002838CE38383D5CFDF91CF911F910F9198
:103A7000FF9008958091B70290E0811191E081E07C
:103A80009827892F9927089508951092B5020895CF
:103A90008091B5028823C1F48091B4028823A1F4F7
:103AA0008091B702882381F49FB7F89480E98093CE
:103AB000C100449845981092B4021092C20210922C
:103AC000C1021092B5029FBF08958091C1029091EA
:103AD000C202892B49F08091B502882329F0809198
:103AE000C1029091C202089580E090E008959FB7CE
:103AF000F8941092C50089E08093C40086E080931A
:103B0000C200E1ECF0E0808188698083E0ECF0E0C5
:103B100080818D7F80839FBF3C9A3D9A1092C00226
:103B20001092BF021092C2021092C1021092BE0205
:103B30001092BD020E94481D08958091BF0290918D
:103B4000C002892B21F08091B702882369F080910F
:103B5000BF029091C002892B19F48091B5028111A6
:103B600008950E94481D08958091B402882379F732
:103B70008091BF029091C002EACF1F920F920FB6C0
:103B80000F9211242F933F934F935F936F937F93E3
:103B90008F939F93AF93BF93EF93FF938091B7025F
:103BA000813099F08091B7028230E1F08091B702C4
:103BB0008330B9F18091B702843009F452C080910A
:103BC000B702853009F055C03EC080E38093C6003F
:103BD0008091B7028F5F8093B7021092BB02109260
:103BE000BA0247C08091BC02882321F52091BA0215
:103BF0003091BB02F901EB5AF34F80818C35A9F16A
:103C000080818093C6002F5F3F4F3093BB0220938B
:103C1000BA028091BF029091C0022817390749F576
:103C200003C08CE58093C6008091B7028F5F8093BC
:103C3000B7021FC08093C6001092BC022091BA0246
:103C40003091BB02E0CF1092B70281E08093B602C0
:103C50001092C0021092BF028093B3020E94481DCE
:103C600008C081E38093C600DFCF8093C6008093B5
:103C7000BC02FF91EF91BF91AF919F918F917F9186
:103C80006F915F914F913F912F910F900FBE0F90C9
:103C90001F9018951F920F920FB60F9211242F9319
:103CA0003F938F939F93EF93FF938091C00083FD89
:103CB00004C08091C00084FF03C08091C6003FC053
:103CC0002091C60031E03093B4022C35C1F08091D0
:103CD000B902882331F01092B902203351F1213317
:103CE000C1F08091C1029091C202FC01E95BF44FE6
:103CF000208301969093C2028093C10220C08091DC
:103D0000B902882319F01092B902EBCF3093B902AF
:103D100016C01092B4028091C1029091C202892B08
:103D200011F03093B5028FB7F8941092C1008FBF95
:103D300006C03093B8021092C2021092C102FF91E5
:103D4000EF919F918F913F912F910F900FBE0F9008
:103D50001F901895CF93DF930E949D1D0E94AA1675
:103D6000EC01892BB9F40E94651DEC01892B21F12E
:103D700083E092E00E948516BE0187E49BE00E94EA
:103D8000A81787E092E00E9485160E94451D0E94B8
:103D9000481D12C00E943A1D882329F30E94AF16C5
:103DA000AE01BC0185E59CE00E949D1FCE010E94F2
:103DB000441D0E94B216D7CFDF91CF9108951F9373
:103DC000182F0E941D1F80917C00807F80937C00B3
:103DD00080917C00812B80937C0080917A008064AC
:103DE00080937A0080917A0086FDFCCF0E941E1F8E
:103DF00080917800909179001F91089580EC8093D4
:103E00007C0087EC80937A0086E00E94DF1E86E0CB
:103E10000E94DF1E86E00E94DF1E08950F9A0D9A11
:103E20000C9A159A08958FB7F894159A8FBF089534
:103E30008FB7F89415988FBF0895089508958FB798
:103E4000F894149A8FBF08958FB7F89414988FBF81
:103E500008959FB7F89482B1805882B99FBF0895A2
:103E6000A0E0B0E0E6E3FFE10C943A23EC016881C6
:103E700079818A819B81611571058105910549F4DC
:103E800084E2A82E89EDB82E8BE5C82E87E0D82EC7
:103E900002C05B016C01C601B5012DE133EF41E0C9
:103EA00050E00E94E42227EA31E440E050E00E9422
:103EB00013237B018C01C601B5012DE133EF41E0F5
:103EC00050E00E94E422CA01B90124E13BE040E055
:103ED00050E00E941323E61AF70A080B190B17FF8C
:103EE00008C08FEF9FEFAFEFBFE7E80EF91E0A1F84
:103EF0001B1FE882F9820A831B838FEF9FEFAFEFCE
:103F0000BFE7E822F9220A231B23C801B701EAE030
:103F1000CDB7DEB70C9456230E94301F08958AE077
:103F200092E00E94301F089560930A0270930B0282
:103F300080930C0290930D020895FB01DC0102C0F6
:103F400001900D9241505040D8F70895FB01DC01DB
:103F50008D91019080190110D9F3990B0895A0E07B
:103F6000B0E0E5EBFFE10C943C237C018B01EA011E
:103F7000690108C0C8010F5F1F4FF6010995F701DD
:103F800081937F012197FFEFCF3FDF0799F7E8E0AB
:103F9000CDB7DEB70C945823A0E0B0E0E2EDFFE12E
:103FA0000C943C238C017B01EA01690108C0F701F4
:103FB00061917F01C8010F5F1F4FF601099521979D
:103FC000FFEFCF3FDF0799F7E8E0CDB7DEB70C94FE
:103FD0005823A0E1B0E0EFEEFFE10C9440230F89FD
:103FE000188D86E08E831C830B838FEF9FE7988765
:103FF0008F83AE01455E5F4F5A834983698D7A8D09
:10400000CE0103960E940E2029853A85020F131FC8
:10401000F8011082E4E060960C945C232F923F92AA
:104020005F926F927F928F929F92AF92BF92CF9248
:10403000DF92EF92FF920F931F93CF93DF93CDB751
:10404000DEB72B970FB6F894DEBF0FBECDBF3C0195
:104050004B016A01FC0117821682838181FD03C036
:104060008FEF9FEFC3C11E010894211C311CF30187
:104070003381F40133FD859133FF81914F01882312
:1040800009F4B1C1853239F433FD859133FF819153
:104090004F01853229F4B30199270E942422E7CFEA
:1040A000982F10E05524AA241032B0F49B3269F006
:1040B0009C3228F4903251F0933271F40BC09D324F
:1040C00039F0903349F411602AC01260146027C09F
:1040D000186025C0106123C017FD2AC0292F205366
:1040E0002A3088F416FF07C08AE0A89EC001112478
:1040F000A22EA80E14C08AE0589EC0011124522E90
:10410000580E10620CC09E3221F416FD6CC1106472
:1041100006C09C3611F4106802C0983649F4F401C8
:1041200033FD959133FF91914F01992309F0BCCF55
:10413000892F8554833018F08052833038F424E07E
:1041400030E0C20ED31E8FE389830FC0933631F067
:10415000933781F0933509F056C020C0F601808175
:10416000898322E030E0C20ED31E710181E0A82EC7
:10417000B12C12C0F601E080F18016FD03C06FEF94
:104180007FEF02C06A2D772722E030E0C20ED31EF7
:10419000C7010E9419225C011F7713C0F601E0805D
:1041A000F18016FD03C06FEF7FEF02C06A2D772705
:1041B00022E030E0C20ED31EC7010E940E225C0135
:1041C000106813FF07C01BC0B30180E290E00E949B
:1041D00024225A94852D9927A816B906A8F30FC052
:1041E000F70117FD859117FF81917F01B301992791
:1041F0000E94242251105A940894A108B108A114D5
:10420000B10471F7EDC0943611F0993669F517FFD6
:104210000AC0F601608171818281938124E030E0DF
:10422000C20ED31E0DC0F601808191819C01B9019F
:10423000882777FD8095982F42E050E0C40ED51E68
:10424000012F0F7697FF08C0909580957095619526
:104250007F4F8F4F9F4F00682AE030E0A1010E94FE
:104260005122B82EB21840C0953721F41F7E2AE0A3
:1042700030E01CC0197F9F3661F0903720F49835EC
:1042800009F0B1C00FC0903739F0983709F0ABC0D2
:1042900004C028E030E00AC0106114FD146020E181
:1042A00030E004C014FD166020E132E017FF0AC0C0
:1042B000F601608171818281938144E050E0C40EF7
:1042C000D51E0BC0F60180819181AC01BA0188270F
:1042D0009927E2E0F0E0CE0EDF1EA1010E945122FC
:1042E000B82EB218012F0F7706FF0BC00E7FBA143D
:1042F00040F4802F992784FF06C082FD04C00F7E02
:1043000002C01B2D01C01A2D202F332724FF0CC003
:10431000FE01EB0DF11D8081803311F4097E08C090
:104320001F5F22FF05C003C0822F867809F01F5F40
:10433000E02EFF24E3FC14C0E0FE0FC0151510F0C2
:10434000AB2C0BC0AB2CA50CA11A152D06C0B301CC
:1043500080E290E00E9424221F5F1515C0F304C084
:10436000151510F4511A01C05524E4FE10C0B30114
:1043700080E390E00E942422E2FE1EC0E1FE03C022
:1043800088E590E002C088E790E0B3010CC08E2D74
:10439000867891F0E1FE02C08BE201C080E207FD69
:1043A0008DE2B30199270E94242206C0B30180E365
:1043B00090E00E942422AA94BA14C0F3BA94F101A6
:1043C000EB0DF11D8081B30199270E942422BB20AF
:1043D00039F0F4CFB30180E290E00E9424225A9495
:1043E0005520C1F744CEF301868197812B960FB6F5
:1043F000F894DEBF0FBECDBFDF91CF911F910F911B
:10440000FF90EF90DF90CF90BF90AF909F908F90F4
:104410007F906F905F903F902F900895FC010590E2
:10442000615070400110D8F7809590958E0F9F1FB6
:104430000895FC016150704001900110D8F78095FB
:1044400090958E0F9F1F08950F931F93CF93DF9327
:104450008C01EB018B81992781FF1BC082FF0DC06E
:104460002E813F818C819D812817390764F4E88172
:10447000F9810193F983E88306C0E885F985802FE7
:104480000995892B31F48E819F8101969F838E83BC
:1044900002C00FEF1FEFC801DF91CF911F910F9165
:1044A0000895FA01AA27283051F1203181F1E894CA
:1044B0006F936E7F6E5F7F4F8F4F9F4FAF4FB1E017
:1044C0003ED0B4E03CD0670F781F891F9A1FA11D12
:1044D000680F791F8A1F911DA11D6A0F711D811D13
:1044E000911DA11D20D009F468943F912AE0269FD8
:1044F00011243019305D3193DEF6CF010895462F37
:104500004770405D4193B3E00FD0C9F7F6CF462F17
:104510004F70405D4A3318F0495D31FD4052419380
:1045200002D0A9F7EACFB4E0A6959795879577953D
:104530006795BA95C9F700976105710508959B01C4
:10454000AC010A2E06945795479537952795BA954D
:10455000C9F7620F731F841F951FA01D089597FB55
:10456000092E07260AD077FD04D049D006D00020B6
:104570001AF4709561957F4F0895F6F7909581959F
:104580009F4F0895A1E21A2EAA1BBB1BFD010DC06F
:10459000AA1FBB1FEE1FFF1FA217B307E407F507F3
:1045A00020F0A21BB30BE40BF50B661F771F881FCF
:1045B000991F1A9469F760957095809590959B0165
:1045C000AC01BD01CF01089597FB092E05260ED041
:1045D00057FD04D0D7DF0AD0001C38F45095409521
:1045E000309521953F4F4F4F5F4F0895F6F79095C7
:1045F0008095709561957F4F8F4F9F4F0895AA1BAF
:10460000BB1B51E107C0AA1FBB1FA617B70710F0BD
:10461000A61BB70B881F991F5A95A9F780959095EF
:10462000BC01CD010895629FD001739FF001829F6C
:10463000E00DF11D649FE00DF11D929FF00D839F31
:10464000F00D749FF00D659FF00D9927729FB00DCE
:10465000E11DF91F639FB00DE11DF91FBD01CF01E1
:10466000112408952F923F924F925F926F927F9202
:104670008F929F92AF92BF92CF92DF92EF92FF9272
:104680000F931F93CF93DF93CDB7DEB7CA1BDB0B1E
:104690000FB6F894DEBF0FBECDBF09942A883988C3
:1046A00048885F846E847D848C849B84AA84B984CA
:1046B000C884DF80EE80FD800C811B81AA81B981D6
:1046C000CE0FD11D0FB6F894DEBF0FBECDBFED01EA
:0446D0000895FFCF7B
:1046D40000000002000000002503000000000001AB
:1046E400029F080307C907D607F207040861089563
:1046F400089C08026163445243006162000607009B
:104704000000000000000002010303050000000097
:104714000000000000000000000000000000000095
:104724000000000000030406010000000000000077
:104734000000000000000000000000000000000075
:104744000000006E65776C616D702E6C6F63616C38
:1047540000CD070105443D536570202033203230DD
:10476400303920483D256400563D2575005006A487
:10477400025006CC025006300350064C0350067813
:10478400035006A4035006C0035006040450062038
:1047940004563D2575009001E80301E803534400E5
:1047A400535400010D187A174717A616671801010C
:1047B4000A0102D818AB187A187618731800001476
:1047C4000103650FF00FB00F5B0FC21000001E0154
:0E47D40003E80361635200616200010000000F
:00000001FF
