:100000000C9436020C9453020C9453020C94BF0EC1
:100010000C9453020C9453020C9453020C9453020C
:100020000C9453020C9453020C9453020C945302FC
:100030000C9453020C94CF040C94D7050C945302E7
:100040000C9453020C9453020C946C090C945302BC
:100050000C94751E0C9453020C94E81D0C945302DE
:100060000C9453020C9453020C9453020C945302BC
:100070000C940D160C9439160C94530202000800CF
:1000800012001F003100470060007E009F00C50085
:10009000EE001B014D018201BB01F80139027E0215
:1000A000C70213036403B90311046E04CE043305BD
:1000B0009B0507067706EC066407E0076008E4087E
:1000C0006B09F709870A1A0BB20B4E0CED0C900D59
:1000D000380EE30E920F4510FC10B711761239134B
:1000E0000014CB1499156C1643171D18FC18DE1953
:1000F000C41AAF1B9D1C8F1D851E7F1F7D207F2175
:1001000084228E239C24AE25C326DD27FA281B2AB1
:10011000412B6A2C972DC82EFD2F36317332B43304
:10012000F93442368E37DF38333A8C3BE83C493E6F
:10013000AD3F15418142F1436545DD465948D949F6
:100140005D4BE54C704E005094512B53C65466568F
:100150000958B0595B5B0B5DBE5E75602F62EE6344
:10016000B16578674269116BE46CBA6E9470737212
:1001700055743B762578137A067CFB7DF57FF381F9
:10018000F583FB850488128A238C398E52907092F5
:100190009194B696DF980C9B3D9D729FABA1E8A30E
:1001A00029A66DA8B6AA03AD53AFA8B100B45CB63A
:1001B000BDB821BB89BDF5BF65C2D9C451C7CDC982
:1001C0004CCCD0CE58D1E3D373D606D99EDB39DEE2
:1001D000D8E07BE322E6CEE87DEB2FEEE6F0A1F35C
:1001E00060F623F9E901B4048207550A2B0D0510C6
:1001F000E412C615AC18961B841E76216C24652764
:10020000632A652D6A30743382369339A83CC23F25
:10021000DF42004625494E4C7B4FAC52E1551A59FE
:10022000565C975FDC6224667169C16C15706E73F1
:10023000CA762A7A8E7DF6806284D287468BBE8EFD
:100240003992B9953D99C49C50A0DFA372A70AAB1F
:10025000A5AE44B2E7B58EB939BDE8C09BC452C85B
:100260000CCCCBCF8ED354D71FDBEDDEBFE296E6AE
:1002700070EA4EEE30F216F610FF00026007000042
:100280001000400011FF4000600700001100400016
:1002900012FF4000600700001200400010FF400005
:1002A00030F7000040000000400100004002000064
:1002B000507D000011FF000F6002000011000001DE
:1002C0006002000030FC0000800000004000FF00E1
:1002D0004001000040020000507D0000400000008E
:1002E0004001FF0040020000507D0000400000007F
:1002F000400100004002FF00507D000040008000EF
:100300004001000040020000507D0000400000005D
:100310004001800040020000507D000040000000CD
:100320004001000040028000507D000030E80000E5
:1003300000002202600700000001220260070000A6
:10034000000222026007000030FA000010FF0002E5
:10035000600700001000400011FF4000600700002F
:100360001100400012FF4000600700001200400032
:1003700010FF400030F70000400000004001000086
:100380004002000010FF0002600500001000400065
:1003900012FF4000600500001200400010FF400006
:1003A00030FA0000400000004002000040019600CA
:1003B000507D000040010000507D000030FC000036
:1003C00040000000400100004002000012FF004019
:1003D00060040000500200001200004060040000B1
:1003E0005006000012FF00406004000050020000B0
:1003F00012000040600400005032000030F40000A1
:100400008000000040010000400200004000960013
:10041000507D000040000000507D000030FC0000D6
:1004200040000000400100004002000010A0100049
:1004300011A0090012A008006007000010002000B1
:1004400011002000120020006007000030F80000BA
:10045000400100004002000040009600507D000076
:1004600040000000507D000030FC000011241FBE41
:10047000CFEFD0E1DEBFCDBF12E0A0E0B1E0EAE215
:10048000F7E402C005900D92AE30B107D9F71DE038
:10049000AEE0B2E001C01D92A936B107E1F70E94BB
:1004A00056020C9494230C940000FFCFCBEFD0E1C4
:1004B000DEBFCDBF88E10FB6F89480936000109244
:1004C00060000FBE84B7877F84BF80916000886121
:1004D00080936000109260002098289A88E190E054
:1004E00029E20FB6F894A895809360000FBE209380
:1004F0006000A89519821A821B821C8289819A81C8
:10050000AB81BC810A97A105B10598F489819A81D4
:10051000AB81BC810196A11DB11D89839A83AB83F8
:10052000BC8389819A81AB81BC810A97A105B10501
:1005300068F3189997C08EE1809311020E94391FC9
:10054000A89580911102853109F4A2C08091110211
:100550008E3109F495C0A8950E94760584E090E05C
:100560000E94631680E091E09093660D8093650D84
:100570000E940F0AA8950E942B060E94C40B80912E
:100580001102853109F479C0809111028E3109F48C
:100590006DC00E94F713A8950E9425190E94A21D04
:1005A0000E94A81360E080E00E94AB1CA8956091B7
:1005B000690D70916A0D882799270E94BF1F0E94BC
:1005C000BA1F70936A0D6093690D7894A8950E9484
:1005D000541F80911402813240F0109214028091D5
:1005E0000E0285FD39C00E94831C80910E0286FD9B
:1005F00030C080910E0282FD24C080910E0281FFE6
:1006000005C080910E028D7F80930E0280910E02B4
:1006100080FF10C080910E028E7F80930E02809129
:1006200040028823E1F480910E0283FFCFCF0E9425
:100630003E06CCCF0E94230A0E949D180E944317B9
:10064000C5CF0E94781480910E028B7F80930E029A
:10065000D4CF0E94FB15CDCF0E94D51EC6CF0E94DD
:100660007304E1CF85E18093110268CF339991CF74
:1006700060E083E00E9428198CCF339BF9CF84CFB0
:100680003B98439A0E94291F86E00E940A1F63CF6D
:100690003B98439A60CF0E949A1680E090E00895BC
:1006A00089E080938100EFE6F0E0808186608083BE
:1006B00080E09AEF909389008093880088EE9DEF08
:1006C00090938B0080938A0008950F931F93CF938C
:1006D000DF93CDB7DEB723970FB6F894DEBF0FBE1A
:1006E000CDBF8E010F5F1F4FD801EEE0F1E083E038
:1006F00001900D928150E1F720E030E090910403E9
:10070000D901AA0FBB1FAA0FBB1FAA0FBB1FFD0158
:10071000E451FD4F8181882341F08F3F09F441C0AE
:10072000989FC0011124892F9927A451BD4FFD0125
:1007300082832F5F3F4F2330310501F731E051E0D5
:1007400080E090E0B801680F791FD801A30FB11DB8
:100750004C91E42FFF27EE0FFF1FEE0FFF1FEE0F50
:10076000FF1FE451FD4F9281FB012081E22FFF2703
:10077000EE0FFF1FEE0FFF1FEE0FFF1FE451FD4FA7
:100780008281981718F4FB0140832C933F5F33302C
:10079000E0F2352F3F5F852F333039F0532F992703
:1007A000D1CF9F3F09F0BCCFC0CFD80140E010E0CF
:1007B00050E0BE016C5F7F4F8C91282F3327220FB2
:1007C000331F220F331F220F331FF901E451FD4F56
:1007D00082818823B9F182818F3FA1F1553B98F442
:1007E0008281853B80F0842F9927FC01EE0FFF1F4B
:1007F000E80FF91FE452FD4F88EE9DEF928381834D
:100800008FEF80834F5FF901E451FD4F82815817CC
:1008100008F04BC08681182B5281242F3327E281A8
:10082000FF27EE0FFF1FE658FF4F85919491F901C6
:10083000EE0FFF1FE20FF31FE452FD4F92838183FF
:1008400010834F5F1196A617B70709F0B5CF553B38
:1008500080F4842F9927FC01EE0FFF1FE80FF91F8A
:10086000E452FD4F88EE9DEF928381838FEF80836A
:100870004F5F1092E8024093E9021092EA028091E1
:10088000EE028823F9F49FEF8091F602882321F08D
:100890008091FA02809598238091FE028823B1F01E
:1008A000809102038095982311C08681182B842F94
:1008B0009927FC01EE0FFF1FE80FF91FE752FD4FCC
:1008C0001083C0CF9091F2029095DECF9093EB020F
:1008D00023960FB6F894DEBF0FBECDBFDF91CF9148
:1008E0001F910F91089560E070E0AB01440F551F18
:1008F000440F551F440F551FFA01E451FD4F9181DC
:100900008381981709F444C0A1819181838198174C
:10091000B8F48081918124813581280F391F31837A
:10092000208381818A17D8F0918183818917B8F05B
:10093000FA01E451FD4F91818381981749F519C05F
:10094000918183818917A0F78081918124813581EC
:10095000821B930B918380838181A81788F4838104
:1009600081831082FA01E451FD4F918183819817B0
:1009700079F4FA01ED50FD4F80818160808308C0D9
:10098000918183819817A0F6838181831082EACFB9
:100990006F5F7F4F6330710509F0A7CF08951F92F5
:1009A0000F920FB60F9211242F933F934F935F93A3
:1009B0006F937F938F939F93AF93BF93EF93FF9327
:1009C0008091EA02882311F16091E80280910E0281
:1009D000846080930E028091E902681708F066C077
:1009E000862F9927FC01EE0FFF1FE80FF91FE45235
:1009F000FD4F8181928190938B0080938A0080814A
:100A00008093EA026F5F6093E8025FC082B1887FE3
:100A100082B992B18091EB0280958770892B82B95F
:100A200080918400909185006091E802462F5527BF
:100A3000DA01AA0FBB1FFD01E40FF51FE452FD4FC1
:100A4000218132818053984F2817390748F58091CA
:100A500084009091850082179307C8F392B1A40F88
:100A6000B51FA452BD4F8C9187708095892382B9A0
:100A70006F5F8091840090918500462F5527DA01A1
:100A8000AA0FBB1FFD01E40FF51FE452FD4F2181AA
:100A900032818053984F28173907C8F26093E802D3
:100AA00080910E02816080930E0290CF1092E80236
:100AB00080910E02826080930E0288EE9DEF9093EB
:100AC0008B0080938A000E946503FF91EF91BF9194
:100AD000AF919F918F917F916F915F914F913F91D6
:100AE0002F910F900FBE0F901F901895CF93DF930B
:100AF00089E08093810080916F00866080936F0011
:100B000080E09AEF909389008093880088EE9DEFB3
:100B100090938B0080938A008FEF80930403109250
:100B200006031092ED021092EF0280E091E09093A4
:100B3000F1028093F0028091F3028E7F8093F302A2
:100B40001092EC0281E08093F20221E030E0F901A2
:100B5000EE0FFF1FEE0FFF1FEE0FFF1FDF01A4516F
:100B6000BD4FED0119821B8280E091E09D838C8353
:100B7000ED50FD4F80818E7F80831C9281E090E05C
:100B8000022E02C0880F991F0A94E2F78E832F5F0E
:100B90003F4F23303105D9F60E94650382B1887F2B
:100BA00082B981B1876081B9DF91CF9108951F9299
:100BB0000F920FB60F9211242F933F934F935F9391
:100BC0006F937F938F939F93AF93BF93EF93FF9315
:100BD00082B19091EA0297709095982392B92091F2
:100BE000E8028091E9022817B0F4822F9927FC01CE
:100BF000EE0FFF1FE80FF91FE452FD4F8181928134
:100C000090938B0080938A0080818093EA022F5F0B
:100C10002093E8020FC01092E80280910E028260D9
:100C200080930E0288EE9DEF90938B0080938A0054
:100C30000E946503FF91EF91BF91AF919F918F91BA
:100C40007F916F915F914F913F912F910F900FBEC8
:100C50000F901F9018951092C4021092C302109228
:100C6000C6021092C5028091C802887F8860809376
:100C7000C8021092D8021092D90208958091F3020E
:100C800080FD24C090E08091FB0280FF08C080912D
:100C9000FA02982B8091FB028E7F8093FB02809159
:100CA000030380FF08C080910203982B8091030307
:100CB0008E7F809303038091C802982B9770887F62
:100CC000892B8093C80283FF09C008959091F20296
:100CD0008091F3028E7F8093F302D5CFE091C3021F
:100CE000F091C40283EC92E009950895EF92FF928F
:100CF0000F931F93CF93DF93CDB7DEB724970FB633
:100D0000F894DEBF0FBECDBF8C017E010894E11CBC
:100D1000F11CF80182819381AC014F5F5F4F5383D7
:100D20004283FC018491F8018483282F2F7029834A
:100D30009A012F5F3F4F33832283FA0194919A8364
:100D4000A9014F5F5F4FF80153834283F9019491EA
:100D50009B834F5F5F4FF801538342834150504064
:100D6000FA0194919C8382958F70E82FFF27EE0FF4
:100D7000FF1FEF5EFE4F0190F081E02DB801C7012B
:100D80000995823021F0813009F0C3CF04C0F80109
:100D900085818860858324960FB6F894DEBF0FBEE8
:100DA000CDBFDF91CF911F910F91FF90EF900895EC
:100DB000DC01FC0182819381019793838283892BDB
:100DC000C1F485898150858B9927FC01EE0FFF1FA7
:100DD000EE0FFF1FE80FF91FEA0FFB1F86819781B7
:100DE00011969C938E9380859185FD0193838283D8
:100DF00014820895DC01FC01428153812581322F48
:100E00003770832F992784239523892BF1F0842F22
:100E100080958323287F282B258385898150858B86
:100E20009927FC01EE0FFF1FEE0FFF1FE80FF91FC0
:100E3000EA0FFB1F8681978111969C938E93808584
:100E40009185FD01938382831482089581E090E06F
:100E50000895CF93DF93EC01DB018B819927382F25
:100E600022278A81280F311D8881682F7727422FFA
:100E7000FB01E451FD4F238FFD01868987FD0DC0E5
:100E80008823F1F002C0220F331F8A95E2F7C901CF
:100E9000232B89F44FEF9FEF19C0992787FD909579
:100EA000909581959F4F02C0369527958A95E2F7D8
:100EB000C901232B49F0482F892F9927982F06C065
:100EC000832F9927982F02C041E090E08981FB0190
:100ED000EE0FFF1FEE0FFF1FEE0FFF1FE451FD4F40
:100EE00083834483958380E090E0DF91CF910895E0
:100EF000CF93DF93FC018481807F803509F447C064
:100F0000668940E050E0A62FBB27A7FDB095CC270F
:100F1000DD27CA1BDB0BFA01E451FD4F838D282F1F
:100F2000332767FD26C0662349F00A2E02C0220F30
:100F3000331F0A94E2F721153105B1F0722F832F88
:100F40009927FA01EE0FFF1FEE0FFF1FEE0FFF1F95
:100F5000E451FD4F74838583358324834F5F5F4F56
:100F600043305105C1F638C02FEF3FEF7FEF8FEFD1
:100F7000E8CF0C2E02C0369527950A94E2F721158A
:100F80003105E1F621E030E071E080E0DACF278939
:100F9000308D868987FD0FC0882351F002C03695B9
:100FA00027958A95E2F72115310511F421E030E00B
:100FB0003383228311C0992787FD90959095819561
:100FC0009F4F02C0220F331F8A95E2F7211531058A
:100FD00079F72FEF3FEFECCFDF91CF910895FC0130
:100FE00081818093EF0282818093F70283818093D5
:100FF000FF0280E090E00895CF93DF93FB01EC01C6
:101000008981282F332727FD309537FF02C02150D3
:101010003040220F331F220F331F82819381820FB2
:10102000931F9383828380E090E0DF91CF910895B6
:10103000FC01A181BB278281AA0FBB1FAA0FBB1F86
:10104000AA0FBB1FA451BD4FFD018183838380E0A4
:1010500090E00895CF93DF93FC01DB018281992713
:10106000382F22278181280F311DED01388F2F8BDA
:101070008E8987FD0DC08823D9F002C0369527954B
:101080008A95E2F72115310599F421E030E010C08E
:10109000992787FD9095909581959F4F02C0220FCB
:1010A000331F8A95E2F72115310511F42FEF3FEF39
:1010B000FD0185899927FC01EE0FFF1FEE0FFF1F31
:1010C000E80FF91FEA0FFB1F8D919C9111979783F1
:1010D0008683ED018D899927FC01EE0FFF1FEE0F2E
:1010E000FF1FE80FF91FEA0FFB1F8A819B81918781
:1010F000808788ED96E08D939C933B832A838D892E
:101100008F5F8D8B81E090E0DF91CF910895CF9339
:10111000DF93DB01EB012D893327F901EE0FFF1F70
:10112000EE0FFF1FE20FF31FE60FF71F2D913C910B
:101130001197378326832D893327F901EE0FFF1F7F
:10114000EE0FFF1FE20FF31FEA0FFB1F2A813B8107
:10115000318720872AEF36E02D933C93FC01818173
:1011600099279B838A838D898F5F8D8B81E090E0A7
:10117000DF91CF910895FB018581887F858380E091
:1011800090E0089582E090E008950F931F93CF932D
:10119000DF93EC0119810E94BA1F2A81260F09F4FE
:1011A00021E0012F1127000F111F000F111F000F49
:1011B000111FF801E451FD4F24830E94BA1F8B8157
:1011C000861718F466958617E8F3E801C451DD4FD9
:1011D0006D830E94BA1F8B81681729F40E94BA1F81
:1011E0008B818617D9F304511D4FF801638380E08A
:1011F00090E0DF91CF911F910F910895AF92BF9230
:10120000CF92DF92EF92FF920F931F93CF93DF93D2
:10121000CDB7DEB724970FB6F894DEBF0FBECDBFB3
:101220008C01E2E0AE2EB12CAC0EBD1E6E01089416
:10123000C11CD11C75E0E72EF12CEC0EFD1EF8014F
:10124000828193810196938382830197F999FECFDE
:1012500092BD81BDF89A20B5F8012483822F8F704A
:101260008983D501F80182819381019693838283DA
:101270000197F999FECF92BD81BDF89A80B58D9303
:10128000AE15BF0579F722952F70E22FFF27EE0FDD
:10129000FF1FEF5EFE4F0190F081E02DB801C60107
:1012A0000995823021F0813009F0C9CF04C0F801DE
:1012B00085818860858324960FB6F894DEBF0FBEC3
:1012C000CDBFDF91CF911F910F91FF90EF90DF90F5
:1012D000CF90BF90AF90089578941F920F920FB661
:1012E0000F9211242F933F934F935F936F937F93AC
:1012F0008F939F9320910D0330910E0380911102E3
:10130000853109F448C0809111028E3109F447C03B
:1013100090E060E070E08EEF86BD40910C034F5F7F
:1013200040930C034E3450F036FD32C035FF30C0D0
:1013300030930B0320930A0320E030E050910F0319
:101340009527892F9927062E02C0959587950A948F
:10135000E2F780FF28C0852F809580930F034A31E4
:1013600068F420E030E0992702C0959587956A954A
:10137000E2F780FF216010920C0315C021153105A2
:1013800091F3443380F036FDEECF220F331FEBCFC5
:1013900020E030E0D3CF99B166E070E0BCCF93B1EC
:1013A00061E070E0B8CF30930E0320930D0380917D
:1013B00014028F5F809314029F918F917F916F91A0
:1013C0005F914F913F912F910F900FBE0F901F9003
:1013D00018950097B9F0892F992786958695869557
:1013E000982F9170209115022F5F20931502809104
:1013F0002301981751F0109215029093230181E078
:1014000090E0089580E090E008952A3029F02B3094
:10141000C9F78AE08093150281E090E0089584E0A6
:1014200085BD80916E00816080936E008091110275
:10143000853139F0809111028E3109F00895299A91
:1014400008955E9A0895EF92FF920F931F93CF93A2
:10145000DF93CDB7DEB721970FB6F894DEBF0FBE8E
:10146000CDBFF894E0900A03F0900B0310920B03A9
:1014700010920A037894C7010E94E909882319F49D
:1014800081E090E028C18701002E012F000C001F91
:10149000110B000C001F111F0F71C7018095909553
:1014A000880F892F881F990B80742E2D2F73822B04
:1014B000898384E291E00E94B016802F0E949A16E0
:1014C00089810E949A168AE291E00E94B016053046
:1014D000B9F680910F02813009F443C099819331AC
:1014E00009F466C0923109F459C0903209F46AC017
:1014F000913209F471C09C3009F478C0892F815071
:10150000893008F43FC0903109F484C0913181F1F1
:10151000903309F489C0973309F49AC09F3009F4D5
:10152000A1C09E3009F46CC09C3209F469C0892FB7
:101530008E52823008F4A0C09C3309F47FC09532EB
:1015400009F47CC0943109F4A9C0953109F4B0C004
:101550009F3309F4B7C09B3209F498C080E090E053
:10156000BAC099819C3009F2973309F089CFC6CF70
:1015700040E050E060E070E084E10E949E1180E075
:1015800090E0A9C0898340E050E0BE016F5F7F4FCB
:1015900081E20E949E1180E090E09DC040E050E01A
:1015A00060E070E081E10E949E1180E090E093C0D5
:1015B00040E050E060E070E082E10E949E1180E037
:1015C00090E089C040E050E060E070E085E10E947A
:1015D0009E1180E090E07FC040E050E060E070E06D
:1015E00086E10E949E1180E090E075C040E050E0EE
:1015F00060E070E080E10E949E1180E090E06BC0AE
:1016000040E050E060E070E08CE10E949E1180E0DC
:1016100090E061C040E050E060E070E083E10E9453
:101620009E1180E090E057C040E050E060E070E044
:1016300087E10E949E1180E090E04DC040E050E0C4
:1016400060E070E08EE10E949E1180E090E043C077
:1016500040E050E060E070E088E10E949E1180E090
:1016600090E039C040E050E060E070E089E10E9425
:101670009E1180E090E02FC040E050E060E070E01C
:101680008DE10E949E1180E090E025C040E050E096
:1016900060E070E080E20E949E1160CF40E050E088
:1016A00060E070E08AE10E949E1180E090E013C04B
:1016B00040E050E060E070E08BE10E949E1180E02D
:1016C00090E009C040E050E060E070E08FE10E94EF
:1016D0009E1180E090E021960FB6F894DEBF0FBE19
:1016E000CDBFDF91CF911F910F91FF90EF900895A3
:1016F000F999FECF92BD81BDF89A80B599270895DA
:10170000F999FECF1FBA92BD81BD60BD0FB6F894A6
:10171000FA9AF99A0FBE0895609181017091820141
:1017200028E73BE042E350E00E94DA1F0895CF93A0
:10173000DF93C0E0D0E0BC0180E193E00E94D11FC4
:10174000892B11F4C1E0D0E0CE01DF91CF91089553
:10175000DC01FC0101900020E9F731974E2F481B76
:10176000433328F0FC0111AA42E350E003C055279F
:101770004F5F5F4F20E83BE0BD0180918101909178
:1017800082010E94F71F089528E73BE042E050E005
:1017900060E070E08CE493E00E94DA1F80914D03DA
:1017A000882309F44EC08FEF809304031092D9026E
:1017B00086E796E09093C4028093C30288E792E0A4
:1017C0009093C6028093C5028091C802877F809360
:1017D000C8028AEF8093ED028093EF0280910E029F
:1017E000886080930E0210920F0280910E028F7D0E
:1017F00080930E02609181017091820128E73BE0A5
:1018000042E350E080E193E00E94DA1F80911003F0
:101810008F3F09F00895A0E1B3E0E3E7F1E08EE047
:1018200001900D928150E1F720E83BE042E350E067
:1018300060E173E080918101909182010E94F71F25
:10184000089528E73BE04EE150E062E070E08CEE66
:1018500092E00E94DA1F28E73BE049E150E060E2B5
:1018600070E083EC92E00E94DA1F28E73BE040E161
:1018700050E069E370E08CED92E00E94DA1F28E707
:101880003BE044E050E069E470E08EE092E00E94CA
:10189000DA1FB0CF0F931F9310924D0300E81BE0A7
:1018A000980142E050E06CE473E080E090E00E9438
:1018B000F71F98014EE150E06CEE72E082E090E09C
:1018C0000E94F71F980149E150E063EC72E080E26A
:1018D00090E00E94F71F980140E150E06CED72E04B
:1018E00089E390E00E94F71F980144E050E06EE029
:1018F00072E089E490E00E94F71F1F910F91089514
:101900009C017727762F662740E007C0220F331F00
:101910004F5F483081F0660F771FCB0182279327F6
:1019200097FFF4CF220F331F81E290E12827392758
:101930004F5F483081F7C901089582E58CBD089555
:101940009C01EA982C98892F99278EBD0DB407FE2B
:10195000FDCF8EB52EBD0DB407FEFDCF2EB5992758
:10196000982F88272C9AEA9A3327822B932B089555
:10197000CF93DF93CDB7DEB724970FB6F894DEBFD1
:101980000FBECDBF84B1806B84B926982C9A2E9A55
:101990000E949D0C2B9A2B9819821A821B821C8202
:1019A00089819A81AB81BC81805A9B4BAD40B0400C
:1019B000A0F489819A81AB81BC810196A11DB11DE2
:1019C00089839A83AB83BC8389819A81AB81BC81F3
:1019D000805A9B4BAD40B04060F32B9A20E080E0F2
:1019E00094EB0197F1F72F5F2436C9F780EE90EC66
:1019F0000E94A00C87ED90E80E94A00C8BEA92EC6C
:101A00000E94A00C81E89AEC0E94A00C80E090EE6D
:101A10000E94A00C80E098EC0E94A00C87EF94EC50
:101A20000E94A00C80E090E00E94A00C80914E03E8
:101A3000887F80934E0322982A9A80916900806261
:101A400080936900EA9A24960FB6F894DEBF0FBE21
:101A5000CDBFDF91CF910895992787709070880F3F
:101A6000991F82959295907F9827807F9827552778
:101A700047705070842B952B946977276370707032
:101A8000660F771F660F771F660F771F862B972BC2
:101A90000E94A00C08958036910548F02FE0803414
:101AA000920710F4906A05C08FE39FE0FBCF80E6B9
:101AB00090EA0E94A00C089522E08739920720F155
:101AC00025E18831920788F49C014427552760E678
:101AD00078EA80E090E00E940F23DA01C9010197C3
:101AE0008068966C0E94A00C08959C01442755279D
:101AF0006CEF72E485E090E00E94ED22DA01C9010A
:101B00000197966C0E94A00C089599278770907099
:101B1000986977276F70707062957295707F7627DD
:101B2000607F7627862B972B0E94A00C08958091CA
:101B30004E0382FD1DC081FD1EC080FF03C083E0F7
:101B400090E0089588EC92E80E94A00C81E89AEC5D
:101B50000E94A00C83E89AEC0E94A00C109216023E
:101B600080914E03816080934E0380E090E0089561
:101B700081E090E0089582E090E008951F93CF9374
:101B8000DF93EC0180914E0380FD50C082FF49C07D
:101B90008B7F80934E03809183018823B1F4409121
:101BA0004F03442309F440C020E0E22FFF27DF0168
:101BB000AC0FBD1FE15BFC4F81818C932F5F809147
:101BC0004F03281790F3992733C0A0E0B0E010E04E
:101BD000E0E0F0E0E15BFC4F6081CD010E94800C11
:101BE000DC011F5FE12FFF2740914F03842F9927CE
:101BF0000196E817F90774F3E15BFC4F2081332766
:101C00001F5FE12FFF27E15BFC4F80819927982F11
:101C10008827822B932BA817B90719F280E090E050
:101C200007C08EEF90E004C080E0CDCF8FEF90E052
:101C3000DF91CF911F91089580914E0381FF03C0E2
:101C40008FEF90E0089580E090E0089588E092E8BA
:101C50000E94A00C80914E03887F80934E0380E009
:101C600090E00E94A00C0895EF92FF920F931F93B3
:101C7000CF93DF93EC01F62E0E944A1F80914E0312
:101C800081FD74C094E69F1518F484E090E070C064
:101C9000826080934E0389E0F80EF092160297EF6F
:101CA000F90E80911602E82FFF27E15BFC4F9AEABC
:101CB00090838150E82FFF27E15BFC4F9083815098
:101CC000E82FFF27E15BFC4F90838150E82FFF272F
:101CD000E15BFC4F9DE290838150E82FFF27E15BA1
:101CE000FC4F94ED90838150E82FFF27E15BFC4F80
:101CF000F082E82EEA946F2D80E090E00E94800C44
:101D00009C01FF2091F01E2D00E0E12FFF27E15BF9
:101D1000FC4F8881808311506991C9010E94800C19
:101D20009C010F5F0F1589F7EF18EE2DFF27E15B80
:101D3000FC4F2083EE2DE150AE2FBB27A15BBC4FA3
:101D4000832F99278C93E150AE2FBB27A15BBC4F0B
:101D50008AEA8C93E150FF27E15BFC4F808388E3A4
:101D600092E80E94A00C80E090E002C082E090E047
:101D7000DF91CF911F910F91FF90EF90089578948C
:101D80001F920F920FB60F9211242F933F934F93F0
:101D90005F936F937F938F939F93AF93BF93EF93D3
:101DA000FF9380914E0380FF27C0809116028436F6
:101DB000C8F188E092E80E94A00C0E94431F809125
:101DC0004E038E7F80934E0320911602332780911D
:101DD0004F0399270396281739070CF447C088E06A
:101DE00092E80E94A00C0E94431F80914E038E7FB8
:101DF000846080934E033AC081FF38C0E0911602A0
:101E0000FF27E15BFC4F80819927986B0E94A00C13
:101E1000809116028823F9F08091160281508093F8
:101E2000160224C00E943E1F80E090EB0E94A00C8E
:101E3000282F80911602882319F4253608F024E60D
:101E400080911602E82FFF27E15BFC4F20838F5F14
:101E500080931602B9CF80914E038D7F80934E03FD
:101E600088E092E80E94A00C0E944F1FFF91EF9122
:101E7000BF91AF919F918F917F916F915F914F91A2
:101E80003F912F910F900FBE0F901F9018950895BE
:101E9000982FE1E2F2E020E030E080818917E9F05C
:101EA0002F5F3F4F32962A303105B9F780912002DB
:101EB000E82FFF27EE0FFF1FEF5DFD4F908361833B
:101EC0008F5F809320028A3019F081E090E00895BE
:101ED0001092200281E090E0089590E0F901EE0F69
:101EE000FF1FEF5DFD4F8181861391E06183892F94
:101EF0009927089580911C028F5F80931C02992777
:101F0000089520E030E080918401853011F421E0D3
:101F100030E0C9010895CF93DF93EC0180918401F3
:101F2000853019F081E090E03EC0109284018C81F0
:101F300080FF2AC082E48093600481E080931D02C8
:101F4000809319029C8191FF06C081E080931F025B
:101F500082E098279C8380911C02809361044E81CB
:101F60005527495F5F4FBE0182E694E00E94C81F7B
:101F70008E81875F80931A02809117028B7F8093F6
:101F8000170280E090E00FC080E58093600410921B
:101F90001D028AE0809319028B818093BF038A819E
:101FA0008093C003CFCFDF91CF910895CF93DF937C
:101FB000EC0180911F02882301F120911702822FEA
:101FC000992782FD02C081FF1AC01E82809162049F
:101FD00089830E94611B88830E94611B8A830E94FF
:101FE000611B8B838EEF8D838091170281FF17C059
:101FF00088E08C8381E090E016C02091170220FDDC
:1020000003C080E090E00FC0FE01AFEFB4E087E0D6
:102010000D9001928150E1F781E090E004C084E0EE
:102020008C8381E090E0DF91CF910895FC01809155
:102030001F028823A9F080911702282F332722FD41
:1020400002C021FF0FC0CF010E94D60F809117025E
:10205000897F8093170210921F0280E090E008951C
:102060008091170280FD03C081E090E008954091C7
:1020700005055527495F5F4F6FEF74E0CF010E9460
:10208000C81F8091170291E089278093170280E092
:1020900090E00895EF92FF920F931F93CF93DF93F9
:1020A000CDB7DEB724970FB6F894DEBF0FBECDBF15
:1020B0008C01FC018081813461F042E0E42EF12C3E
:1020C000E00EF11E823409F452C0803509F06AC076
:1020D00019C0218180911C028F5F281709F062C00E
:1020E0009091BF038281981709F05CC09091C00362
:1020F0008381981709F056C081E080931B022093DA
:102100001C0250C0C7010E94691B882321F48091E2
:102110001E02882389F081E48983F80181818F5F21
:102120008A8384818C8385818B830E94260E64E060
:10213000CE0101960E94340EF801618184810E94D3
:10214000480F882321F480911E02882359F1F80159
:1021500040855527495F5F4FB7018FEF94E00E949C
:10216000C81F809117028160809317021BC0C701AE
:102170000E94751B882321F480911E02882379F028
:10218000F80140855527495F5F4FB7018FEF94E015
:102190000E94C81F80911702816080931702F80186
:1021A000808193CF24960FB6F894DEBF0FBECDBFCB
:1021B000DF91CF911F910F91FF90EF9008950E94B2
:1021C000260E60911A0280E694E00E94340E089573
:1021D00081EC93E00E94BE0D682F81508D3F58F135
:1021E0000E941C0E882331F580918401823041F1D8
:1021F000833070F48823F1F5809119028150809327
:1022000019028F3F09F468C081E08093840108952A
:10221000843049F50E94970D80911B02882309F0B4
:1022200050C080911802815080931802882311F4C5
:1022300010928401089581EC93E00E944A10D0CF5F
:1022400080911802815080931802882399F780E0CA
:1022500090E00E94A00C90FDD7CF0E94DF1083E099
:102260008093840108958430A0F0853019F70E948E
:10227000970D08958130F1F680E090E00E94A00C67
:1022800090FDD8CF83E08093180282E08093840190
:1022900008950E941C0E882369F60E94970D84E120
:1022A0008093180210921B0280911D028823E9F08E
:1022B0008091170284608093170285E080938401E7
:1022C0000895809117028460809317020E94970DF1
:1022D00085E0809384010895809117028260809345
:1022E000170285E080938401089584E0809384013F
:1022F00008951092EF028091EF028093ED02109208
:10230000F7028091F7028093F5021092FF0280910C
:10231000FF028093FD0208959093C4028093C3024C
:102320007093C6026093C5028091C802877F809334
:10233000C8021092D8020E94791108950F931F933A
:10234000CF93DF93EB018A01823109F446C08131DA
:1023500009F44FC0853109F458C0863109F475C0BD
:10236000803109F45EC0813209F455C0833109F42B
:1023700090C0843109F49BC0873109F47CC0883156
:1023800009F4B5C0893109F4A7C08C3109F4AAC099
:102390008D3109F4B1C08E3109F4B9C08A3109F424
:1023A000BCC08B3109F4CAC08F3109F4D8C0803267
:1023B00009F4E5C0863509F4F1C0873409F00DC190
:1023C00080910F02FA0180838091D90281838091EC
:1023D0000403828383E090E0ACC1809104038823EE
:1023E000E9F08091040381508093040380E090E041
:1023F000A0C1809104038F3F89F0809104038F5F17
:102400008093040380E090E094C18FEF80930403F5
:1024100080E090E08EC168816930E0F080E090E07B
:1024200088C180910F02813009F450C080910F0261
:10243000863061F180910F028093100280E090E07D
:102440000E945B1480E090E074C11092040380E06D
:1024500090E06FC1E62FFF27EE0FFF1FEE0FFF1F6B
:10246000E356FE4F62817381808191810E948C11BD
:1024700080E090E05EC180910F02823009F442C09A
:1024800082E080930F0280E090E053C1109210022E
:10249000D5CF8091D90288300CF68F5F8093D90216
:1024A00083EC92E00E94780780E090E042C1809146
:1024B000D902893F0CF4B2CF81508093D90283ECCA
:1024C00092E00E94780780E090E033C184E080933E
:1024D0000F0280E090E02DC185E080930F0280E044
:1024E00090E027C11092060380E090E022C10E9494
:1024F0004A0C80E090E01DC181E08093060380E0FB
:1025000090E017C110920F0280E090E012C182E0CB
:102510008093060380E090E00CC1E0910603FF2762
:10252000EE0FFF1FEE0FFF1FEE0FFF1FE451FD4FD9
:1025300081818F5F818380E090E0FBC0E0910603A2
:10254000FF27EE0FFF1FEE0FFF1FEE0FFF1FE451DF
:10255000FD4F81818150818380E090E0EAC0E0916D
:102560000603FF27EE0FFF1FEE0FFF1FEE0FFF1FEB
:10257000E451FD4F8FEF818380E090E0DAC0E0917D
:102580000603FF27EE0FFF1FEE0FFF1FEE0FFF1FCB
:10259000E451FD4F118280E090E0CBC080911102A8
:1025A00099279F938F9385E891E09F938F931F9333
:1025B0000F930E941420F80101900020E9F7319751
:1025C000E01B8E2F99272DB73EB72A5F3F4F0FB6DE
:1025D000F8943EBF0FBE2DBFACC0833751F1833599
:1025E00009F4A2C0843409F499C0833409F48EC07C
:1025F000823709F486C0883709F468C08F3409F43B
:1026000060C08E3409F445C08735C1F1813579F158
:10261000813441F1883511F1863489F08B3409F029
:10262000FDCE86E00E940A1F9F938F9388E991E078
:10263000BCCF88818093D90280E090E07AC02B8162
:102640003327322F22278C81280F311D4A8169813F
:1026500088810E94291480E090E06BC01092C9012B
:102660001092C8010E94631480E090E062C0109252
:10267000C9011092C80180E090E05BC08881882386
:10268000C1F080910E02806280930E0280E090E0A3
:1026900050C0CB010E94A80BC80101960E948C0B70
:1026A000F80101900020E9F73197E01B8E2F992760
:1026B00040C080910E028F7D80930E0280E090E0FA
:1026C00038C00E94571480E090E033C0CB010E94D4
:1026D000970B882309F4A2CEFE0101900020E9F7B0
:1026E0003197EC1B8E010E0F111DF8016281818163
:1026F0000E94A31CF80183810E94511480E090E0A5
:1027000018C00E94550280E090E013C04A816981A0
:1027100088810E94401480E090E00BC08881809303
:10272000040380E090E005C0888180930F0280E080
:1027300090E0DF91CF911F910F910895FC01AB01C3
:10274000BC016F5F7F4F80810E949E119927089581
:10275000CF93DF93CDB7DEB724970FB6F894DEBFE3
:102760000FBECDBF19821A821B821C8289819A8179
:10277000AB81BC8180519742A040B040A0F48981D8
:102780009A81AB81BC810196A11DB11D89839A8379
:10279000AB83BC8389819A81AB81BC818051974294
:1027A000A040B04060F383E00E943E198823B1F05E
:1027B0000E94B80C80EC96E00E944B0D44E061E072
:1027C00084E00E942C0D80E09BE40E945C0D66E09A
:1027D00080E00E94850D80E00E94470F24960FB68E
:1027E000F894DEBF0FBECDBFDF91CF91089581E099
:1027F0008093CA0180910E02869586958695817098
:1028000080934002089580913D0290913E02892B71
:1028100041F08091C6019091C70190933E02809350
:102820003D0280910F02823099F080910F02873033
:1028300079F080910F028093100282E080930F0262
:102840008091C6019091C70190933E0280933D0212
:1028500008958093EF026093F7024093FF02832F65
:1028600099278093F1022093F0028093F90220933C
:10287000F80280930103209300030E94031408953B
:10288000F8948093ED028093EF026093F5026093D9
:10289000F7024093FD024093FF0278940E940314D4
:1028A000089580933F0282E08093CA01089583E0F7
:1028B0008093CA010895909342028093410283E07D
:1028C00080930F02089590911003A895109213021F
:1028D000109212028091CA01833049F0692F892F2A
:1028E0000E94A31C81E00E9451140E945714089575
:1028F0000F931F93CF93DF9380910F02853009F4DC
:10290000B8C08630A0F1873009F4E0C0873008F401
:1029100052C0883009F4D0C0893009F488C02091B1
:10292000C8013091C9012115310569F08091CB01B1
:102930009091CC0101979093CC018093CB018F5F54
:102940009F4F09F4E8C080913D0290913E020097AC
:1029500009F44CC1019790933E0280933D02892B6C
:1029600009F044C18091100280930F023FC1823070
:1029700009F477C0833098F0833009F4B0C0843014
:1029800071F6809105038093040380910E028860A4
:1029900080930E028091100280930F02C0CF882393
:1029A00009F0BDCF81E08093400280910E028860E3
:1029B00080930E02B4CF8091350290913602A0919F
:1029C0003702B09138020196A11DB11D80933502E6
:1029D00090933602A0933702B093380220913902C7
:1029E00030913A0240913B0250913C02821793078A
:1029F000A407B50709F093CF109235021092360262
:102A00001092370210923802809104038150809313
:102A1000040380910403882309F081CF81E080932F
:102A20000F0280910E02877F80930E0278CF8091F3
:102A30004102909142020197909342028093410299
:102A40008F5F9F4F09F06BCF12B883B7817F84608F
:102A500083BF83B7816083BF889583B78E7F83BF31
:102A6000F8CF1092400280910E02877F80930E0271
:102A700056CF109235021092360210923702109201
:102A8000380260910403772784EE97E50E94DA22EA
:102A9000882777FD8095982F6093390270933A02CA
:102AA00080933B0290933C02809104038093050342
:102AB00086E080930F0233CF88EB9BE09093420235
:102AC0008093410289E080930F0229CF81E08093B7
:102AD000400280910E02877F80930E0220CF80916A
:102AE00041029091420201979093420280934102E9
:102AF0008F5F9F4F09F013CF8091040380930503EC
:102B00001092040380910E02877F80930E0281E071
:102B100080930F0204CF3093CC012093CB0186E049
:102B20000E940A1FEC018091CA01813039F1109294
:102B3000AE0680913F028093AB060E94611B80939A
:102B4000AA060E94611B8093AC068FEF8093AF06AC
:102B50008091CA01813099F1823009F443C080919B
:102B600011028E3170F481E08093B00682E480938C
:102B7000B1068AEA96E00E94F31BE5CE8093AE068A
:102B8000D8CF01EB16E0DF93CF9381EC91E09F93D8
:102B90008F931F930F930E941420F801019000203F
:102BA000E9F78F01025B16400093B0068DB79EB720
:102BB00006960FB6F8949EBF0FBE8DBFDACF01EB1D
:102BC00016E082E58093B106C80101960E948C0B45
:102BD000F80101900020E9F78F01025B1640009395
:102BE000B006C7CF01EB16E089E4ECCFDF91CF91BF
:102BF0001F910F91089580910F02893069F08091A3
:102C00000F02883049F060E574E086E796E00E94A4
:102C10008C1188E080930F0208951F920F920FB6D7
:102C20000F9211242F938F939F93EF93FF93909183
:102C3000C8002091CE00E091A502EF5FEF71809176
:102C4000A602E81749F0892F8871E093A502FF27B3
:102C5000ED57FD4F208301C082E08093A702FF91D2
:102C6000EF919F918F912F910F900FBE0F901F901A
:102C700018951F920F920FB60F9211248F939F9366
:102C8000EF93FF939091A3028091A402981769F0AB
:102C9000E091A402EF5FEF73E093A402FF27ED5BE6
:102CA000FD4F80818093CE0005C08091C9008F7D4B
:102CB0008093C900FF91EF919F918F910F900FBE6C
:102CC0000F901F9018959C011092A3021092A402DD
:102CD0001092A5021092A60297FF04C082E0809392
:102CE000C8003F77832F99278093CD002093CC0095
:102CF00088E98093C90086E08093CA000895909186
:102D0000A5028091A602981791F0E091A602EF5FCC
:102D1000EF71E093A602FF27ED57FD4F20818091D0
:102D2000A7029927982F8827820F911D089580E088
:102D300091E00895282F9091A3029F5F9F73809147
:102D4000A4029817E1F3E92FFF27ED5BFD4F2083E5
:102D50009093A3028091C90080628093C900089576
:102D6000CF93DF93EC018881882331F021960E9474
:102D70009A1688818823D1F7DF91CF910895CF9358
:102D8000DF93FC018491882349F0EF0121960E9492
:102D90009A16FE01219684918823C9F7DF91CF917D
:102DA000089581E090E0089508958091A80290919F
:102DB000A90208958DE995E008951092A902109254
:102DC000A8020895CF93DF930E947F16EC0190FF35
:102DD00003C080E090E042C00E943E1F2C2FC1360D
:102DE00019F18091AB02882331F01092AB02C33607
:102DF00079F1C23631F18091AC029091AD02FC01C3
:102E0000E456FA4F208301969093AD028093AC0272
:102E10008E509140F4F28DE091E09093AD0280935A
:102E2000AC0280E090E01AC08091AB02882331F4BC
:102E300081E08093AB0280E090E010C01092AB0282
:102E4000DACF0E94431F8091AC029091AD0206C080
:102E50001092AD021092AC0280E090E0DF91CF9131
:102E60000895FF920F931F93F82E062F142F0E94A0
:102E7000F713612F802F0E94AB1CF092AA021F91C2
:102E80000F91FF9008958091A8029091A902892B3B
:102E900009F008950E94E2160097D9F320919C054D
:102EA000293479F02735B1F0223729F09093A9021F
:102EB0008093A802089501979093A9028093A80295
:102EC000089540919F0560919E0580919D050E9407
:102ED0003117089540E050E06DE975E087E50E9404
:102EE0009E110895CF93DF93EC018091A8029091F9
:102EF000A902892B51F080919C05803549F08234DC
:102F000039F01092A9021092A80280E090E01AC055
:102F10009091AA02988380919D0589839A830E944B
:102F2000611B8B8382E08C8380919C05823439F015
:102F30008091A80282508E8381E090E003C083E0FC
:102F40008C83F6CFDF91CF910895CF93DF93EC017F
:102F50008091A8029091A902892B19F481E090E058
:102F600011C0CE010E9472174E8155276EE975E09F
:102F7000CE0107960E94C81F1092A9021092A802C3
:102F800080E090E0DF91CF91089581E60E949A164B
:102F900082E60E949A16089581E60E949A1683E6B8
:102FA0000E949A160895EF92FF920F931F93CF936A
:102FB000DF93EC017B01672BC1F000E010E008C05B
:102FC0000E949A160F5F1F4F0E151F0571F0219674
:102FD00088818136A9F70E949A1688810E949A16E4
:102FE0000F5F1F4F0E151F0591F7DF91CF911F91B6
:102FF0000F91FF90EF900895CF93DF93EC018881BC
:10300000882339F411C021960E949A16888188235A
:1030100059F08136C1F70E949A16888121960E9444
:103020009A1688818823A9F7DF91CF9108951F937D
:10303000182F813619F481E60E949A16812F0E947A
:103040009A161F9108950F931F938C0181E60E9499
:103050009A1683E60E949A16C8010E94FC1781E620
:103060000E949A1682E60E949A161F910F91089567
:10307000CF93DF93EC010E944A1F8C81992782FD38
:103080002EC083FD27C08E818823A1F181E60E9496
:103090009A1683E60E949A168C8180FF27C082E4EC
:1030A0000E94171880E00E94171889810E94171843
:1030B00088810E9417186E817727CE0107960E949B
:1030C000D31781E60E949A1682E60E949A160E9401
:1030D0004F1F10C080ED91E00E942318D4CF8DECDB
:1030E00091E00E9423188C819927CBCF80E50E9424
:1030F0001718D8CF80E090E0DF91CF9108951F930B
:10310000182F81E60E949A1683E60E949A16812F54
:103110000E94171881E60E949A1682E60E949A166B
:103120001F9108958091AE028111089589E40E9453
:103130007F1881E08093AE02089508950E94C81D13
:1031400008950E94651D99270895CF93DF93EC01A0
:103150008091B302882321F08091B002882391F4FA
:103160000E94901D079718F480E090E01CC0FE01BB
:10317000A7E4BBE087E00D9001928150E1F781E088
:1031800090E011C01E828091AF0289830E94611B72
:1031900088830E94611B8A830E94611B8B8384E069
:1031A0008C8381E090E0DF91CF910895CF93DF93FE
:1031B000EC018091B302882321F08091B002882332
:1031C000B1F40E94901D892B19F481E090E018C0A1
:1031D0000E94901DAC0167E47BE0CE010E94C81FF5
:1031E0000E94701D0E94731D80E090E009C0CE0116
:1031F0000E94A5181092B0021092B30280E090E0F5
:10320000DF91CF910895CF93DF93EC019C8191FFE3
:1032100009C082E098279C8381E08093B002888176
:103220008093AF024E815527495F5F4FBE0185E510
:103230009CE00E94C81F8E81992707960E946F1DEF
:1032400080E090E0DF91CF9108950E94A21D089543
:10325000382F20910002222381F0E3EDF1E090E08D
:1032600004C09F5F3F96921741F080818317C9F792
:1032700066879F5F3F969217C1F70895A82F7091B8
:1032800000027723E9F08091D3018A17E1F060E032
:1032900014C0262F3327A901440F551FFA01E20F4E
:1032A000F31FCF01880F991F880F991FE80FF91F8F
:1032B000ED52FE4F80818A1751F06F5F671749F713
:1032C00080E090E0089520E030E040E050E0FA0136
:1032D000E20FF31FCF01880F991F880F991FE80F86
:1032E000F91FED52FE4F868599270895A82F7091FA
:1032F00000027723E9F08091D3018A17E1F060E0C2
:1033000014C0262F3327A901440F551FFA01E20FDD
:10331000F31FCF01880F991F880F991FE80FF91F1E
:10332000ED52FE4F80818A1751F06F5F671749F7A2
:103330008FEF90E0089520E030E040E050E0FA01A7
:10334000E20FF31FCF01880F991F880F991FE80F15
:10335000F91FED52FE4F8585992708951F934091DF
:103360000002442309F110E003C01F5F1417E0F4CA
:10337000812F99279C01220F331F280F391FF90134
:10338000EE0FFF1FEE0FFF1FE20FF31FED52FE4F78
:103390008685882351F30184F285E02D09954091BB
:1033A00000021F5F141720F31F910895CF93DF933E
:1033B000782F8E5F8230C0F1A0910002AA23E9F03D
:1033C0008091D3018717E1F060E014C0262F3327E6
:1033D000A901440F551FFA01E20FF31FCF01880F17
:1033E000991F880F991FE80FF91FED52FE4F80813A
:1033F000871751F06F5F6A1749F780E090E01BC0B4
:1034000020E030E040E050E0CA01820F931FDC0171
:10341000AA0FBB1FAA0FBB1FA80FB91FAD52BE4FEB
:10342000ED018E85882319F481E090E004C0EF81DE
:10343000F88509959927DF91CF9108951F93CF9330
:10344000DF93182FEB01709100027723E9F0809150
:10345000D3018117E1F060E014C0262F3327A901C2
:10346000440F551FFA01E20FF31FCF01880F991F78
:10347000880F991FE80FF91FED52FE4F80818117C9
:1034800051F06F5F671749F781E090E017C020E0C7
:1034900030E040E050E0FA01E20FF31FCF01880F67
:1034A000991F880F991FE80FF91FED52FE4F0380F7
:1034B000F481E02DCE0109951D839927DF91CF91ED
:1034C0001F910895EF92FF921F93CF93DF937C019A
:1034D00040910002442319F110E003C01F5F14174C
:1034E000F0F4812F99279C01220F331F280F391FD9
:1034F000E901CC0FDD1FCC0FDD1FC20FD31FCD5252
:10350000DE4F8E85882351F3ED81FE81C701099539
:10351000882341F4409100021F5F141710F38EEFCF
:1035200090E005C08881F701858388819927DF9124
:10353000CF911F91FF90EF9008951F93CF93DF934A
:10354000182FB0910002BB23E9F08091D3018117BD
:10355000E1F0A0E014C02A2F3327A901440F551F22
:10356000FA01E20FF31FCF01880F991F880F991FEF
:10357000E80FF91FED52FE4F8081811751F0AF5FC8
:10358000AB1749F781E090E01DC020E030E040E05B
:1035900050E0CA01820F931FDC01AA0FBB1FAA0FC4
:1035A000BB1FA80FB91FAD52BE4FED018E858823FA
:1035B00019F480E090E006C0ED01E981FA81CB01C9
:1035C00009959927DF91CF911F9108950F931F932C
:1035D000CF93DF93082FEB01509100025523E9F1BF
:1035E000E3EDF1E090E020E004C09F5F3F96951787
:1035F00059F080818017C9F783858823B1F321E0D2
:103600009F5F3F969517A9F7222339F110E004C078
:103610001F5F151708F04EC0812F99279C01220FBC
:10362000331F280F391FF901EE0FFF1FEE0FFF1F89
:10363000E20FF31FED52FE4F8081801749F386851C
:10364000882331F30180F281E02DCE01099550915C
:1036500000021F5F151700F32DC0442341F55523C9
:1036600049F110E003C01F5F151720F5812F99273E
:103670009C01220F331F280F391FF901EE0FFF1F86
:10368000EE0FFF1FE20FF31FED52FE4F80818017F8
:1036900051F38485882339F38685882321F30180BB
:1036A000F281E02DCE01099550910002DCCF552327
:1036B00009F0ACCF80E090E0DF91CF911F910F91A6
:1036C00008958091B102992708958091B2029927B7
:1036D000089520E030E0FC0193818091B1029817B9
:1036E00011F421E030E0C901089520E030E0FC0150
:1036F00091818091B202981711F421E030E0C90164
:1037000008958823B9F02091B102821799F0813091
:10371000A1F0823001F18330A9F0843009F448C06F
:103720008530E1F4822F992783FF09C0807F907054
:10373000C09729F481E090E0089523FDFBCF80E05D
:1037400090E00895822F992783FFF9CF807F9070B2
:103750004097A9F7EFCF23FDF2CFECCF863029F4C5
:10376000822F992783FDEBCFF1CF8730B1F08830DE
:1037700049F1893091F18A3041F480E090E0207F76
:103780002032D1F681E090E008958B30C1F680E0E0
:1037900090E0207F2033B1F30895332723FDCFCF6E
:1037A00080E090E0207F30702032310559F3089599
:1037B000822F992783FFC3CF807F9070809709F075
:1037C000BECFB8CF332723FDBACF80E090E0207F73
:1037D000307020333105B1F2089580E090E0207F11
:1037E000203181F20895CF93DF93EC0180910E0296
:1037F00085FD33C08C8180FF11C09D819F3FE1F426
:103800002FEF8091B1028A8389818B839F3F01F1E1
:1038100040E0BE01822F0E94E61A1FC08091B102D3
:103820008A83CE010E94E51C8B83CE010E94D51CA9
:10383000BE010E949D1A11C0CE010E94C51C282FF6
:103840009D818091B1028A8389818B839F3F01F79B
:1038500041E0BE01822F0E94E61ADF91CF910895C8
:10386000CF93DF93EC010E94221D8C8180FD0AC062
:103870009091B1028981891701F18B81981709F024
:103880003FC017C0CE010E94F31B89810E94811B9B
:10389000882359F58C8181FF33C084E08C831E829C
:1038A000888189838091B1028883CE010E94F31BB5
:1038B00027C0CE010E94F31B23C0CE010796BC0196
:1038C0000E949E13982F8823B9F48C8181FF18C021
:1038D00084E08C839E83888189838091B1028A836E
:1038E0008883CE010E94F31B0BC060E070E0CE0124
:1038F00007960E949E13CECF8C8181FFEBCFE8CF3D
:10390000DF91CF9108951F930E94AE190E94001D70
:103910008AEA96E00E94621A182F8E3F91F08AEA96
:1039200096E00E94D51C0E94D619882351F06AEABD
:1039300076E0812F0E941E1A612F8AEA96E00E948B
:10394000301C1F9108958093B1026093B2026FEF13
:103950000E94F51C08958093B1026093B2020E9408
:10396000B71C6FEF8091B1020E94F51C0895E7E447
:10397000F7E08EEF808311828FEF8283138234967B
:103980008BE0E734F807A9F70895CF93DF93EC01B4
:10399000EA81FF27EE0FFF1FEE0FFF1FE95BF84FD5
:1039A00080819927DF91CF910895CF93DF93EC0128
:1039B000EB81FF27EE0FFF1FEE0FFF1FE95BF84FB4
:1039C00080819927DF91CF910895CF93DF93EC0108
:1039D000E981FF27EE0FFF1FEE0FFF1FE95BF84F96
:1039E00081819927DF91CF910895E82FFF27EE0F6E
:1039F000FF1FEE0FFF1FE95BF84F6083818308957F
:103A000080910102909102020197909302028093AB
:103A100001028F5F9F4F09F0089588EE93E0909325
:103A2000020280930102E7E4F7E005C034968BE0E0
:103A3000EF33F80789F38381815083838F3FB1F798
:103A40008283F4CFFF920F931F93CF93DF93EC0108
:103A5000F62E1881862F0E947619082F0E94611B6E
:103A6000811711F01123C9F41A810E94611B1817E4
:103A700031F19A81992319F1E92FFF27EE0FFF1FEA
:103A8000EE0FFF1FE95BF84F82818017C0F0F082D4
:103A9000918302838CE3838312C0E12FFF27EE0F13
:103AA000FF1FEE0FFF1FE95BF84F82818017E0F2E6
:103AB000F0828A81818302838CE38383D5CFDF9177
:103AC000CF911F910F91FF9008958091B70290E0E0
:103AD000811191E081E09827892F99270895089511
:103AE0001092B50208958091B5028823C1F48091A7
:103AF000B4028823A1F48091B702882381F49FB790
:103B0000F89480E98093C100449845981092B402DB
:103B10001092C2021092C1021092B5029FBF089586
:103B20008091C1029091C202892B49F08091B50227
:103B3000882329F08091C1029091C202089580E00B
:103B400090E008959FB7F8941092C50089E08093A3
:103B5000C40086E08093C200E1ECF0E080818869D7
:103B60008083E0ECF0E080818D7F80839FBF3C9A72
:103B70003D9A1092C0021092BF021092C20210929F
:103B8000C1021092BE021092BD020E94731D0895E0
:103B90008091BF029091C002892B21F08091B702E1
:103BA000882369F08091BF029091C002892B19F49B
:103BB0008091B502811108950E94731D089580912E
:103BC000B402882379F78091BF029091C002EACFB6
:103BD0001F920F920FB60F9211242F933F934F9382
:103BE0005F936F937F938F939F93AF93BF93EF9365
:103BF000FF938091B702813099F08091B7028230B3
:103C0000E1F08091B7028330B9F18091B70284303E
:103C100009F452C08091B702853009F055C03EC00A
:103C200080E38093C6008091B7028F5F8093B702D4
:103C30001092BB021092BA0247C08091BC02882346
:103C400021F52091BA023091BB02F901EB5AF34FF2
:103C500080818C35A9F180818093C6002F5F3F4F12
:103C60003093BB022093BA028091BF029091C002B0
:103C70002817390749F503C08CE58093C600809169
:103C8000B7028F5F8093B7021FC08093C600109267
:103C9000BC022091BA023091BB02E0CF1092B70271
:103CA00081E08093B6021092C0021092BF0280930E
:103CB000B3020E94731D08C081E38093C600DFCF6A
:103CC0008093C6008093BC02FF91EF91BF91AF91AA
:103CD0009F918F917F916F915F914F913F912F9124
:103CE0000F900FBE0F901F9018951F920F920FB656
:103CF0000F9211242F933F938F939F93EF93FF93F2
:103D00008091C00083FD04C08091C00084FF03C087
:103D10008091C6003FC02091C60031E03093B402CC
:103D20002C35C1F08091B902882331F01092B9028C
:103D3000203351F12133C1F08091C1029091C20230
:103D4000FC01E95BF44F208301969093C2028093BB
:103D5000C10220C08091B902882319F01092B902E3
:103D6000EBCF3093B90216C01092B4028091C10219
:103D70009091C202892B11F03093B5028FB7F8945D
:103D80001092C1008FBF06C03093B8021092C202D9
:103D90001092C102FF91EF919F918F913F912F91CE
:103DA0000F900FBE0F901F901895CF93DF930E9436
:103DB000C81D0E94D516EC01892BB9F40E94901DF4
:103DC000EC01892B21F183E092E00E94B016BE0144
:103DD00087E49BE00E94D31787E092E00E94B01630
:103DE0000E94701D0E94731D12C00E94651D8823D1
:103DF00029F30E94DA16AE01BC0185E59CE00E9421
:103E0000C81FCE010E946F1D0E94DD16D7CFDF9123
:103E1000CF9108951F93182F0E94481F80917C0016
:103E2000807F80937C0080917C00812B80937C003C
:103E300080917A00806480937A0080917A0086FD78
:103E4000FCCF0E94491F80917800909179001F91CA
:103E5000089580EC80937C0087EC80937A0086E064
:103E60000E940A1F86E00E940A1F86E00E940A1F25
:103E700008950F9A0D9A0C9A159A08958FB7F89491
:103E8000159A8FBF08958FB7F89415988FBF08952E
:103E9000089508958FB7F894149A8FBF08958FB737
:103EA000F89414988FBF08959FB7F89482B1805802
:103EB00082B99FBF0895A0E0B0E0E1E6FFE10C9475
:103EC0006523EC01688179818A819B816115710587
:103ED0008105910549F484E2A82E89EDB82E8BE581
:103EE000C82E87E0D82E02C05B016C01C601B50167
:103EF0002DE133EF41E050E00E940F2327EA31E447
:103F000040E050E00E943E237B018C01C601B501D8
:103F10002DE133EF41E050E00E940F23CA01B901C7
:103F200024E13BE040E050E00E943E23E61AF70A1D
:103F3000080B190B17FF08C08FEF9FEFAFEFBFE71C
:103F4000E80EF91E0A1F1B1FE882F9820A831B83F1
:103F50008FEF9FEFAFEFBFE7E822F9220A231B2381
:103F6000C801B701EAE0CDB7DEB70C9481230E9407
:103F70005B1F08958AE092E00E945B1F08956093A2
:103F80000A0270930B0280930C0290930D02089525
:103F9000FB01DC0102C001900D9241505040D8F766
:103FA0000895FB01DC018D91019080190110D9F376
:103FB000990B0895A0E0B0E0E0EEFFE10C946723D8
:103FC0007C018B01EA01690108C0C8010F5F1F4F26
:103FD000F6010995F70181937F012197FFEFCF3F0C
:103FE000DF0799F7E8E0CDB7DEB70C948323A0E0B4
:103FF000B0E0EDEFFFE10C9467238C017B01EA0157
:10400000690108C0F70161917F01C8010F5F1F4F6F
:10401000F60109952197FFEFCF3FDF0799F7E8E019
:10402000CDB7DEB70C948323A0E1B0E0EAE1F0E283
:104030000C946B230F89188D86E08E831C830B8371
:104040008FEF9FE798878F83AE01455E5F4F5A835E
:104050004983698D7A8DCE0103960E943920298586
:104060003A85020F131FF8011082E4E060960C9469
:1040700087232F923F925F926F927F928F929F92AF
:10408000AF92BF92CF92DF92EF92FF920F931F9366
:10409000CF93DF93CDB7DEB72B970FB6F894DEBF83
:1040A0000FBECDBF3C014B016A01FC011782168295
:1040B000838181FD03C08FEF9FEFC3C11E01089470
:1040C000211C311CF3013381F40133FD859133FF51
:1040D00081914F01882309F4B1C1853239F433FD50
:1040E000859133FF81914F01853229F4B3019927DE
:1040F0000E944F22E7CF982F10E05524AA241032B7
:10410000B0F49B3269F09C3228F4903251F0933233
:1041100071F40BC09D3239F0903349F411602AC01C
:104120001260146027C0186025C0106123C017FDFD
:104130002AC0292F20532A3088F416FF07C08AE0AE
:10414000A89EC0011124A22EA80E14C08AE0589E79
:10415000C0011124522E580E10620CC09E3221F460
:1041600016FD6CC1106406C09C3611F4106802C0C4
:10417000983649F4F40133FD959133FF91914F0145
:10418000992309F0BCCF892F8554833018F08052D1
:10419000833038F424E030E0C20ED31E8FE38983ED
:1041A0000FC0933631F0933781F0933509F056C044
:1041B00020C0F6018081898322E030E0C20ED31E48
:1041C000710181E0A82EB12C12C0F601E080F180CF
:1041D00016FD03C06FEF7FEF02C06A2D772722E044
:1041E00030E0C20ED31EC7010E9444225C011F773B
:1041F00013C0F601E080F18016FD03C06FEF7FEF82
:1042000002C06A2D772722E030E0C20ED31EC7011C
:104210000E9439225C01106813FF07C01BC0B30164
:1042200080E290E00E944F225A94852D9927A8168B
:10423000B906A8F30FC0F70117FD859117FF81910B
:104240007F01B30199270E944F2251105A9408947C
:10425000A108B108A114B10471F7EDC0943611F0B2
:10426000993669F517FF0AC0F60160817181828174
:10427000938124E030E0C20ED31E0DC0F601808190
:1042800091819C01B901882777FD8095982F42E0A4
:1042900050E0C40ED51E012F0F7697FF08C09095F1
:1042A0008095709561957F4F8F4F9F4F00682AE0F2
:1042B00030E0A1010E947C22B82EB21840C0953790
:1042C00021F41F7E2AE030E01CC0197F9F3661F088
:1042D000903720F4983509F0B1C00FC0903739F00D
:1042E000983709F0ABC004C028E030E00AC0106184
:1042F00014FD146020E130E004C014FD166020E1DC
:1043000032E017FF0AC0F6016081718182819381DA
:1043100044E050E0C40ED51E0BC0F60180819181AF
:10432000AC01BA0188279927E2E0F0E0CE0EDF1E4B
:10433000A1010E947C22B82EB218012F0F7706FF30
:104340000BC00E7FBA1440F4802F992784FF06C05B
:1043500082FD04C00F7E02C01B2D01C01A2D202F2C
:10436000332724FF0CC0FE01EB0DF11D808180334B
:1043700011F4097E08C01F5F22FF05C003C0822F11
:10438000867809F01F5FE02EFF24E3FC14C0E0FEF6
:104390000FC0151510F0AB2C0BC0AB2CA50CA11A3F
:1043A000152D06C0B30180E290E00E944F221F5FEE
:1043B0001515C0F304C0151510F4511A01C0552489
:1043C000E4FE10C0B30180E390E00E944F22E2FEC1
:1043D0001EC0E1FE03C088E590E002C088E790E0DF
:1043E000B3010CC08E2D867891F0E1FE02C08BE205
:1043F00001C080E207FD8DE2B30199270E944F22A0
:1044000006C0B30180E390E00E944F22AA94BA1440
:10441000C0F3BA94F101EB0DF11D8081B30199272E
:104420000E944F22BB2039F0F4CFB30180E290E02C
:104430000E944F225A945520C1F744CEF301868141
:1044400097812B960FB6F894DEBF0FBECDBFDF91DC
:10445000CF911F910F91FF90EF90DF90CF90BF9081
:10446000AF909F908F907F906F905F903F902F9034
:104470000895FC010590615070400110D8F78095B7
:1044800090958E0F9F1F0895FC0161507040019020
:104490000110D8F7809590958E0F9F1F08950F9368
:1044A0001F93CF93DF938C01EB018B81992781FFC1
:1044B0001BC082FF0DC02E813F818C819D812817FA
:1044C000390764F4E881F9810193F983E88306C030
:1044D000E885F985802F0995892B31F48E819F819C
:1044E00001969F838E8302C00FEF1FEFC801DF91FB
:1044F000CF911F910F910895FA01AA27283051F109
:10450000203181F1E8946F936E7F6E5F7F4F8F4F04
:104510009F4FAF4FB1E03ED0B4E03CD0670F781F63
:10452000891F9A1FA11D680F791F8A1F911DA11D48
:104530006A0F711D811D911DA11D20D009F4689481
:104540003F912AE0269F11243019305D3193DEF629
:10455000CF010895462F4770405D4193B3E00FD0DF
:10456000C9F7F6CF462F4F70405D4A3318F0495DCA
:1045700031FD4052419302D0A9F7EACFB4E0A695AD
:104580009795879577956795BA95C9F700976105CF
:10459000710508959B01AC010A2E06945795479525
:1045A00037952795BA95C9F7620F731F841F951F1A
:1045B000A01D089597FB092E07260AD077FD04D089
:1045C00049D006D000201AF4709561957F4F089568
:1045D000F6F7909581959F4F0895A1E21A2EAA1B98
:1045E000BB1BFD010DC0AA1FBB1FEE1FFF1FA217A3
:1045F000B307E407F50720F0A21BB30BE40BF50BA0
:10460000661F771F881F991F1A9469F76095709528
:10461000809590959B01AC01BD01CF01089597FB5A
:10462000092E05260ED057FD04D0D7DF0AD0001C76
:1046300038F450954095309521953F4F4F4F5F4F3F
:104640000895F6F790958095709561957F4F8F4FFF
:104650009F4F0895AA1BBB1B51E107C0AA1FBB1F98
:10466000A617B70710F0A61BB70B881F991F5A95FE
:10467000A9F780959095BC01CD010895629FD00166
:10468000739FF001829FE00DF11D649FE00DF11D0D
:10469000929FF00D839FF00D749FF00D659FF00DBC
:1046A0009927729FB00DE11DF91F639FB00DE11DA9
:1046B000F91FBD01CF01112408952F923F924F920F
:1046C0005F926F927F928F929F92AF92BF92CF92A2
:1046D000DF92EF92FF920F931F93CF93DF93CDB7AB
:1046E000DEB7CA1BDB0B0FB6F894DEBF0FBECDBF23
:1046F00009942A88398848885F846E847D848C84F4
:104700009B84AA84B984C884DF80EE80FD800C81FC
:104710001B81AA81B981CE0FD11D0FB6F894DEBFDF
:0A4720000FBECDBFED010895FFCFDD
:10472A0000000002000000004B030000000000012E
:10473A0002C5082907EF07FC0718082A088708BBDB
:10474A0008C208026163445243006162000607001E
:10475A000000000000000002010303050000000041
:10476A00000000000000000000000000000000003F
:10477A000000000000030406010000000000000021
:10478A00000000000000000000000000000000001F
:10479A000000006E65776C616D702E6C6F63616CE2
:1047AA0000CD070105443D4A616E20203720323092
:1047BA00313020483D256400563D2575007606A413
:1047CA00027606CC027606300376064C0376067825
:1047DA00037606A4037606C003760604047606204A
:1047EA0004563D2575009001E80301E8035344008F
:1047FA00535400013818A5177217D11692180101DF
:10480A000A01020319D618A518A1189E1800001447
:10481A0001038B0F1610D60F810FE81000001E013E
:0E482A0003E8036163520061620001000000B8
:00000001FF
