:100000000C9436020C9453020C9453020C94480F37
:100010000C9453020C9453020C9453020C9453020C
:100020000C9453020C9453020C9453020C945302FC
:100030000C9453020C9479050C9420060C945302F2
:100040000C9453020C9453020C94050A0C94530222
:100050000C947E1F0C9453020C94E91E0C945302D2
:100060000C9453020C9453020C9453020C945302BC
:100070000C9434170C9460170C945302020008007F
:1000800012001F003100470060007E009F00C50085
:10009000EE001B014D018201BB01F80139027E0215
:1000A000C70213036403B90311046E04CE043305BD
:1000B0009B0507067706EC066407E0076008E4087E
:1000C0006B09F709870A1A0BB20B4E0CED0C900D59
:1000D000380EE30E920F4510FC10B711761239134B
:1000E0000014CB1499156C1643171D18FC18DE1953
:1000F000C41AAF1B9D1C8F1D851E7F1F7D207F2175
:1001000084228E239C24AE25C326DD27FA281B2AB1
:10011000412B6A2C972DC82EFD2F36317332B43304
:10012000F93442368E37DF38333A8C3BE83C493E6F
:10013000AD3F15418142F1436545DD465948D949F6
:100140005D4BE54C704E005094512B53C65466568F
:100150000958B0595B5B0B5DBE5E75602F62EE6344
:10016000B16578674269116BE46CBA6E9470737212
:1001700055743B762578137A067CFB7DF57FF381F9
:10018000F583FB850488128A238C398E52907092F5
:100190009194B696DF980C9B3D9D729FABA1E8A30E
:1001A00029A66DA8B6AA03AD53AFA8B100B45CB63A
:1001B000BDB821BB89BDF5BF65C2D9C451C7CDC982
:1001C0004CCCD0CE58D1E3D373D606D99EDB39DEE2
:1001D000D8E07BE322E6CEE87DEB2FEEE6F0A1F35C
:1001E00060F623F9E901B4048207550A2B0D0510C6
:1001F000E412C615AC18961B841E76216C24652764
:10020000632A652D6A30743382369339A83CC23F25
:10021000DF42004625494E4C7B4FAC52E1551A59FE
:10022000565C975FDC6224667169C16C15706E73F1
:10023000CA762A7A8E7DF6806284D287468BBE8EFD
:100240003992B9953D99C49C50A0DFA372A70AAB1F
:10025000A5AE44B2E7B58EB939BDE8C09BC452C85B
:100260000CCCCBCF8ED354D71FDBEDDEBFE296E6AE
:1002700070EA4EEE30F216F610FF00026007000042
:100280001000400011FF4000600700001100400016
:1002900012FF4000600700001200400010FF400005
:1002A00030F7000040000000400100004002000064
:1002B000507D000011FF000F6002000011000001DE
:1002C0006002000030FC0000800000004000FF00E1
:1002D0004001000040020000507D0000400000008E
:1002E0004001FF0040020000507D0000400000007F
:1002F000400100004002FF00507D000040008000EF
:100300004001000040020000507D0000400000005D
:100310004001800040020000507D000040000000CD
:100320004001000040028000507D000030E80000E5
:1003300000002202600700000001220260070000A6
:10034000000222026007000030FA000010FF0002E5
:10035000600700001000400011FF4000600700002F
:100360001100400012FF4000600700001200400032
:1003700010FF400030F70000400000004001000086
:100380004002000010FF0002600500001000400065
:1003900012FF4000600500001200400010FF400006
:1003A00030FA0000400000004002000040019600CA
:1003B000507D000040010000507D000030FC000036
:1003C00040000000400100004002000012FF004019
:1003D00060040000500200001200004060040000B1
:1003E0005006000012FF00406004000050020000B0
:1003F00012000040600400005032000030F40000A1
:100400008000000040010000400200004000960013
:10041000507D000040000000507D000030FC0000D6
:1004200040000000400100004002000010A0100049
:1004300011A0090012A008006007000010002000B1
:1004400011002000120020006007000030F80000BA
:10045000400100004002000040009600507D000076
:1004600040000000507D000030FC000011241FBE41
:10047000CFEFD0E1DEBFCDBF12E0A0E0B1E0EAEC0B
:10048000F8E402C005900D92AE30B107D9F71DE037
:10049000AEE0B2E001C01D92A736B107E1F70E94BD
:1004A00061020C9463240C94000029E088E190E040
:1004B0000FB6F894A895809360000FBE209360005B
:1004C000FFCFDF93CF9300D000D0CDB7DEB788E168
:1004D0000FB6F89480936000109260000FBE84B74E
:1004E000877F84BF80916000886180936000109254
:1004F00060002098289A19821A821B821C828981A6
:100500009A81AB81BC810A97A105B10598F48981D4
:100510009A81AB81BC810196A11DB11D89839A830B
:10052000AB83BC8389819A81AB81BC810A97A10589
:10053000B10568F3189991C08EE1809311020E9471
:10054000432080911102853109F49DC080911102F0
:100550008E3109F490C00E949C0484E090E00E94D7
:100560008A1780E091E09093640D8093630D0E9460
:10057000A10A0E9474060E94F30B8091110285313A
:1005800009F476C0809111028E3109F46AC00E948C
:10059000C9140E94781A0E94A01E0E94801480E054
:1005A00060E00E946C1D6091670D7091680D80E0A5
:1005B00090E00E9421210E941C217093680D60939D
:1005C000670D78940E945E2080911202813240F083
:1005D0001092120280910E0285FD39C00E94421DC8
:1005E00080910E0286FD30C080910E0282FD24C0F3
:1005F00080910E0281FF05C080910E028D7F809355
:100600000E0280910E0280FF10C080910E028E7F3C
:1006100080930E0280913E028823E1F480910E02C5
:1006200083FFD0CF0E948706CDCF0E94B50A0E94DB
:10063000ED190E948A18C6CF0E94891580910E027A
:100640008B7F80930E02D4CF0E942217CDCF0E94C1
:10065000DE1FC6CF0E94EE04E1CF85E18093110238
:100660006ECF339994CF83E060E00E947B1A8FCFE6
:10067000339BF9CF87CF3B98439A0E94332086E083
:100680000E94132068CF3B98439A65CF0E94C217FF
:1006900080E090E0089589E080938100EFE6F0E04B
:1006A00080818660808380E09AEF909389008093B8
:1006B000880088EE9DEF90938B0080938A000895C8
:1006C000AF92BF92CF92DF92EF92FF920F931F9360
:1006D000DF93CF9300D00F92CDB7DEB78E010F5FBF
:1006E0001F4FD801EEE0F1E083E001900D928150C0
:1006F000E1F720E030E0F901EE0FFF1FEE0FFF1FE2
:10070000EE0FFF1FE651FD4F818190910203882378
:1007100039F08F3F09F4F1C0989FC0011124892F4F
:10072000F901EE0FFF1FEE0FFF1FEE0FFF1FE45149
:10073000FD4F80832F5F3F4F23303105E1F6780175
:10074000A80180E0782F7F5F733061F1272FD801F7
:10075000A20FB11D6C91E62FF0E0EE0FFF1FEE0F20
:10076000FF1FEE0FFF1FE451FD4F9081FA01308112
:10077000E32FF0E0EE0FFF1FEE0FFF1FEE0FFF1F46
:10078000E451FD4F8081981718F4FA0160833C937F
:100790002F5F2330E0F24F5F5F4F872F782F7F5F0F
:1007A0007330A1F640E060E050E08E010C5F1F4F17
:1007B00031E0C32ED12C28EEA22E2DEFB22E7FEFEA
:1007C000F7018081A82FB0E09D01220F331F220F77
:1007D000331FF901EE0FFF1FE451FD4F8081882385
:1007E00009F447C080818F3F09F443C0553B80F432
:1007F0008081853B68F0842F90E0FC01EE0FFF1FA5
:10080000E80FF91FE652FD4FB282A18270834F5F5D
:10081000F901EE0FFF1FE451FD4F8081581708F0DA
:1008200070C0AA0FBB1FAA0FBB1FAA0FBB1FA651E8
:10083000BD4F16968C91682B5081242F30E080811B
:10084000F601E81BF109CF01880F991FEE27FF275A
:10085000E81BF90BE458FF4F85919491F901EE0FD5
:10086000FF1FE20FF31FE652FD4F928381836083E7
:100870004F5F0894E11CF11CE016F10609F0A0CFCF
:10088000553B80F4842F90E0FC01EE0FFF1FE80F32
:10089000F91FE652FD4F88EE9DEF928381838FEF23
:1008A00080834F5F1092E6024093E7021092E802C5
:1008B0008091EC028823E1F59FEF8091F402882378
:1008C00021F08091F802809598238091FC02882382
:1008D00021F080910003809598239093E9020F9076
:1008E0000F900F90CF91DF911F910F91FF90EF909C
:1008F000DF90CF90BF90AF9008959F3F09F00CCF4D
:100900000FCFAA0FBB1FAA0FBB1FAA0FBB1FA65159
:10091000BD4F16968C91682B842F90E00197FC01B7
:10092000EE0FFF1FE80FF91FE652FD4F6083A1CFC6
:100930009091F0029095C1CFCF93DF9389E080939F
:10094000810080916F00866080936F0080E09AEF55
:10095000909389008093880088EE9DEF90938B00A0
:1009600080938A008FEF809302031092040340E08B
:1009700050E0C0E0D1E061E070E0DA01AA0FBB1FF7
:10098000AA0FBB1FAA0FBB1F9D0126513D4FF901A6
:1009900011821382FD01E251FD4FD183C083AF501C
:1009A000BD4F8C918E7F8C93F9011082CB01042E68
:1009B00002C0880F991F0A94E2F786834F5F5F4F4A
:1009C00043305105D1F60E94600382B1887F82B91D
:1009D00081B1876081B9DF91CF9108951F9340E085
:1009E00050E0BA01660F771F660F771F660F771FFB
:1009F000DB01A651BD4F11969C91119713968C91D6
:100A00001397981759F111961C91119711969C9173
:100A1000119713968C911397981740F52D913C914F
:100A20001197FB01E251FD4F80819181820F931F4D
:100A300011969C938E9311968C9111978117B0F11A
:100A400011969C91119713968C91891778F1FB015F
:100A5000E651FD4F918183819817A9F14F5F5F4F58
:100A60004330510509F0BDCF1F91089511969C9117
:100A7000119713968C911397891748F72D913C91F4
:100A80001197FA01EE0FFF1FEE0FFF1FEE0FFF1F72
:100A9000E251FD4F80819181281B390B11963C93C7
:100AA0002E9311968C9111971817A0F4FB01E65123
:100AB000FD4F838181831082FB01E651FD4F9181BF
:100AC0008381981759F6FB01EF50FD4F80818160BB
:100AD0008083C4CF11969C91119713968C9198178F
:100AE00008F0B5CFFB01E651FD4F83818183108271
:100AF000E3CF1F920F920FB60F9211242F933F93C3
:100B00004F935F936F937F938F939F93AF93BF9315
:100B1000EF93FF938091E802882391F16091E602C0
:100B200080910E02846080930E028091E702681724
:100B300008F076C0862F90E0FC01EE0FFF1FE80F53
:100B4000F91FE652FD4F8181928190938B00809333
:100B50008A0080818093E8026F5F6093E602FF91D4
:100B6000EF91BF91AF919F918F917F916F915F9125
:100B70004F913F912F910F900FBE0F901F9018959E
:100B800082B1887F82B992B18091E90280958770A5
:100B9000892B82B980918400909185006091E60252
:100BA000462F50E0DA01AA0FBB1FFD01E40FF51F2D
:100BB000E652FD4F218132818053984F2817390723
:100BC00048F5809184009091850082179307C8F3BF
:100BD00092B1A40FB51FA652BD4F8C91877080951E
:100BE000892382B96F5F8091840090918500462FA0
:100BF00050E0DA01AA0FBB1FFD01E40FF51FE6521A
:100C0000FD4F218132818053984F28173907C8F250
:100C10006093E60280910E02816080930E0280CF85
:100C20001092E60280910E02826080930E0288EE9E
:100C30009DEF90938B0080938A000E9460038FCF7A
:100C40001F920F920FB60F9211242F933F934F9341
:100C50005F936F937F938F939F93AF93BF93EF9324
:100C6000FF9382B19091E80297709095982392B982
:100C70002091E6028091E702281730F5822F90E05C
:100C8000FC01EE0FFF1FE80FF91FE652FD4F8181B7
:100C9000928190938B0080938A0080818093E802F8
:100CA0002F5F2093E602FF91EF91BF91AF919F914B
:100CB0008F917F916F915F914F913F912F910F9005
:100CC0000FBE0F901F9018951092E60280910E02B1
:100CD000826080930E0288EE9DEF90938B0080934C
:100CE0008A000E946003DFCF1092C2021092C102FC
:100CF0001092C4021092C3028091C602887F88605D
:100D00008093C6021092D6021092D7020895809165
:100D1000F10280FD2BC090E08091F90280FF08C0B5
:100D20008091F802982B8091F9028E7F8093F902CE
:100D30008091010380FF08C080910003982B80916F
:100D400001038E7F809301038091C602982B9770D8
:100D5000887F892B8093C60283FD0895E091C102AC
:100D6000F091C20281EC92E0099508959091F00211
:100D70008091F1028E7F8093F102CECFEF92FF92AD
:100D80000F931F93DF93CF9300D000D0CDB7DEB782
:100D90008C017E010894E11CF11CF8018281938191
:100DA000AC014F5F5F4FFC018491F8018483282FD1
:100DB0002F7029839A012F5F3F4FFA0194919A83F4
:100DC000A9014F5F5F4FF90194919B834F5F5F4F84
:100DD000F8015383428341505040FA0194919C831F
:100DE00082958F70E82FF0E0EE0FFF1FEF5EFE4F51
:100DF0000190F081E02DC701B8010995823071F0B2
:100E0000813009F0CACF0F900F900F900F90CF91C3
:100E1000DF911F910F91FF90EF900895F801858168
:100E200088608583F0CFDC0112968D919C91139799
:100E3000019713969C938E931297892BF1F45596F4
:100E40008C915597815055968C93559790E0FC0165
:100E5000EE0FFF1FEE0FFF1FE80FF91FEA0FFB1F3A
:100E60008681978111969C938E93808591851396A8
:100E70009C938E93129714961C920895DC011296FF
:100E80004D915C91139715962C911597322F3770D1
:100E9000832F90E084239523892B31F1842F809533
:100EA0008323287F282B15962C93159755968C9184
:100EB0005597815055968C93559790E0FC01EE0F15
:100EC000FF1FEE0FFF1FE80FF91FEA0FFB1F8681C0
:100ED000978111969C938E938085918513969C9310
:100EE0008E93129714961C92089581E00895CF93E3
:100EF000DF93EC01DB019B8180E02A81AC01420F92
:100F0000511D9A01E881F0E0E651FD4F238F56967E
:100F10008C9187FD35C0882309F447C0A90102C020
:100F2000440F551F8A95E2F7CA0141155105C1F5D5
:100F30004FEF9FEFE881F0E08981EE0FFF1FEE0F8A
:100F4000FF1FEE0FFF1FE651FD4F8383E881F0E0A6
:100F5000EE0FFF1FEE0FFF1FEE0FFF1FE251FD4FC1
:100F60004083E881F0E0EE0FFF1FEE0FFF1FEE0F52
:100F7000FF1FE651FD4F958380E0DF91CF910895EB
:100F8000992787FD9095909581959F4FA90102C063
:100F9000569547958A95E2F7CA014115510511F01A
:100FA000482FC8CF41E090E0C5CF932FC3CFCF9358
:100FB000DF93EC018C81807F803509F451C040E0E3
:100FC00050E0FA01E651FD4F838D282F30E08E89E5
:100FD00087FD2EC0882309F441C002C0220F331FB1
:100FE0008A95E2F72115310589F52FEF3FEF9FEF45
:100FF0008FEFDA01AA0FBB1FAA0FBB1FAA0FBB1FDF
:10100000A251BD4F9C93FA01EE0FFF1FEE0FFF1F81
:10101000EE0FFF1FE651FD4F858311963C932E93F3
:101020004F5F5F4F4330510561F6DF91CF910895D7
:10103000992787FD9095909581959F4F02C0369591
:1010400027958A95E2F72115310519F0922F832F04
:10105000D0CF21E030E091E080E0CBCF922FC9CF1C
:101060002F89388D8E8987FD11C0882351F002C0E9
:10107000369527958A95E2F72115310511F421E07F
:1010800030E03B832A83DF91CF910895992787FD34
:101090009095909581959F4F02C0220F331F8A959E
:1010A000E2F72115310569F72FEF3FEFEACFFC0199
:1010B00081818093ED0282818093F5028381809308
:1010C000FD0280E00895FB01DC0111968C91282F30
:1010D000332727FD309537FF02C021503040220FC3
:1010E000331F220F331F82819381820F931F9383BB
:1010F000828380E008959C01DC011196EC911197A8
:10110000F0E012968C91AAEEB2E0EE0FFF1FEE0F08
:10111000FF1FEE0FFF1FEA0FFB1F8183F901818183
:1011200090E02281880F991F880F991F880F991FBF
:10113000A80FB91F13962C9380E00895FC01DB01E2
:10114000928180E02181AC01420F511D9A01589695
:101150005C934E93579756968C91569787FD42C055
:10116000882351F002C0369527958A95E2F721151C
:10117000310511F421E030E055968C91559790E0BF
:10118000FC01EE0FFF1FEE0FFF1FE80FF91FEA0F24
:10119000FB1F8D919C9111979783868355968C9117
:1011A000559790E0FC01EE0FFF1FEE0FFF1FE80FB9
:1011B000F91FEA0FFB1F12968D919C91139791874F
:1011C000808783E197E011969C938E9313963C93CE
:1011D0002E93129755968C9155978F5F55968C93B9
:1011E00081E00895992787FD9095909581959F4F6F
:1011F00002C0220F331F8A95E2F72115310509F04D
:10120000BBCF2FEF3FEFB8CFDB0155962C91559711
:1012100030E0F901EE0FFF1FEE0FFF1FE20FF31F8B
:10122000E60FF71F2D913C91119737832683559632
:101230002C91559730E0F901EE0FFF1FEE0FFF1FC5
:10124000E20FF31FEA0FFB1F12962D913C911397AB
:10125000318720872EE337E011963C932E93FC01D3
:10126000818112968C93129713961C921397559620
:101270008C9155978F5F55968C9381E00895FB0173
:101280008581887F858380E0089582E00895EF92CC
:10129000FF920F931F93CF93DF93EC0109810E947C
:1012A0001C218A81860F09F481E0E02EFF24F701DA
:1012B000EE0FFF1FEE0FFF1FEE0FFF1FE251FD4F5E
:1012C00080830E941C218B81861718F466958617EF
:1012D000E8F3EE0CFF1CEE0CFF1CEE0CFF1C87016C
:1012E00006511D4FF80165830E941C2198012D5F56
:1012F0003F4FF8018381681731F4E9010E941C21F6
:1013000088818617D9F38AEE92E0E80EF91EF7017C
:10131000638380E0DF91CF911F910F91FF90EF9059
:1013200008958F929F92AF92BF92CF92DF92EF92E9
:10133000FF920F931F93DF93CF9300D000D0CDB7D0
:10134000DEB75C014E010894811C911CD5011296F8
:101350008D919C9113978C010F5F1F4F13961C93D7
:101360000E9312970E944D23E82EF50184838F700F
:10137000898368010894C11CD11CD382C282C80130
:101380000E944D238A8386010F5F1F4FD50113965C
:101390001C930E931297C6010E944D238B830F5FFF
:1013A0001F4FF5011383028301501040C8010E94B2
:1013B0004D238C83E294EFE0EE22FF24EE0CFF1C21
:1013C00081E191E0E80EF91ED701ED91FC91C40195
:1013D000B50109958230A1F0813009F0B7CF0F90A7
:1013E0000F900F900F90CF91DF911F910F91FF9071
:1013F000EF90DF90CF90BF90AF909F908F90089527
:10140000F501858188608583EACF78941F920F92D9
:101410000FB60F9211242F933F934F935F936F93C7
:101420007F938F939F9320910B0330910C038091B6
:101430001102853109F450C0809111028E3109F4F6
:1014400047C090E060E070E08EEF86BD40910A03F7
:101450004F5F40930A034E3430F036FD02C035FD35
:1014600049C020E030E050910D039527892F90E08E
:10147000062E02C0959587950A94E2F780FF12C068
:10148000852F809580930D034A3150F520E030E0A0
:1014900090E002C0959587956A95E2F780FF2160FC
:1014A00010920A0330930C0320930B0380911202D5
:1014B0008F5F809312029F918F917F916F915F91C7
:1014C0004F913F912F910F900FBE0F901F90189545
:1014D00093B161E070E0B8CF99B166E070E0B4CF4D
:1014E00021153105A9F24433E8F236FDD1CF220FA0
:1014F000331FCECF309309032093080320E030E060
:10150000B2CF0097B9F096959695969591702091E7
:1015100013022F5F2093130280912301981731F05B
:10152000109213029093230181E008952A3039F03C
:101530002B3011F080E008958AE08093130281E05F
:10154000089584E085BD80916E00816080936E0077
:1015500080911102853139F0809111028E3109F0AC
:101560000895299A08955E9A08950F931F93DF9323
:10157000CF930F92CDB7DEB7F89400910803109186
:10158000090310920903109208037894C8010E947D
:10159000810A882339F481E00F90CF91DF911F9168
:1015A0000F910895C8018C01002E012F000C001F1F
:1015B000110B000C001F111F0F719C01209530951D
:1015C000220F232F221F330B20748F73282B298384
:1015D00084E291E00E94D817802F0E94C21789816F
:1015E0000E94C2178AE291E00E94D817053099F64E
:1015F00080910F02813009F453C09981933109F42D
:1016000057C0923109F45DC0903209F46EC0913236
:1016100009F474C09C3091F1892F8150893008F40D
:1016200059C0903109F47CC0913109F482C09033E3
:1016300009F488C0973309F48EC09F3009F49DC027
:101640009E3009F464C09C3209F461C0892F8E5227
:10165000823008F49BC09C3309F486C0953209F4AB
:1016600083C0943109F49BC0953109F4A1C09F3324
:1016700009F4A7C09B3259F080E08ECF80E160E092
:1016800070E040E050E00E94501280E085CF80E2A0
:1016900060E070E040E050E00E94501280E07CCFBB
:1016A00099819C3009F4B0CF973309F074CFAFCF54
:1016B00082E160E070E040E050E00E94501280E083
:1016C0006BCF81E160E070E040E050E00E9450129A
:1016D00080E062CF898381E2BE016F5F7F4F40E08F
:1016E00050E00E94501280E057CF85E160E070E04A
:1016F00040E050E00E94501280E04ECF86E160E072
:1017000070E040E050E00E94501280E045CF8CE154
:1017100060E070E040E050E00E94501280E03CCF7A
:1017200083E160E070E040E050E00E94501280E011
:1017300033CF84E160E070E040E050E00E9450125E
:1017400080E02ACF87E160E070E040E050E00E9456
:10175000501280E021CF88E160E070E040E050E08E
:101760000E94501280E018CF8EE160E070E040E00F
:1017700050E00E94501280E00FCF89E160E070E0FD
:1017800040E050E00E94501280E006CF8DE160E022
:1017900070E040E050E00E94501280E0FDCE8AE10F
:1017A00060E070E040E050E00E94501280E0F4CE33
:1017B0008BE160E070E040E050E00E94501280E079
:1017C000EBCE8FE160E070E040E050E00E9450120C
:1017D00080E0E2CE609181017091820142E350E0AD
:1017E0000E943D2308958AE493E060E070E042E0C7
:1017F00050E00E943D2380914B038823B1F18FEF8D
:10180000809302031092D7028EEB96E09093C2026F
:101810008093C10288E792E09093C4028093C30250
:101820008091C602877F8093C6028AEF8093EB0285
:101830008093ED0280910E02886080930E021092D8
:101840000F0280910E028F7D80930E0260918101C4
:10185000709182018EE093E042E350E00E943D23CC
:1018600080910E038F3F11F108958AEE92E062E0BD
:1018700070E04EE150E00E943D2381EC92E060E296
:1018800070E049E150E00E943D238AED92E069E377
:1018900070E040E150E00E943D238EE092E069E478
:1018A00070E044E050E00E943D23D0CFAEE0B3E0D2
:1018B000E3E7F1E08EE001900D928150E1F7609155
:1018C0008101709182018EE093E042E350E00E943A
:1018D0005523089510924B038AE493E060E070E092
:1018E00042E050E00E9455238AEE92E062E070E010
:1018F0004EE150E00E94552381EC92E060E270E0FE
:1019000049E150E00E9455238AED92E069E370E0DE
:1019100040E150E00E9455238EE092E069E470E0DF
:1019200044E050E00E9455230895CF93DF93EC01EB
:10193000FC0101900020E9F731974E2F481B4333FB
:1019400068F019AA42E350E0609181017091820130
:10195000CE010E945523DF91CF91089550E04F5F53
:101960005F4FF2CFBC018EE093E00E9433219C01D7
:1019700080E0232B09F481E00895AC01362F20E0AC
:1019800060E0E1E2F0E107C0440F551F6F5F68308F
:1019900071F0220F331FC9018427952797FFF4CFD9
:1019A000440F551F4E275F276F5F683091F7CA01BC
:1019B000089582E58CBD0895EA982C989EBD0DB4DB
:1019C00007FEFDCF3EB58EBD0DB407FEFDCF2EB593
:1019D000932F80E02C9AEA9A30E0282B392BC9010A
:1019E0000895DF93CF9300D000D0CDB7DEB784B198
:1019F000806B84B926982C9A2E9A82E58CBD2B9AFE
:101A00002B9819821A821B821C8289819A81AB8150
:101A1000BC81805A9B4BAD40B040A0F489819A8133
:101A2000AB81BC810196A11DB11D89839A83AB83D3
:101A3000BC8389819A81AB81BC81805A9B4BAD402C
:101A4000B04060F32B9A20E040E054EBCA010197CC
:101A5000F1F72F5F2436D1F780EE90EC0E94DC0C7A
:101A600087ED90E80E94DC0C8BEA92EC0E94DC0C83
:101A700081E89AEC0E94DC0C80E090EE0E94DC0C85
:101A800080E098EC0E94DC0C87EF94EC0E94DC0C68
:101A900080E090E00E94DC0C80914C03887F809372
:101AA0004C0322982A9A8091690080628093690091
:101AB000EA9A0F900F900F900F90CF91DF910895B9
:101AC00090E0880F991F82959295907F9827807F4C
:101AD0009827907050E047705070842B952B946934
:101AE00070E063707070660F771F660F771F660F68
:101AF000771F862B972B0E94DC0C0895803691056A
:101B000058F02FE08034920720F4906A0E94DC0C99
:101B100008958FE39FE0F9CF80E690EA0E94DC0C05
:101B2000089522E08739920798F025E188319207DD
:101B300080F09C0140E050E06CEF72E485E090E0C2
:101B40000E947820DA01C9010197966C0E94DC0C92
:101B500008959C0140E050E060E678EA80E090E083
:101B60000E949A20DA01C90101978068966C0E9450
:101B7000DC0C089590E087709070986970E0629531
:101B80007295707F7627607F76277070862B972BF3
:101B90000E94DC0C089580914C0382FD08C081FDF9
:101BA00004C080FF06C083E0089582E0089581E0CC
:101BB000089588EC92E80E94DC0C81E89AEC0E947F
:101BC000DC0C83E89AEC0E94DC0C109214028091E9
:101BD0004C03816080934C0380E00895EF92FF9264
:101BE0000F931F93CF93DF937C0180914C0380FD73
:101BF00053C082FF49C08B7F80934C038091830147
:101C0000882309F451C070914D03072F10E040E084
:101C100050E0E0E0A0E0B0E0C1E2D0E1A35BBC4F67
:101C20003C9120E060E007C0440F551F6F5F6830B3
:101C300071F0220F331FCA018227932797FFF4CF39
:101C4000440F551F4C275D276F5F683091F7EF5F9A
:101C5000AE2FB0E00A171B070CF7A35BBC4F2C910B
:101C600030E0EF5FF0E0E35BFC4F908180E0822B9F
:101C7000932B84179507D1F080E0DF91CF911F91CE
:101C80000F91FF90EF9008958EEFDF91CF911F910C
:101C90000F91FF90EF9008958FEFDF91CF911F91FB
:101CA0000F91FF90EF90089570914D03772321F3EA
:101CB00090E0E92FF0E0D701AE0FBF1FE35BFC4FD0
:101CC00081818C939F5F80914D03981790F3DF91F2
:101CD000CF911F910F91FF90EF90089580914C0349
:101CE00081FD02C080E008958FEF089588E092E8BA
:101CF0000E94DC0C80914C03887F80934C0380E031
:101D000090E00E94DC0C0895DF92EF92FF920F9317
:101D10001F93CF93DF93E82ED92E062F0E945420D5
:101D200080914C0381FDABC0053608F09FC08260F6
:101D300080934C03075F0093140209501091140222
:101D4000E12FF0E0E35BFC4F9AEA9083812F815012
:101D5000E82FF0E0E35BFC4F90838150E82FF0E048
:101D6000E35BFC4F90838150E82FF0E0E35BFC4F96
:101D70009DE290838150E82FF0E0E35BFC4F94ED0F
:101D800090838150E82FF0E0E35BFC4F0083F82E56
:101D9000FA94302F20E040E050E060E0E1E2F0E132
:101DA00007C0440F551F6F5F683071F0220F331F5B
:101DB000C9018427952797FFF4CF440F551F4E275D
:101DC0005F276F5F683091F7002359F18E2D9D2DAD
:101DD0009C01D9017F2D1650C1E2D0E1101BE72FE5
:101DE000F0E0E35BFC4F8C91808371503C9120E0EC
:101DF00060E007C0440F551F6F5F683071F0220F1D
:101E0000331FC9018427952797FFF4CF440F551F2F
:101E10004C275D276F5F683091F711967117F9F6BF
:101E2000F01AEF2DF0E0E35BFC4F4083AF2DA150A3
:101E3000EA2FF0E0E35BFC4F5083A150EA2FF0E083
:101E4000E35BFC4F8AEA8083A150B0E0A35BBC4F08
:101E50008C9388E392E80E94DC0C80E0DF91CF91C4
:101E60001F910F91FF90EF90DF90089584E0DF9134
:101E7000CF911F910F91FF90EF90DF90089582E036
:101E8000DF91CF911F910F91FF90EF90DF90089518
:101E900078941F920F920FB60F9211242F933F93B5
:101EA0004F935F936F937F938F939F93AF93BF9362
:101EB000EF93FF9380914C0380FF2BC0809114021D
:101EC0008436E8F188E092E80E94DC0C0E944D2004
:101ED00080914C038E7F80934C032091140280915B
:101EE0004D0390E0029630E0821793070CF440C057
:101EF000FF91EF91BF91AF919F918F917F916F91E2
:101F00005F914F913F912F910F900FBE0F901F90B7
:101F1000189581FFEDCFE0911402F0E0E35BFC4FF8
:101F2000808190E0986B0E94DC0C809114028823E1
:101F300061F180911402815080931402D9CF0E94E4
:101F4000482080E090EB0E94DC0C982F80911402D6
:101F5000882319F4953608F094E680911402E82F4E
:101F6000F0E0E35BFC4F90838F5F80931402B5CF6A
:101F700088E092E80E94DC0C0E944D2080914C0386
:101F80008E7F846080934C03B3CF80914C038D7F10
:101F900080934C0388E092E80E94DC0C0E94592058
:101FA000A7CF0895982FAFE1B2E0E0E0F0E08C9188
:101FB0008917D1F031961296EA30F105C1F7809178
:101FC0001E02E82FF0E0EE0FFF1FE15EFD4F908351
:101FD00061838F5F80931E028A3019F091E0892F10
:101FE000089510921E02FACF90E0DF01AA0FBB1FE6
:101FF000FD01E15EFD4F8181861391E0A15EBD4F41
:1020000011966C93892F089580911A028F5F8093A7
:102010001A02089590E080918401853011F0892F93
:10202000089591E0892F0895CF93DF93EC0180917B
:102030008401853021F081E0DF91CF9108951092E5
:1020400084019C81292F90FD32C080E580935E043D
:1020500010921B028AE0809317028B818093BD034C
:102060008A818093BE0321FF06C081E080931D0218
:1020700082E098279C8380911A0280935F0440E657
:1020800054E02E8130E0295F3F4FCA01BE01A90113
:102090000E942A218E81875F809318028091150209
:1020A0008B7F8093150280E0DF91CF91089582E4C9
:1020B00080935E0481E080931B0280931702D3CF4C
:1020C000CF93DF93EC0180911D02882341F490911E
:1020D000150290FD22C080E0DF91CF91089590918C
:1020E0001502892F8670A9F31E828091600489836E
:1020F0000E948C1C88830E948C1C8A830E948C1CEA
:102100008B838EEF8D838091150281FF10C088E054
:102110008C8381E0DF91CF910895DE01EDEFF4E053
:1021200087E001900D928150E1F781E0D5CF84E006
:102130008C8381E0DF91CF910895682F80911D02FB
:10214000882331F42091150220FD13C081E0089509
:1021500020911502822F8670B9F3862F0E9460109D
:1021600080911502897F8093150210921D0280E0F4
:1021700008952091030530E0295F3F4F4DEF54E073
:10218000862FBA01A9010E942A218091150291E0AF
:1021900089278093150280E00895EF92FF920F93B4
:1021A0001F93DF93CF9300D000D0CDB7DEB78C0163
:1021B000FC0180818134A9F062E0E62EF12CE00E72
:1021C000F11E823409F46EC0803509F10F900F9032
:1021D0000F900F90CF91DF911F910F91FF90EF9093
:1021E0000895218180911A028F5F281779F79091C5
:1021F000BD038281981751F79091BE038381981790
:1022000029F781E08093190220931A02DFCFC701DA
:102210000E94921C882321F480911C02882389F05B
:1022200081E48983F80181818F5F8A8384818C8333
:1022300085818B830E94760ECE01019664E00E9418
:10224000840EF80194812181AFE1B2E0E0E0F0E09A
:102250008C91981709F443C031961296EA30F10533
:10226000B9F780911E02E82FF0E0EE0FFF1FE15E4C
:10227000FD4F908321838F5F80931E028A30E1F1AE
:102280004DEF54E0F801208530E0295F3F4FCA014F
:10229000B701A9010E942A218091150281608093D3
:1022A000150294CFC7010E949E1C882321F48091BF
:1022B0001C02882389F04DEF54E0F801208530E0BE
:1022C000295F3F4FCA01B701A9010E942A218091CD
:1022D0001502816080931502F801808175CFEE0FA1
:1022E000FF1FE15EFD4F81812183281749F6809110
:1022F0001C02882329F66ACF10921E02C1CF0E94C9
:10230000760E8EE594E0609118020E94840E089586
:102310008FEB93E00E94EE0D682F81508D3F90F07F
:102320000E946E0E882369F4809184018230E9F066
:10233000833068F0843009F455C08430D8F185309A
:1023400039F108958FEB93E00E94CD10E9CF8823F7
:1023500011F5809117028150809317028F5F09F465
:1023600052C081E0809384010895809116028150CB
:1023700080931602882329F780E090E00E94DC0C0D
:1023800090FDEFCF0E947F1183E080938401089538
:102390000E94CB0D08958130A1F680E090E00E946C
:1023A000DC0C90FDCECF83E08093160282E0809318
:1023B000840108950E946E0E882319F60E94CB0DA9
:1023C00084E1809316021092190280911B028823E7
:1023D00071F18091150284608093150285E08093ED
:1023E000840108950E94CB0D809119028823A1F4E5
:1023F00080911602815080931602882309F0A1CFA4
:1024000010928401089580911502826080931502D4
:1024100085E0809384010895809115028460809303
:1024200015020E94CB0D85E080938401089584E01D
:102430008093840108951092ED028091ED028093C3
:10244000EB021092F5028091F5028093F302109254
:10245000FD028091FD028093FB0208959093C202D9
:102460008093C1027093C4026093C3028091C6023C
:10247000877F8093C6021092D6021092ED0280915F
:10248000ED028093EB021092F5028091F5028093A9
:10249000F3021092FD028091FD028093FB020895E9
:1024A0000F931F93CF93DF93EB018A01823109F4DD
:1024B00057C0813109F445C0853109F47AC08631AD
:1024C00009F480C0803109F460C0813209F47EC013
:1024D000833109F4BCC0843109F4C7C0873109F4E1
:1024E000AAC0883109F4DDC0893109F4D1C08C312A
:1024F00009F4D3C08D3109F4DCC08E3109F4DEC09B
:102500008A3109F4E0C08B3109F4EDC08F3109F450
:10251000FAC0803209F457C1863509F462C18734A4
:1025200009F000C180910F02DA018C938091D702EB
:1025300011968C9311978091020312968C9383E0ED
:1025400014C0809102038F3F79F0809102038F5F66
:102550008093020380E0DF91CF911F910F91089546
:1025600080910203882331F480E0DF91CF911F91A5
:102570000F9108958091020381508093020380E0BF
:10258000DF91CF911F910F91089580910F028130BB
:1025900009F479C080910F02863009F455C080910A
:1025A0000F028093100280E090E00E94711580E09D
:1025B000DCCF8FEF8093020380E0DF91CF911F91FA
:1025C0000F9108951092020380E0CFCF68816930A7
:1025D00058F6E62FF0E0EE0FFF1FEE0FFF1FDF01B2
:1025E000A156BE4F2D913C91E356FE4F80819181C3
:1025F0009093C2028093C1023093C4022093C3021D
:102600008091C602877F8093C6021092D6021092F4
:10261000ED028091ED028093EB021092F502809121
:10262000F5028093F3021092FD028091FD028093E7
:10263000FB0280E09ACF80910F028230B1F182E0FC
:1026400080930F0280E091CF10921002ACCF809166
:10265000D70288300CF088CF8F5F8093D70281EC4F
:1026600092E00E94D70780E080CF8091D702893F17
:102670000CF47ACF81508093D70281EC92E00E94D3
:10268000D70780E072CF84E080930F0280E06DCFA7
:1026900085E080930F0280E068CF1092040380E011
:1026A00064CF0E946A0C80E060CF10920F0280E03D
:1026B0005CCF81E08093040380E057CF82E0809379
:1026C000040380E052CFE0910403F0E0EE0FFF1F1F
:1026D000EE0FFF1FEE0FFF1FE651FD4F81818F5F51
:1026E000818380E042CFE0910403F0E0EE0FFF1F12
:1026F000EE0FFF1FEE0FFF1FE651FD4F818181504E
:10270000818380E032CFE0910403F0E0EE0FFF1F01
:10271000EE0FFF1FEE0FFF1FE651FD4F8FEF81837E
:1027200080E023CF833709F471C0833509F473C087
:10273000843409F475C0833409F477C0823709F40E
:10274000A0C0883709F482C08F3409F4B4C08E3435
:1027500009F4A2C0873509F46FC0813509F4BBC004
:10276000813409F4C2C0883509F4BBC0863409F449
:10277000A6C08B3409F0F8CE86E00E94132000D06A
:1027800000D000D0EDB7FEB73196ADB7BEB7129608
:102790001C930E93119728E931E0338322839583AC
:1027A00084830E943C21F80101900020E9F73197D1
:1027B0008E2F801BEDB7FEB736960FB6F894FEBF8E
:1027C0000FBEEDBFD2CEE0910403F0E0EE0FFF1F8D
:1027D000EE0FFF1FEE0FFF1FE651FD4F118280E04D
:1027E000C4CE2091110200D000D000D0EDB7FEB7CA
:1027F0003196ADB7BEB712965C934E93119785E8AC
:1028000091E09383828324831582CBCF8881809348
:10281000D70280E0AACE888180930F0280E0A5CE07
:1028200088818093020380E0A0CE888169814A81FB
:102830000E94D51480E099CE8881882331F180915F
:102840000E02806280930E0280E08FCECB010E9448
:10285000B20C882309F488CEDE010D900020E9F740
:102860001197AC1B8E010A0F111DF8018181628145
:102870000E94641DD80113968C910E94671580E018
:1028800074CE0E94550280E070CE80910E028F7D42
:1028900080930E0280E069CECB010E94950CC801A6
:1028A00001960E94EA0BF80101900020E9F73197A8
:1028B0008E2F801B5ACE0E946D1580E056CE3B8134
:1028C00020E08C81280F311D888169814A810E9416
:1028D000091580E04ACE1092C9011092C80180E02B
:1028E00044CE1092C9011092C8010E94791580E06F
:1028F0003CCEFC01AB018191BF010E9450120895B2
:10290000DF93CF9300D000D0CDB7DEB719821A8203
:102910001B821C8289819A81AB81BC818051974244
:10292000A040B040A0F489819A81AB81BC8101961E
:10293000A11DB11D89839A83AB83BC8389819A8150
:10294000AB81BC8180519742A040B04060F383E0EE
:102950000E94A11A8823B1F00E94F10C80EC96E04D
:102960000E947E0D84E061E044E00E94600D80E002
:102970009BE40E94910D80E066E00E94BA0D80E029
:102980000E94D10F0F900F900F900F90CF91DF9179
:10299000089581E08093CA0180910E028695869504
:1029A0008695817080933E020895F8948093EB029F
:1029B0008093ED026093F3026093F5024093FB0273
:1029C0004093FD02789480913B0290913C02892BC8
:1029D00041F08091C6019091C70190933C02809391
:1029E0003B0280910F02823099F080910F02873074
:1029F00079F080910F028093100282E080930F02A1
:102A00008091C6019091C70190933C0280933B0254
:102A100008958093ED026093F5024093FD02309398
:102A2000EF022093EE023093F7022093F6023093E8
:102A3000FF022093FE0280913B0290913C02892B81
:102A400041F08091C6019091C70190933C02809320
:102A50003B0280910F02823099F080910F02873003
:102A600079F080910F028093100282E080930F0230
:102A70008091C6019091C70190933C0280933B02E4
:102A8000089580913B0290913C02892B41F0809106
:102A9000C6019091C70190933C0280933B028091C4
:102AA0000F02823099F080910F02873079F0809187
:102AB0000F028093100282E080930F028091C60182
:102AC0009091C70190933C0280933B0208958093BC
:102AD0003D0282E08093CA01089583E08093CA0199
:102AE00008959093400280933F0283E080930F0209
:102AF000089560910E038091CA01833049F0862FBA
:102B00000E94641D81E080933D0283E08093CA01AE
:102B100008950F931F93CF93DF9380910F02853019
:102B200009F4D5C08630A8F1873009F416C1873082
:102B300008F453C0883009F406C1893009F4EAC0AA
:102B40002091C8013091C9012115310561F08091B2
:102B5000CB019091CC0101979093CC018093CB0154
:102B6000019609F476C080913B0290913C02009757
:102B700059F0019790933C0280933B02892B21F4FA
:102B80008091100280930F02DF91CF911F910F91DE
:102B90000895823009F493C0833098F0833009F4AB
:102BA000E5C0843069F6809103038093020380912D
:102BB0000E02886080930E028091100280930F02B3
:102BC000BFCF882309F0BCCF81E080933E02809183
:102BD0000E02886080930E02B3CF809133029091F1
:102BE0003402A0913502B09136020196A11DB11DAB
:102BF0008093330290933402A0933502B09336024F
:102C000020913702309138024091390250913A02B6
:102C100082179307A407B50709F092CF10923302E9
:102C20001092340210923502109236028091020303
:102C300081508093020380910203882309F080CFA2
:102C400081E080930F0280910E02877F80930E02B5
:102C500077CF3093CC012093CB0186E00E941320E4
:102C6000EC018091CA01813009F4C3C01092AC0616
:102C700080913D028093A9060E948C1C8093A80637
:102C80000E948C1C8093AA068FEF8093AD068091E2
:102C9000CA01813009F4C3C0823009F4ADC080910B
:102CA00011028E3108F07DC081E08093AE0682E48F
:102CB0008093AF0688EA96E00E94AA1C54CF109237
:102CC0003E0280910E02877F80930E0239CF1092D0
:102CD0003302109234021092350210923602609143
:102CE000020384EE97E570E00E946520882777FD57
:102CF0008095982F60933702709338028093390241
:102D000090933A02809102038093030386E08093BC
:102D10000F0216CF80913F0290914002019790934D
:102D2000400280933F02019609F00ACF12B883B7A0
:102D3000817F846083BF83B7816083BF889583B7B9
:102D40008E7F83BFF8CF88EB9BE090934002809307
:102D50003F0289E080930F02F3CE81E080933E0230
:102D600080910E02877F80930E02EACE80913F020F
:102D70009091400201979093400280933F02019608
:102D800009F0DECE809102038093030310920203C8
:102D900080910E02877F80930E0281E080930F0264
:102DA000CFCE00D000D000D0EDB7FEB731960FEAFD
:102DB00016E0ADB7BEB712961C930E93119781EC37
:102DC00091E093838283D583C4830E943C21F801E0
:102DD00001900020E9F78F01005B16400093AE06DA
:102DE0008DB79EB706960FB6F8949EBF0FBE8DBFE7
:102DF00061CF8093AC063CCF0FEA16E089E4809364
:102E0000AF06C80101960E94EA0BF801019000206C
:102E1000E9F78F01005B16400093AE064BCF0FEA37
:102E200016E082E58093AF06C80101960E94EA0B86
:102E3000D8010D900020E9F78D01005B164000934A
:102E4000AE0638CF80910F02893069F080910F0271
:102E5000883049F08EEB96E060E574E00E942E1217
:102E600088E080930F0208951F920F920FB60F9281
:102E700011242F938F939F93EF93FF939091C8000A
:102E80002091CE00E091A302EF5FEF718091A40248
:102E9000E817A1F0892F8871E093A302F0E0EF57C3
:102EA000FD4F20838093A502FF91EF919F918F9119
:102EB0002F910F900FBE0F901F90189582E0F2CFC8
:102EC0001F920F920FB60F9211248F939F93EF933F
:102ED000FF939091A1028091A2029817A9F0E0912E
:102EE000A202EF5FEF73E093A202F0E0EF5BFD4F11
:102EF00080818093CE00FF91EF919F918F910F90F1
:102F00000FBE0F901F9018958091C9008F7D809300
:102F1000C900F1CF9C011092A1021092A20210925E
:102F2000A3021092A40297FF04C082E08093C8001D
:102F30003F773093CD002093CC0088E98093C9007F
:102F400086E08093CA0008959091A3028091A40224
:102F50009817A1F0E091A402EF5FEF71E093A40253
:102F6000F0E0EF57FD4F30812091A502922F80E0D5
:102F7000AC01430F511D9A01C901089520E031E0D1
:102F8000C9010895282F9091A1029F5F9F7380919E
:102F9000A2029817E1F3E92FF0E0EF5BFD4F2083E9
:102FA0009093A1028091C90080628093C900089526
:102FB000DC012C912223C1F011969091A1029F5F18
:102FC0009F738091A2029817E1F3E92FF0E0EF5B85
:102FD000FD4F20839093A1028091C900806280936D
:102FE000C9002C91222341F70895FC014491442308
:102FF000D9F09C012F5F3F4F9091A1029F5F9F737B
:103000008091A2029817E1F3E92FF0E0EF5BFD4F0A
:1030100040839093A1028091C90080628093C9008F
:10302000F9014491442331F7089581E0089508950A
:103030008091A6029091A70208958BE995E00895EA
:103040001092A7021092A6020895CF93DF930E94D8
:10305000A417EC0190FF06C020E030E0C901DF9129
:10306000CF9108950E9448202C2FC13631F18091D4
:10307000A902882331F01092A902C33691F1C23619
:1030800019F18091AA029091AB02FC01E656FA4F29
:10309000208301969093AB028093AA028E509140B8
:1030A000DCF28DE091E09093AB028093AA0220E0E5
:1030B00030E0C901DF91CF9108958091A902882362
:1030C00051F01092A902DDCF0E944D202091AA025A
:1030D0003091AB02C3CF81E08093A90220E030E0C1
:1030E000BDCF1092AB021092AA0220E030E0B6CF22
:1030F000FF920F931F93182F062FF42E0E94C914CE
:10310000802F6F2D0E946C1D1093A8021F910F91AC
:10311000FF9008958091A6029091A702892B09F053
:1031200008950E9425180097D9F320919A05293413
:1031300079F02735B1F0223729F09093A7028093D8
:10314000A602089501979093A7028093A60208957E
:1031500080919B0560919C0540919D050E94781887
:10316000089587E56BE975E040E050E00E94501259
:103170000895CF93DF93EC018091A6029091A7026E
:10318000892B51F080919A05803551F0823441F0BD
:103190001092A7021092A60280E0DF91CF910895CD
:1031A0009091A802988380919B0589839A830E94BD
:1031B0008C1C8B8382E08C8380919A05823441F051
:1031C0008091A60282508E8381E0DF91CF91089595
:1031D00083E08C83F5CFCF93DF93EC018091A6023F
:1031E0009091A702892B21F481E0DF91CF9108957E
:1031F000CE010E94B9189E01295F3F4F4E81ECE934
:10320000F5E0C901BF0150E00E942A211092A702F7
:103210001092A60280E0DF91CF91089581E60E948E
:10322000C21782E60E94C217089581E60E94C21763
:1032300083E60E94C2170895EF92FF920F931F93A7
:10324000CF93DF938C017B0161157105C9F0C0E05C
:10325000D0E008C00E94C2172196CE15DF0580F489
:103260000F5F1F4FF80180818136A1F70E94C217BE
:10327000F80180810E94C2172196CE15DF0580F3E8
:10328000DF91CF911F910F91FF90EF900895CF9311
:10329000DF93EC018881882339F411C021960E94C4
:1032A000C2178881882359F08136C1F70E94C2175E
:1032B000888121960E94C21788818823A9F7DF910F
:1032C000CF9108951F93182F813629F0812F0E94E6
:1032D000C2171F91089581E60E94C217812F0E9494
:1032E000C2171F9108950F931F938C0181E60E94CE
:1032F000C21783E60E94C217C8010E94471981E6DF
:103300000E94C21782E60E94C2171F910F91089572
:103310001F93182F81E60E94C21783E60E94C217EE
:10332000812F0E94621981E60E94C21782E60E94E4
:10333000C2171F9108958091AC028111089589E40C
:103340000E94881981E08093AC020895CF93DF93A7
:10335000EC010E9454208C8182FD35C083FD2EC07B
:103360008E81882321F480E0DF91CF91089581E65A
:103370000E94C21783E60E94C2178C8180FD29C07B
:1033800080E50E94621980E00E94621989810E9492
:10339000621988810E9462196E81CE01079670E0E1
:1033A0000E941C1981E60E94C21782E60E94C21781
:1033B0000E94592080E0DF91CF91089580ED91E047
:1033C0000E947319CDCF8DEC91E00E9473198C810E
:1033D000C5CF82E40E946219D6CF08950E94C61E0E
:1033E00008950E943F1E0895CF93DF93EC018091D2
:1033F000B102882321F08091AE02882391F40E94CB
:103400008C1E079720F480E0DF91CF910895DE01B4
:10341000E5E4FBE087E001900D928150E1F781E067
:10342000F3CF1E828091AD0289830E948C1C888319
:103430000E948C1C8A830E948C1C8B8384E08C836A
:1034400081E0DF91CF9108950F931F93182F092FDB
:103450008091B102882321F08091AE028823D1F4BB
:103460000E948C1E892B21F481E01F910F910895F9
:103470000E948C1EAC0125E43BE0812F902FB90106
:103480000E942A210E946C1E0E946F1E80E01F91E4
:103490000F910895812F0E94F4191092AE0210929C
:1034A000B10280E01F910F910895CF93DF93EC015B
:1034B0009C8191FF09C082E098279C8381E08093E2
:1034C000AE0288818093AD0243E55CE02E8130E05E
:1034D000295F3F4FCA01BE01A9010E942A218E81A6
:1034E00090E007960E94471E80E0DF91CF910895FB
:1034F0000E94A01E0895482F80910002882301F1A8
:10350000E3EDF1E0815090E001969C01220F331F22
:10351000280F391FC901880F991F880F991F280F7D
:10352000391F2E0F3F1F04C03F96E217F30741F0EB
:1035300080818417C9F766873F96E217F307C1F7C2
:103540000895682F90910002992391F08091D30102
:10355000861781F0E2EEF1E021E030E007C0A9013A
:1035600080812F5F3F4F3F96861731F02917B8F3C0
:1035700080E0089540E050E0FA01EE0FFF1FE40FF5
:10358000F51FCF01880F991F880F991FE80FF91FAA
:10359000ED52FE4F86850895682F90910002992381
:1035A00091F08091D301861781F0E2EEF1E021E005
:1035B00030E007C0A90180812F5F3F4F3F968617FB
:1035C00031F02917B8F38FEF089540E050E0FA0189
:1035D000EE0FFF1FE40FF51FCF01880F991F880F13
:1035E000991FE80FF91FED52FE4F858508951F932F
:1035F00040910002442309F110E003C01F5F14173B
:10360000E0F4812F90E09C01220F331F280F391F17
:10361000F901EE0FFF1FEE0FFF1FE20FF31FED5238
:10362000FE4F8685882351F30184F285E02D0995AC
:10363000409100021F5F141720F31F910895982FE7
:103640008E5F823058F160910002662391F0809184
:10365000D301891781F0E2EEF1E021E030E007C00C
:10366000A90180812F5F3F4F3F96891731F02617C0
:10367000B8F380E0089540E050E0CA01880F991F38
:10368000840F951FFC01EE0FFF1FEE0FFF1FE80FC9
:10369000F91FED52FE4F8685882311F481E00895CD
:1036A0000780F085E02D099508951F93CF93DF9350
:1036B000182FEB0190910002992391F08091D30192
:1036C000811799F0E2EEF1E021E030E007C0A901B6
:1036D00080812F5F3F4F3F96811749F02917B8F33C
:1036E00081E0DF91CF911F91089540E050E0FA0111
:1036F000EE0FFF1FE40FF51FCF01880F991F880FF2
:10370000991FE80FF91FED52FE4F0380F481E02D61
:10371000CE0109951D83DF91CF911F910895EF92FE
:10372000FF921F93CF93DF937C01409100024423CB
:1037300019F110E003C01F5F1417F0F4812F90E01F
:103740009C01220F331F280F391FE901CC0FDD1F09
:10375000CC0FDD1FC20FD31FCD52DE4F8E858823C5
:1037600051F3ED81FE81C7010995882361F44091F1
:1037700000021F5F141710F38EEFDF91CF911F919E
:10378000FF90EF9008958881F70185838881DF910C
:10379000CF911F91FF90EF900895A82F9091000274
:1037A000992391F08091D3018A1781F0E2EEF1E044
:1037B00021E030E007C0A90180812F5F3F4F3F9695
:1037C0008A1731F02917B8F381E0089540E050E0FE
:1037D000CA01880F991F840F951FFC01EE0FFF1F70
:1037E000EE0FFF1FE80FF91FED52FE4F868588236D
:1037F00061F30180F281E02DCB01099508950F93CB
:103800001F93CF93DF93082FEB01509100025523B4
:1038100009F454C0E3EDF1E060E05150252F30E0B1
:103820005F5F2F5F3F4FC901880F991F820F931F62
:103830009C01220F331F220F331F280F391F2E0F19
:103840003F1F04C03F96E217F30759F080818017AD
:10385000C9F783858823B1F361E03F96E217F30748
:10386000A9F7662359F110E003C01F5F151700F593
:10387000812F90E09C01220F331F280F391FF9017F
:10388000EE0FFF1FEE0FFF1FE20FF31FED52FE4F73
:103890008081801751F38685882339F30180F28176
:1038A000E02DCE010995509100021F5F151700F31E
:1038B00080E0DF91CF911F910F910895442341F54E
:1038C0005523B1F310E003C01F5F151788F7812F50
:1038D00090E09C01220F331F280F391FF901EE0FD2
:1038E000FF1FEE0FFF1FE20FF31FED52FE4F80810F
:1038F000801751F38485882339F38685882321F343
:103900000180F281E02DCE01099550910002DCCFBB
:10391000552309F0A8CFCCCF8091AF0208958091B4
:10392000B002089520E0FC0193818091AF029817C6
:1039300011F0822F089521E0822F089520E0FC01EC
:1039400091818091B002981711F0822F089521E0A3
:10395000822F0895CF93DF93EC0180910E0285FDB5
:1039600013C08C8180FF27C09D819F3F81F42FEF82
:103970008091AF028A8389818B839F3FA1F0822F40
:10398000BE0140E00E94FF1BDF91CF910895CE0160
:103990000E94861D282F9D818091AF028A83898194
:1039A0008B839F3F61F7822FBE0141E00E94FF1B86
:1039B000DF91CF9108958091AF028A83CE010E945A
:1039C0009E1D8B83CE010E94921DBE010E94CD1BC5
:1039D000DF91CF910895CF93DF93EC010E94D51D25
:1039E0008C8180FD0BC09091AF028981891769F1AC
:1039F0008B81981721F1DF91CF910895CE010E941C
:103A0000AA1C99818091B002981711F0992331F482
:103A1000CE01079660E070E00E9479148C8181FFEE
:103A2000EACF84E08C831E82888189838091AF02F3
:103A30008883CE010E94AA1CDF91CF910895CE0108
:103A40000E94AA1CDF91CF910895BE01695F7F4F4C
:103A5000CB010E947914982F882381F48C8181FFF7
:103A6000CACF84E08C839E83888189838091AF0252
:103A70008A838883CE010E94AA1CBDCF8C8181FFDE
:103A8000F2CFEFCF1F930E94F71A0E94B51D88EA6C
:103A900096E00E948F1B182F8E3F41F088EA96E037
:103AA0000E94921D0E941F1B882311F41F910895EC
:103AB000812F68EA76E00E94551B88EA96E0612F24
:103AC0000E94EB1C1F9108958093AF026093B00297
:103AD0006FEF0E94AA1D08958093AF026093B00219
:103AE0000E94781D8091AF026FEF0E94AA1D089579
:103AF000E5E4F7E09EEF8FEF9083118282831382DB
:103B000034962BE0E534F207B9F70895DC011296FC
:103B1000EC91F0E0EE0FFF1FEE0FFF1FEB5BF84F95
:103B200080810895DC011396EC91F0E0EE0FFF1F09
:103B3000EE0FFF1FEB5BF84F80810895DC011196BB
:103B4000EC91F0E0EE0FFF1FEE0FFF1FEB5BF84F65
:103B500081810895E82FF0E0EE0FFF1FEE0FFF1FA9
:103B6000EB5BF84F6083818308958091010290910F
:103B70000202019790930202809301020196A1F440
:103B800088EE93E09093020280930102E7E4F7E06D
:103B90009FEF8181815081838F5F09F490833496F8
:103BA0008BE0EF33F807A9F70895FF920F931F9367
:103BB000CF93DF93EC01062F1881862F0E94CC1A39
:103BC000F82E0E948C1C811711F01123F1F51A8137
:103BD0000E948C1C181799F1EA81EE2381F1AE2F17
:103BE000B0E0FD01EE0FFF1FEE0FFF1FE95BF84F86
:103BF00080818F1520F1AA0FBB1FAA0FBB1FAB5BE3
:103C0000B84F0C938A81E82FF0E0EE0FFF1FEE0F04
:103C1000FF1FEB5BF84F8183EA81F0E0EE0FFF1F9F
:103C2000EE0FFF1FE95BF84FF082EA81F0E0EE0F44
:103C3000FF1FEE0FFF1FEB5BF84F8CE38383DF91D9
:103C4000CF911F910F91FF900895E12FF0E0DF01D8
:103C5000AA0FBB1FAA0FBB1FA95BB84F8C918F1572
:103C600008F4B5CFEE0FFF1FEE0FFF1FEB5BF84F11
:103C700000838A818183FC928CE38383A8CF809127
:103C8000B50290E0882309F491E0892F08959C0102
:103C90008091B5028823F9F43093BE022093BD02CF
:103CA0008091B2028823B9F481E08093B502309309
:103CB000BE022093BD029FB7F89488E48093C100B0
:103CC000449A459A8091C00080648093C0009FBF51
:103CD0008CE58093C60008951092B30208958091F8
:103CE000B3028823C1F48091B2028823A1F48091A9
:103CF000B502882381F49FB7F89480E98093C100CE
:103D0000449845981092B2021092C0021092BF02DD
:103D10001092B3029FBF08958091BF029091C0029C
:103D2000892B51F08091B302882331F02091BF029A
:103D30003091C002C901089520E030E0C901089522
:103D40009FB7F8941092C50089E08093C40086E084
:103D50008093C200E1ECF0E0808188698083E0EC30
:103D6000F0E080818D7F80839FBF3C9A3D9A1092C6
:103D7000BE021092BD021092C0021092BF021092B9
:103D8000BC021092BB020E946F1E08958091BD027A
:103D90009091BE02892B21F08091B502882359F0C1
:103DA0008091BD029091BE02892B21F48091B302D3
:103DB000882361F008958091B202882389F7809169
:103DC000BD029091BE020E94471EEACF0E946F1E64
:103DD00008951F920F920FB60F9211242F933F93C5
:103DE0004F935F936F937F938F939F93AF93BF9303
:103DF000EF93FF938091B502813009F449C080911F
:103E0000B502823001F18091B502833009F456C0C9
:103E10008091B502843009F455C08091B502853097
:103E200009F459C0FF91EF91BF91AF919F918F918C
:103E30007F916F915F914F913F912F910F900FBEA6
:103E40000F901F9018958091BA02882371F52091E8
:103E5000B8023091B902F901ED5AF34F80818C35E7
:103E600009F447C080818093C6002F5F3F4F309395
:103E7000B9022093B8028091BD029091BE0228172A
:103E8000390781F68091B5028F5F8093B502CACF62
:103E900080E38093C6008091B5028F5F8093B50266
:103EA0001092B9021092B802BDCF8093C600109252
:103EB000BA022091B8023091B902D7CF8CE5809335
:103EC000C600E0CF81E38093C6008091B5028F5F8A
:103ED0008093B502A7CF1092B50281E08093B4021F
:103EE0001092BE021092BD028093B1020E946F1E1A
:103EF00099CF8093C6008093BA0294CF1F920F92FD
:103F00000FB60F9211242F933F938F939F93EF93AC
:103F1000FF938091C00083FD1DC08091C00084FD8F
:103F200019C02091C60031E03093B2022C35A9F1BE
:103F30008091B7028823D9F48091BF029091C0028A
:103F4000FC01EB5BF44F208301969093C0028093B9
:103F5000BF0202C08091C600FF91EF919F918F91A7
:103F60003F912F910F900FBE0F901F9018951092B8
:103F7000B7022033E1F02133F9F61092B2028091BA
:103F8000BF029091C002892B11F03093B3028FB71A
:103F9000F8941092C1008FBFDFCF8091B7028823C1
:103FA00019F01092B702C8CF3093B702D5CF309333
:103FB000B6021092C0021092BF02CECFCF93DF9311
:103FC0000E94C61E0E941818EC010097C9F40E94B6
:103FD0008C1EEC01009789F083E092E00E94D817D4
:103FE00085E49BE0BE010E941C1987E092E00E94DC
:103FF000D8170E946C1E0E946F1EDF91CF9108950A
:104000000E943F1E882319F30E941D18BC0123E55E
:104010003CE0C901AE010E942A21CE010E94471E48
:104020000E942018D4CF1F93182F0E9452208091F5
:104030007C00807F80937C0080917C00812B80932A
:104040007C0080917A00806480937A0080917A006D
:1040500086FDFCCF0E94532020917800309179009A
:10406000C9011F91089580EC80937C0087EC8093B8
:104070007A0086E00E94132086E00E94132086E0EA
:104080000E94132008950F9A0D9A0C9A159A08957C
:104090008FB7F894159A8FBF08958FB7F894159835
:1040A0008FBF0895089508958FB7F894149A8FBF1D
:1040B00008958FB7F89414988FBF08959FB7F89418
:1040C00082B1805882B99FBF089597FB092E0726B9
:1040D0000AD077FD04D049D006D000201AF470959C
:1040E00061957F4F0895F6F7909581959F4F0895BC
:1040F000A1E21A2EAA1BBB1BFD010DC0AA1FBB1FEC
:10410000EE1FFF1FA217B307E407F50720F0A21B5D
:10411000B30BE40BF50B661F771F881F991F1A94CA
:1041200069F760957095809590959B01AC01BD01F4
:10413000CF01089597FB092E05260ED057FD04D018
:10414000D7DF0AD0001C38F4509540953095219562
:104150003F4F4F4F5F4F0895F6F7909580957095BC
:1041600061957F4F8F4F9F4F0895AA1BBB1B51E155
:1041700007C0AA1FBB1FA617B70710F0A61BB70BD7
:10418000881F991F5A95A9F780959095BC01CD017C
:104190000895A0E0B0E0EFECF0E20C943424EC01E0
:1041A000A880B980CA80DB80A114B104C104D10405
:1041B00041F484E2A82E89EDB82E8BE5C82E87E065
:1041C000D82EC601B5012DE133EF41E050E00E9449
:1041D0009A2027EA31E440E050E00E940D247B0160
:1041E0008C01C601B5012DE133EF41E050E00E94A2
:1041F0009A20CA01B9012CEE34EF4FEF5FEF0E9415
:104200000D246E0D7F1D801F911F97FF04C061500C
:10421000704080409048688379838A839B839B01A8
:10422000AC015F77B901CA01CDB7DEB7EAE00C9403
:1042300050240E94C92008958AE092E00E94C9207B
:10424000089560930A0270930B0280930C0290937E
:104250000D020895FB01DC0102C001900D92415056
:104260005040D8F70895FB01DC018D910190801931
:104270000110D9F3990B0895AEE0B0E0E2E4F1E269
:104280000C943A240D891E8986E08C831A83098355
:104290008FEF9FE79E838D839E01275E3F4FCE0168
:1042A00001966F89788DA9010E9460212F81388540
:1042B000020F131FF80110822E96E4E00C9456248E
:1042C000ABE0B0E0E6E6F1E20C942C243C012B01DB
:1042D0005A01FC0117821682838181FD03C06FEFB2
:1042E0007FEFC6C19AE0892E1E010894211C311C63
:1042F000F3012381F20123FD859123FF81912F0199
:10430000882309F4B2C1853239F423FD859123FF56
:1043100081912F01853229F490E0B3010E9483231B
:10432000E7CF982FFF24EE249924FFE1FF15D0F06A
:104330009B3269F09C3228F4903259F0933291F418
:104340000EC09D3249F0903369F441E024C052E040
:10435000F52A84E0F82A28C098E0F92A25C0E0E18F
:10436000FE2A22C0F7FC29C0892F80538A3070F4BE
:10437000F6FE05C0989C902C1124980E15C0E89C60
:10438000E02C1124E80EF0E2FF2A0EC09E3229F440
:10439000F6FC6BC140E4F42A07C09C3619F450E8DF
:1043A000F52A02C0983649F4F20123FD959123FFC6
:1043B00091912F01992309F0B8CF892F855483302B
:1043C00018F08052833038F444E050E0A40EB51E5B
:1043D0005FE359830FC0933631F0933779F093350B
:1043E00009F056C020C0F5018081898342E050E089
:1043F000A40EB51E610101E010E012C0F501C080FD
:10440000D180F6FC03C06FEF7FEF02C0692D70E032
:1044100042E050E0A40EB51EC6010E9478238C0134
:104420005FE7F52214C0F501C080D180F6FC03C01F
:104430006FEF7FEF02C0692D70E042E050E0A40E04
:10444000B51EC6010E946D238C0150E8F52AF3FECB
:1044500007C01AC080E290E0B3010E948323EA946F
:104460008E2D90E008171907A8F30EC0F601F7FC8F
:104470008591F7FE81916F0190E0B3010E94832343
:10448000E110EA94015010400115110579F7EAC0D6
:10449000943611F0993669F5F7FE08C0F5012081D0
:1044A00031814281538184E090E00AC0F50180812E
:1044B00091819C01442737FD4095542F82E090E084
:1044C000A80EB91E9FE6F92257FF09C050954095E6
:1044D000309521953F4F4F4F5F4FE0E8FE2ACA01CC
:1044E000B901A1012AE030E00E94AF23D82ED218F2
:1044F00040C0953729F41F2D1F7E2AE030E01DC0F3
:104500001F2D197F9F3661F0903720F4983509F000
:10451000ACC00FC0903739F0983709F0A6C004C07E
:1045200028E030E00AC0106114FD146020E130E0A2
:1045300004C014FD166020E132E017FF08C0F50149
:10454000608171818281938144E050E008C0F5016F
:1045500080819181BC0180E090E042E050E0A40EB7
:10456000B51EA1010E94AF23D82ED2188FE7F82ED6
:10457000F122F6FE0BC05EEFF522D91438F4F4FEFA
:1045800007C0F2FC05C08FEEF82202C01D2D01C04D
:10459000192DF4FE0DC0FE01ED0DF11D808180335B
:1045A00019F499EEF92208C01F5FF2FE05C003C09E
:1045B0008F2D867809F01F5F0F2DF3FC14C0F0FEDD
:1045C0000FC01E1510F09D2C0BC09D2C9E0C911A37
:1045D0001E2D06C080E290E0B3010E9483231F5F7E
:1045E0001E15C0F304C01E1510F4E11A01C0EE241C
:1045F00004FF0FC080E390E0B3010E94832302FF19
:104600001DC001FD03C088E790E00EC088E590E082
:104610000BC0802F867891F001FF02C08BE201C0B1
:1046200080E2F7FC8DE290E0B3010E94832306C094
:1046300080E390E0B3010E9483239A94D914C0F3DD
:10464000DA94F101ED0DF11D808190E0B3010E943B
:104650008323DD20A9F706C080E290E0B3010E9429
:104660008323EA94EE20C1F743CEF301668177817C
:10467000CB012B96E2E10C944824DC01CB01FC0138
:10468000F999FECF06C0F2BDE1BDF89A319600B4AB
:104690000D9241505040B8F70895F999FECF92BD60
:1046A00081BDF89A992780B50895DC01CB0103C03C
:1046B0002D910E94602341505040D0F70895262F3D
:1046C000F999FECF1FBA92BD81BD20BD0FB6F894F7
:1046D000FA9AF99A0FBE01960895FC01059061506F
:1046E00070400110D8F7809590958E0F9F1F089508
:1046F000FC016150704001900110D8F780959095B1
:104700008E0F9F1F08950F931F93CF93DF938C01FC
:10471000EB018B8181FF1BC082FF0DC02E813F8189
:104720008C819D812817390764F4E881F981019310
:10473000F983E88306C0E885F985802F0995892BE0
:1047400031F48E819F8101969F838E8302C00FEF8B
:104750001FEFC801DF91CF911F910F910895FA01CA
:10476000AA27283051F1203181F1E8946F936E7FB0
:104770006E5F7F4F8F4F9F4FAF4FB1E03ED0B4E0A1
:104780003CD0670F781F891F9A1FA11D680F791FE2
:104790008A1F911DA11D6A0F711D811D911DA11DF3
:1047A00020D009F468943F912AE0269F1124301903
:1047B000305D3193DEF6CF010895462F4770405D9E
:1047C0004193B3E00FD0C9F7F6CF462F4F70405D4D
:1047D0004A3318F0495D31FD4052419302D0A9F7A8
:1047E000EACFB4E0A6959795879577956795BA95A2
:1047F000C9F700976105710508959B01AC010A2E68
:1048000006945795479537952795BA95C9F7620F3E
:10481000731F841F951FA01D0895629FD001739F71
:10482000F001829FE00DF11D649FE00DF11D929F4C
:10483000F00D839FF00D749FF00D659FF00D99278B
:10484000729FB00DE11DF91F639FB00DE11DF91FAF
:10485000BD01CF01112408952F923F924F925F9294
:104860006F927F928F929F92AF92BF92CF92DF9280
:10487000EF92FF920F931F93CF93DF93CDB7DEB7E5
:10488000CA1BDB0B0FB6F894DEBF0FBECDBF099479
:104890002A88398848885F846E847D848C849B84D0
:1048A000AA84B984C884DF80EE80FD800C811B81DE
:1048B000AA81B981CE0FD11D0FB6F894DEBF0FBE0D
:0A48C000CDBFED010895F894FFCF7D
:1048CA000000000200000000460300000000000192
:1048DA000247097707570863087B089E0804093FBF
:1048EA0009450902616344524300616200060700F8
:1048FA0000000000000000020103030500000000A0
:10490A00000000000000000000000000000000009D
:10491A00000000000003040601000000000000007F
:10492A00000000000000000000000000000000007D
:10493A000000006E65776C616D702E6C6F63616C40
:10494A0000CD070105443D536570202037203230E1
:10495A00303920483D256400563D257500BE06A421
:10496A0002BE06CC02BE063003BE064C03BE067863
:10497A0003BE06A403BE06C003BE060404BE062088
:10498A0004563D2575009001E80301E803534400ED
:10499A0053540001A619EB18B91815189B190101EF
:1049AA000A0102551A241AF419F119EE1900001411
:1049BA00010314109D1060100A10881100001E01D6
:0E49CA0003E803616352006162000100000017
:00000001FF
