:100000000C9436020C9453020C9453020C94E40AA0
:100010000C9453020C9453020C9453020C9453020C
:100020000C9453020C9453020C9453020C945302FC
:100030000C9453020C941A040C94B1040C945302C3
:100040000C9453020C9453020C94F5070C94530235
:100050000C94D31C0C9453020C94401C0C9453022B
:100060000C9453020C9453020C9453020C945302BC
:100070000C9442150C946D150C9453020200080068
:1000800012001F003100470060007E009F00C50085
:10009000EE001B014D018201BB01F80139027E0215
:1000A000C70213036403B90311046E04CE043305BD
:1000B0009B0507067706EC066407E0076008E4087E
:1000C0006B09F709870A1A0BB20B4E0CED0C900D59
:1000D000380EE30E920F4510FC10B711761239134B
:1000E0000014CB1499156C1643171D18FC18DE1953
:1000F000C41AAF1B9D1C8F1D851E7F1F7D207F2175
:1001000084228E239C24AE25C326DD27FA281B2AB1
:10011000412B6A2C972DC82EFD2F36317332B43304
:10012000F93442368E37DF38333A8C3BE83C493E6F
:10013000AD3F15418142F1436545DD465948D949F6
:100140005D4BE54C704E005094512B53C65466568F
:100150000958B0595B5B0B5DBE5E75602F62EE6344
:10016000B16578674269116BE46CBA6E9470737212
:1001700055743B762578137A067CFB7DF57FF381F9
:10018000F583FB850488128A238C398E52907092F5
:100190009194B696DF980C9B3D9D729FABA1E8A30E
:1001A00029A66DA8B6AA03AD53AFA8B100B45CB63A
:1001B000BDB821BB89BDF5BF65C2D9C451C7CDC982
:1001C0004CCCD0CE58D1E3D373D606D99EDB39DEE2
:1001D000D8E07BE322E6CEE87DEB2FEEE6F0A1F35C
:1001E00060F623F9E901B4048207550A2B0D0510C6
:1001F000E412C615AC18961B841E76216C24652764
:10020000632A652D6A30743382369339A83CC23F25
:10021000DF42004625494E4C7B4FAC52E1551A59FE
:10022000565C975FDC6224667169C16C15706E73F1
:10023000CA762A7A8E7DF6806284D287468BBE8EFD
:100240003992B9953D99C49C50A0DFA372A70AAB1F
:10025000A5AE44B2E7B58EB939BDE8C09BC452C85B
:100260000CCCCBCF8ED354D71FDBEDDEBFE296E6AE
:1002700070EA4EEE30F216F610FF00026007000042
:100280001000040011FF04006007000011000400CA
:1002900012FF0400600700001200040010FF0400B9
:1002A00030F7000040000000400100004002000064
:1002B000507D000011FF000F6002000011000001DE
:1002C0006002000030FC0000800000004000FF00E1
:1002D0004001000040020000507D0000400000008E
:1002E0004001FF0040020000507D0000400000007F
:1002F000400100004002FF00507D000040008000EF
:100300004001000040020000507D0000400000005D
:100310004001800040020000507D000040000000CD
:100320004001000040028000507D000030E80000E5
:1003300000002202600700000001220260070000A6
:10034000000222026007000030FA000010FF0002E5
:10035000600700001000040011FF040060070000A7
:100360001100040012FF04006007000012000400E6
:1003700010FF040030F700004000000040010000C2
:100380004002000010FF0002600500001000400065
:1003900012FF4000600500001200400010FF400006
:1003A00030FA0000400000004002000040019600CA
:1003B000507D000040010000507D000030FC000036
:1003C00040000000400100004002000012FF004019
:1003D00060040000500200001200004060040000B1
:1003E0005006000012FF00406004000050020000B0
:1003F00012000040600400005032000030F40000A1
:100400008000000040010000400200004000960013
:10041000507D000040000000507D000030FC0000D6
:1004200040000000400100004002000010A0100049
:1004300011A0090012A008006007000010002000B1
:1004400011002000120020006007000030F80000BA
:10045000400100004002000040009600507D000076
:1004600040000000507D000030FC000011241FBE41
:10047000CFEFD0E1DEBFCDBF12E0A0E0B1E0EAE710
:10048000F5E402C005900D92A430B107D9F71DE044
:10049000A4E0B2E001C01D92AF35B107E1F70E94C0
:1004A000C01D0C94BB220C9400000E94CC1580E06F
:1004B00090E00895FFCF89E080938100EFE6F0E0BF
:1004C00080818660808380E09AEF9093890080939A
:1004D000880088EE9DEF90938B0080938A000895AA
:1004E000EF92FF920F931F93CF93DF9300D01F9251
:1004F000CDB7DEB7198281E08A8382E08B8380E00A
:1005000090E05091FA029C01220F331F220F331FFB
:10051000220F331FF901EE51FD4F4181442309F4AD
:1005200095C04F3F09F4DCC0459FA0011124452F21
:10053000F901EE51FD4F428301968330910509F791
:10054000DE011196CD0140E04F5F433009F09CC0C1
:100550009E012C5F3F4F70E010E060E048EE5DEFE1
:100560000FEF8D9190E0880F991F880F991F880FCA
:10057000991FFC01EE51FD4FF280FF2051F1F280F6
:10058000EE24EA94FE1429F1753B20F4E281E53B68
:1005900008F06CC0FC01EE51FD4F8281781708F025
:1005A00057C08681182B7281862F90E0E281F0E09F
:1005B000EE0FFF1FE658FF4FE590F490FC01EE0FA1
:1005C000FF1FE80FF91FEE52FD4FE182F282108308
:1005D0006F5FA217B30729F6753B80F4862F90E072
:1005E000FC01EE0FFF1FE80FF91FEE52FD4F88EEE2
:1005F0009DEF928381838FEF80836F5F1092DE0285
:100600006093DF021092E00280E090E03FEFFC0197
:10061000EE0FFF1FEE0FFF1FEE0FFF1FEE51FD4FFE
:100620002281222319F026812095322301968330DE
:10063000910569F73093E1020F900F900F90DF91D1
:10064000CF911F910F91FF90EF90089540E070CFF0
:100650008681182B862F90E00197FC01EE0FFF1F7B
:10066000E80FF91FEE52FD4F1083B3CFE62EF12CA9
:10067000F701EE0FFF1FEE0DFF1DEE52FD4F5283EF
:10068000418300836F5F86CF542F21E030E02C0F31
:100690003D1F250F311DF9017081E72FF0E0EE0FAE
:1006A000FF1FEE0FFF1FEE0FFF1FEE51FD4F1281D8
:1006B000FC016081E62FF0E0EE0FFF1FEE0FFF1F41
:1006C000EE0FFF1FEE51FD4FE2811E1720F4FC01DB
:1006D0007083F90160835F5F5330B9F6019634CFC0
:1006E0005F3F09F021CF4FEF23CF89E08093810056
:1006F00080916F00866080936F0080E09AEF909306
:1007000089008093880088EE9DEF90938B00809302
:100710008A008FEF8093FA021092FC0280E090E052
:1007200060E071E041E050E0DC01AA0FBB1FAA0FBE
:10073000BB1FAA0FBB1FFD01EE51FD4F118213829B
:1007400075836483A751BD4F2C912E7F2C9310820B
:100750009A01082E01C0220F0A94EAF72683019617
:100760008330910509F70E94700282B1887F82B9B7
:1007700081B1876081B9089580E090E09C01220FEB
:10078000331F220F331F220F331FF901EE51FD4F8C
:10079000518143815417D9F0A1815181438154176C
:1007A000D8F46081718144815581460F571F518370
:1007B000408341814A17F8F0518143814517D8F0B1
:1007C000F901EE51FD4F51814381541709F1019612
:1007D0008330910599F6089551814381451780F73B
:1007E0004081518164817581461B570B5183408341
:1007F0004181A417A0F4F901EE51FD4F43814183DB
:100800001082F901EE51FD4F518143815413DFCF26
:10081000F901E751FD4F208121602083D8CF51811C
:100820004381541768F6F901EE51FD4F438141832E
:100830001082E7CF1F920F920FB60F9211242F93C1
:100840003F934F935F936F937F938F939F93AF9358
:10085000BF93EF93FF938091E00281116FC082B14B
:10086000887F82B992B18091E10280958770892B4F
:1008700082B98091840090918500A091DE024A2F78
:1008800050E0BA01660F771FFB01E40FF51FEE522F
:10089000FD4F218132818053984F28173907D0F4BA
:1008A000809184009091850082179307C8F392B1DC
:1008B000FB01E40FF51FEE52FD4F8081877080959C
:1008C000892382B9AF5FA093DE028091840090916A
:1008D0008500D5CF809106028160809306028091C9
:1008E00006028460809306028091DF02A81748F513
:1008F0008A2F90E0FC01EE0FFF1FE80FF91FEE5268
:10090000FD4F8181928190938B0080938A0080813A
:100910008093E002AF5FA093DE02FF91EF91BF9161
:10092000AF919F918F917F916F915F914F913F9187
:100930002F910F900FBE0F901F901895A091DE027F
:10094000CECF1092DE028091060282608093060272
:1009500088EE9DEF90938B0080938A000E94700236
:10096000DCCF1F920F920FB60F9211242F933F935B
:100970004F935F936F937F938F939F93AF93BF93A7
:10098000EF93FF9392B18091E00287708095892365
:1009900082B92091DE028091DF02281730F5822F84
:1009A00090E0FC01EE0FFF1FE80FF91FEE52FD4F24
:1009B0008181928190938B0080938A0080818093C3
:1009C000E0022F5F2093DE02FF91EF91BF91AF9184
:1009D0009F918F917F916F915F914F913F912F9157
:1009E0000F900FBE0F901F9018951092DE0280910D
:1009F000060282608093060288EE9DEF90938B0042
:100A000080938A000E947002DFCFFC012281338133
:100A10004581542F5770852F90E082239323892B93
:100A2000F9F020952523487F422B45838589815005
:100A3000858B90E0DC01AA0FBB1FAA0FBB1FA80F7C
:100A4000B91FAE0FBF1F16968D919C91179791837A
:100A5000808318968D919C91199793838283148239
:100A60000895FC01938180E02281820F911DA08175
:100A7000B0E0AE51BD4F5B968C93DB0156962C9146
:100A800027FD0CC02223A9F002C0880F991F2A95C8
:100A9000E2F7009771F49FEF2FEF0CC033272195F9
:100AA0000CF4309502C0969587952A95E2F7009749
:100AB00039F1282FA081B0E08181AA0FBB1FAA0FB6
:100AC000BB1FAA0FBB1FAE51BD4F13968C93A081C5
:100AD000B0E0AA0FBB1FAA0FBB1FAA0FBB1FAE51CE
:100AE000BD4F14962C93E081F0E0EE0FFF1FEE0F48
:100AF000FF1FEE0FFF1FEE51FD4F958380E008951D
:100B000090E021E0D7CFFC0181818093E5028281D2
:100B10008093ED0283818093F50280E00895FC01CB
:100B20008181992787FD909597FD01979C01220F60
:100B3000331F220F331FFB0182819381820F931F8A
:100B40009383828380E00895DC011196EC911197E4
:100B5000F0E012968C911297EE0FFF1FEE0FFF1F21
:100B6000EE0FFF1FEE51FD4F81831196EC9111970F
:100B7000F0E012968C91EE0FFF1FEE0FFF1FEE0FAD
:100B8000FF1FEE51FD4F838380E00895FB01DC01E0
:100B900012963C91129720E011968C91A901480F72
:100BA000511DCA01508F478B268927FD2DC0222356
:100BB00049F002C0969587952A95E2F7009711F4BF
:100BC00081E090E04589242F30E0D901AA0FBB1FB6
:100BD000AA0FBB1FA20FB31FAE0FBF1F2081318111
:100BE00017963C932E9316972281338119963C9346
:100BF0002E93189728E736E03183208393838283EE
:100C00004F5F458B81E00895332721950CF4309593
:100C100002C0880F991F2A95E2F7009799F68FEF87
:100C20009FEFD0CFFB014589242F30E0D901AA0FD7
:100C3000BB1FAA0FBB1FA20FB31FAE0FBF1F208188
:100C4000318117963C932E93169722813381199602
:100C50003C932E93189725E035E031832083DC0107
:100C600011968C91828313824F5F458B81E00895AA
:100C7000FB018581887F858380E0089582E0089567
:100C80000F931F93CF93DF93EC0109810E94801F84
:100C90008A81860F09F481E010E0000F111F000F18
:100CA000111F000F111FF801EE51FD4F84830E94A8
:100CB000801F8B81861718F466958617E8F3E80184
:100CC000CE51DD4F6D830E94801F8B81681306C05B
:100CD00023960E94801F88818617D9F3F801EE5170
:100CE000FD4F638380E0DF91CF911F910F910895B5
:100CF000FC0182819381019793838283892BD1F4B4
:100D000085898150858B90E0DC01AA0FBB1FAA0F5B
:100D1000BB1FA80FB91FAE0FBF1F16968D919C91D8
:100D200017979183808318968D919C91199793833F
:100D30008283148208951092BA021092B90210921E
:100D4000BC021092BB02EEEBF2E08081887F8860EB
:100D500080831092CE021092CF02089580E090E03E
:100D600050E09C01220F331F220F331F220F331F2D
:100D7000F901E751FD4F408140FF09C0D901AE5153
:100D8000BD4F16962C91522B20812E7F20830196E9
:100D90008330910531F78091BE02582B5770887FC0
:100DA000852B8093BE0283FD0895E091B902F091F6
:100DB000BA0289EB92E009940F931F93CF93DF93CC
:100DC00000D000D0CDB7DEB78C01F801228133818D
:100DD000F9018491F8018483982F9F709983F90118
:100DE0003196E491EA83F9013296E491EB83F901BB
:100DF0003396E491EC832C5F3F4FF80133832283D9
:100E000082958F70E82FF0E0EE0FFF1FE25FFE4F3C
:100E10000190F081E02DB801CE0101960995823054
:100E200059F0813091F60F900F900F900F90DF9155
:100E3000CF911F910F910895F80185818860858376
:100E4000F2CF9F92AF92BF92CF92DF92EF92FF923A
:100E50000F931F93CF93DF9300D000D0CDB7DEB7B1
:100E60006C01F5E0AF2EB12CAC0EBD1EF6018281F7
:100E700093818C010F5F1F4F138302830E94B12166
:100E8000F6018483982F9F709983982E92947FE027
:100E90009722E2E0EE2EF12CEC0EFD1EC8010F5F52
:100EA0001F4FF601138302830E94B121F701819342
:100EB0007F01EA15FB0591F7E92DF0E0EE0FFF1F2A
:100EC000E25FFE4F0190F081E02DB601CE01019668
:100ED0000995823091F0813049F60F900F900F9074
:100EE0000F90DF91CF911F910F91FF90EF90DF90C6
:100EF000CF90BF90AF909F900895F6018581886054
:100F00008583EBCF81E00895DC0114968C911497D2
:100F1000807F803509F442C040E050E0FA01EE5194
:100F2000FD4F938D292F30E056968C91569787FD73
:100F300021C0882361F002C0220F331F8A95E2F797
:100F40002115310519F58FEF9FEF2FEF3FEFFA01D4
:100F5000EE0FFF1FEE0FFF1FEE0FFF1FEE51FD4FB5
:100F600094838583358324834F5F5F4F43305105DE
:100F7000A9F60895992781950CF4909502C03695AD
:100F800027958A95E2F72115310519F0922F832FC5
:100F9000DECF80E091E021E030E0D9CF57968D910F
:100FA0009C91589756962C91569727FD10C0222356
:100FB00049F002C0969587952A95E2F7009711F4BB
:100FC00081E090E013969C938E93129708953327B7
:100FD00021950CF4309502C0880F991F2A95E2F7ED
:100FE000009781F78FEF9FEFEDCF78941F920F92CC
:100FF0000FB60F9211242F933F934F935F936F93EC
:101000007F938F939F93809103039091040320918A
:101010000902253109F45BC0209109022E3109F43F
:101020005AC040E050E020E03EEF36BD6091020340
:101030006F5F609302036E3450F096FD45C095FFDC
:1010400043C0909301038093000380E090E070918F
:101050000503272730E0042E02C0359527950A9412
:10106000E2F720FF12C07095709305036A3118F5FE
:1010700080E090E0272F30E002C0359527954A9513
:10108000E2F720FF816010920203909304038093A3
:10109000030380910A028F5F80930A029F918F91D0
:1010A0007F916F915F914F913F912F910F900FBE64
:1010B0000F901F9018950097E9F2643330F396FD76
:1010C000D9CF880F991FD6CF80E090E0C0CF29B14B
:1010D00046E050E0A9CF23B141E050E0A5CF009712
:1010E000B1F0892F992786958695869581709927E5
:1010F00020910B022F5F20930B02309120013817B3
:1011000041F010920B028093200181E0089580E06D
:1011100008952A3039F02B30D1F78AE080930B0202
:1011200081E0089581E0089584E085BD80916E009E
:10113000816080936E0080910902853139F0809141
:1011400009028E3109F00895299A08955E9A08954A
:10115000EF92FF920F931F93CF93DF931F92CDB720
:10116000DEB7F8940091000310910103109201037F
:10117000109200037894C8010E946F08811109C081
:1011800081E00F90DF91CF911F910F91FF90EF9031
:10119000089578010E2CEF2C000CEE1CFF08000CBB
:1011A000EE1CFF1C8FE1E822FF249801209530956A
:1011B000220F232F221F330B207433270F73112785
:1011C000022B09838AEC91E00E94E1158E2D0E948A
:1011D000CC1589810E94CC1580ED91E00E94E1152B
:1011E00085E0E812CDCF80910702813009F44AC032
:1011F0008981833109F461C0823109F467C080328A
:1012000009F476C0813209F47CC08C3009F482C0C4
:10121000982F9150993008F445C0803109F48CC062
:10122000813109F492C0803321F1873391F18F30FD
:1012300009F494C08E3009F452C08C3209F44FC0C6
:10124000982F9E52923008F49BC08C3309F46BC0E7
:10125000853209F468C0843109F49BC0853109F4F2
:10126000A1C08F3309F4A7C08B3209F480C080E09D
:1012700088CF40E050E060E070E087E10E94E40F3A
:1012800080E07FCF89818C3009F444C0873309F036
:1012900077CF40E050E060E070E088E10E94E40F2A
:1012A00080E06FCF998340E050E0BE016F5F7F4FD9
:1012B00081E20E94E40F80E064CF40E050E060E013
:1012C00070E082E10E94E40F80E05BCF40E050E0FC
:1012D00060E070E081E10E94E40F80E052CF40E0E6
:1012E00050E060E070E08CE10E94E40F80E049CFC4
:1012F00040E050E060E070E085E10E94E40F80E0B3
:1013000040CF40E050E060E070E086E10E94E40FF2
:1013100080E037CF40E050E060E070E080E10E9484
:10132000E40F80E02ECF40E050E060E070E08EE11E
:101330000E94E40F80E025CF40E050E060E070E0E4
:1013400083E10E94E40F80E01CCF40E050E060E0C9
:1013500070E084E10E94E40F80E013CF40E050E0B1
:1013600060E070E089E10E94E40F80E00ACF40E095
:1013700050E060E070E080E20E94E40F80E001CF86
:1013800040E050E060E070E08DE10E94E40F80E01A
:10139000F8CE40E050E060E070E08AE10E94E40FA7
:1013A00080E0EFCE40E050E060E070E08BE10E9432
:1013B000E40F80E0E6CE40E050E060E070E08FE1D6
:1013C0000E94E40F80E0DDCE6091670170916801BA
:1013D00042E350E00C94A121BC0186E093E00E941E
:1013E000971F9C0181E0232B09F080E00895FC0108
:1013F00001900020E9F73197E81BF90BE33350F037
:10140000FC0111AA42E350E060916701709168010C
:101410000C94B921AF0155274F5F5F4F6091670171
:10142000709168010C94B9211092430342E050E09E
:101430006BE470E082E493E00E94B9214EE150E059
:101440006DE270E082EE92E00E94B92149E150E045
:1014500064E170E089EB92E00E94B92140E150E044
:1014600064E070E082ED92E00E94B92144E050E037
:1014700060E070E086E092E00C94B92142E050E038
:101480006BE470E082E493E00E94A1218091430329
:101490008823B1F18FEF8093FA021092CF028CED86
:1014A00096E09093BA028093B90288E792E0909315
:1014B000BC028093BB028091BE02877F8093BE02F4
:1014C0008AEF8093E3028093E502809106028860B0
:1014D0008093060210920702809106028F7D80930E
:1014E0000602609167017091680142E350E086E076
:1014F00093E00E94A121809106038F3F11F108958E
:101500004EE150E06DE270E082EE92E00E94A12197
:1015100049E150E064E170E089EB92E00E94A12192
:1015200040E150E064E070E082ED92E00E94A12191
:1015300044E050E060E070E086E092E00E94A1218B
:10154000D0CF8EE0E3EDF1E0A6E0B3E001900D92A4
:101550008A95E1F7609167017091680142E350E07C
:1015600086E093E00C94B9219C01962F80E068E01E
:1015700004C0880F991F615079F0AC0142275327AE
:10158000220F331F57FFF5CF41E2242740E13427D4
:10159000880F991F615089F7C901089582E58CBDB4
:1015A0000895EA982C989EBD0DB407FEFDCF9EB518
:1015B000392F20E08EBD0DB407FEFDCF8EB52C9ADD
:1015C000EA9A282BC901089578941F920F920FB6BA
:1015D0000F9211242F933F934F935F936F937F93B9
:1015E0008F939F93AF93BF93EF93FF9380914403A7
:1015F00080FF2BC080910C028436E8F188E092E8ED
:101600000E94D10A0E94A81D809144038E7F80937E
:10161000440320910C028091450390E0029630E053
:10162000821793070CF43FC0FF91EF91BF91AF91E8
:101630009F918F917F916F915F914F913F912F91EA
:101640000F900FBE0F901F90189581FFEDCFE09186
:101650000C02F0E0EB5BFC4F808190E0986B0E9405
:10166000D10A80910C02882359F180910C0281509B
:1016700080930C02D9CF0E94A31D80E090EB0E94C2
:10168000D10A90910C02911103C0853608F084E6CE
:1016900090910C02E92FF0E0EB5BFC4F80839F5FA1
:1016A00090930C02B6CF88E092E80E94D10A0E9483
:1016B000A81D809144038E7F846080934403B4CF3F
:1016C000809144038D7F8093440388E092E80E94D8
:1016D000D10A0E94B41DA8CFCF93DF9300D000D0D1
:1016E000CDB7DEB784B1806B84B926982C9A2E9A38
:1016F00082E58CBD2B9A2B9819821A821B821C8240
:1017000089819A81AB81BC81803A9B4BAD40B10508
:10171000A0F489819A81AB81BC810196A11DB11D84
:1017200089839A83AB83BC8389819A81AB81BC8195
:10173000803A9B4BAD40B10560F32B9A84E6EFEF06
:10174000F3EB3197F1F700C000008150C1F780EE54
:1017500090EC0E94D10A87ED90E80E94D10A8BEAB2
:1017600092EC0E94D10A81E89AEC0E94D10A80E0B2
:1017700090EE0E94D10A80E098EC0E94D10A87EF97
:1017800094EC0E94D10A80E090E00E94D10A8091FE
:1017900044038C7F8B7F8093440322982A9A809104
:1017A0006900806280936900EA9A0F900F900F9011
:1017B0000F90DF91CF910895477050E054696370A6
:1017C00070E0660F771F660F771F660F771F20E2A6
:1017D000829FC00111249927682B792BCA01862B7F
:1017E000972B0C94D10A8036910550F080342FE06D
:1017F000920718F4906A0C94D10A8FE39FE0FACF15
:1018000080E690EA0C94D10A873922E0920708F129
:10181000883125E1920770F09C0140E050E06CEFC8
:1018200072E485E090E00E94DE1EC9010197966C8B
:101830000C94D10A9C0140E050E060E678EA80E038
:1018400090E00E94001FC90101978068966C0C947B
:10185000D10A0895877090E0986920E1629FB001F5
:1018600011247727862B972B0C94D10A809144035F
:1018700082FD08C081FF02C082E0089580FF04C09D
:1018800083E0089581E0089588EC92E80E94D10AEF
:1018900081E89AEC0E94D10A83E89AEC0E94D10A6E
:1018A00010920C028091440381608093440380E095
:1018B00008951F93CF93DF932091440320FF06C028
:1018C0002FEF822FDF91CF911F91089522FD06C047
:1018D0002EEF822FDF91CF911F9108952B7F2093C0
:1018E000440320916901109145032223B9F1E12FAE
:1018F000F0E0612FB0E020E030E0562F40E0A8E0BB
:1019000004C0440F551FA15079F0B9016427752711
:10191000220F331F77FFF5CF61E2262760E13627DC
:10192000440F551FA15089F7BF5F6B2F70E0E6177A
:10193000F7072CF0EB01CB5BDC4F6881DECFFB01BE
:10194000EB5BFC4F6081BF5FEB2FF0E0EB5BFC4F8C
:10195000508140E0462B4217530799F4112389F038
:1019600040E0242F30E0F901EB5BFC4F5181FC019A
:10197000E20FF31F50834F5F20914503421788F316
:10198000A0CF20E09ECFEF92FF920F931F93CF93B3
:10199000DF9300D01F92CDB7DEB769838A839B8324
:1019A0000E94AF1D2091440369818A819B8121FFA0
:1019B0000BC082E00F900F900F90DF91CF911F919D
:1019C0000F91FF90EF900895653610F084E0F2CF0C
:1019D000226020934403262F275F20930C0200915E
:1019E0000C02E02FF0E0EB5BFC4F2AEA2083102F83
:1019F0001150E12FF0E0EB5BFC4F20831150E12F01
:101A0000F0E0EB5BFC4F20831150E12FF0E0EB5B4B
:101A1000FC4F2DE220831150E12FF0E0EB5BFC4FF7
:101A200024ED20831150E12FF0E0EB5BFC4F60834D
:101A30001150562F40E078E020E030E004C0440F21
:101A4000551F715079F0FA01E227F327220F331F57
:101A5000F7FFF5CFE1E22E27E0E13E27440F551FC7
:101A6000715089F7662341F1DC01702F7650761BA7
:101A7000512FCD014D91E52FF0E0EB5BFC4F408302
:101A80005150FC01F080E12C48E004C0EE0CFF1C3A
:101A9000415079F0C70182279327220F331F97FF08
:101AA000F5CFF1E22F27F0E13F27EE0CFF1C41506C
:101AB00089F75713DECF161BE12FF0E0EB5BFC4FED
:101AC00020831150A12FB0E0AB5BBC4F3C93115071
:101AD000A12FB0E0AB5BBC4F8AEA8C931150E12F91
:101AE000F0E0EB5BFC4F808388E392E80E94D10A30
:101AF00080E060CF8091440381FF02C08FEF0895A2
:101B000080E0089588E092E80E94D10A8091440321
:101B10008C7F8B7F8093440380E090E00C94D10A0B
:101B200008950E94820D6091120286E594E00C9463
:101B3000C30CE6E1F2E020E030E090819817D9F0A4
:101B40002F5F3F4F32962A303105B9F790912A0224
:101B5000E92FF0E0EE0FFF1FEA5EFD4F8083618307
:101B60009F5F9A3021F090932A0281E008951092AD
:101B70002A0281E00895220F331FF901EA5EFD4F2A
:101B800081E09181961729F0F901EA5EFD4F6183AA
:101B9000089580E0F9CFEF92FF920F931F93CF93B8
:101BA000DF9300D000D0CDB7DEB78C017C0182E09E
:101BB000E80EF11CD8018C91813481F0823409F453
:101BC00066C0803531F10F900F900F900F90DF912C
:101BD000CF911F910F91FF90EF90089511969C91D6
:101BE0001197809110028F5F9813EDCF2091B5036C
:101BF00012968C9112972813E6CF2091B603139674
:101C00008C912813E0CF81E0809311029093100211
:101C1000DACFC7010E94321A811104C080910E02EE
:101C20008823B1F081E48983D80111968C911197B2
:101C30008F5F8A8314968C9114978C8315968C9160
:101C40008B830E94820D64E0CE0101960E94C30C3A
:101C5000F801618184810E94990D811105C08091F4
:101C60000E02882309F4AFCFE5EFF4E0D80118960F
:101C70002C9130E0295F3F4FA901B701CF010E94AD
:101C80008E1F809115028160809315029CCFC70141
:101C90000E943B1A811104C080910E02882391F0AA
:101CA000E5EFF4E0D80118962C9130E0295F3F4F22
:101CB000A901B701CF010E948E1F8091150281609A
:101CC00080931502F80180817CCF87EB93E00E941E
:101CD000590C982F91509D3F50F10E947A0D81111F
:101CE00025C080916A01823041F178F481113EC0B3
:101CF00080911302982F915090931302882309F436
:101D00005CC081E080936A010895843049F50E94A7
:101D1000360C80911102811159C0809114028150BA
:101D200080931402811102C010926A010895682FF5
:101D300087EB93E00E94CB0DD0CF809114028150AD
:101D4000809314028111F2CF80E090E00E94D10ACA
:101D500090FDD7CF0E94910D83E080936A01089592
:101D6000843098F0853011F70C94360C8130F1F600
:101D700080E090E00E94D10A90FDD8CF83E080936C
:101D8000140282E080936A0108950E947A0D811105
:101D9000CDCF0E94360C84E1809314021092110280
:101DA00080910F028823E9F080911502846080936E
:101DB000150285E080936A01089580911502826082
:101DC0008093150285E080936A0108958091150241
:101DD0008460809315020E94360C85E080936A012E
:101DE000089584E080936A010895809110028F5FC6
:101DF000809310020895CF93DF93EC0180916A01E4
:101E0000853021F081E0DF91CF91089510926A0131
:101E10008C8180FD32C090E59093560410920F02A1
:101E20009AE0909313029B819093B5039A819093CB
:101E3000B60381FF06C091E090930D0292E09827CF
:101E40009C838091100280935704E8E5F4E02E8192
:101E500030E0295F3F4FA901BE01CF010E948E1FD4
:101E60008E81875F80931202809115028B7F809311
:101E7000150280E0DF91CF91089592E4909356048B
:101E800091E090930F0290931302D3CFCF93DF93FF
:101E9000EC0180910D028823F1F080911502982FBA
:101EA0009670D9F01E828091580489830E942C1A62
:101EB00088830E942C1A8A830E942C1A8B838EEFAF
:101EC0008D838091150281FF1AC088E08C8381E0A8
:101ED000DF91CF9108958091150280FD04C080E0CC
:101EE000DF91CF91089587E0E5EFF4E0DE01019006
:101EF0000D928A95E1F781E0DF91CF91089584E01A
:101F00008C8381E0DF91CF91089520910D022223EF
:101F100049F020911502322F3670D9F420FD06C009
:101F200081E008952091150220FFFACF2091FB0453
:101F300030E0295F3F4FE5EFF4E0A901BF010E94C7
:101F40008E1F8091150291E089278093150280E011
:101F500008950E94460F80911502897F8093150293
:101F600010920D0280E0089581E090916A01953011
:101F700009F080E008951092E5021092E3021092B9
:101F8000ED021092EB021092F5021092F302089506
:101F90009093BA028093B9027093BC026093BB0223
:101FA000EEEBF2E08081877F80831092CE02109268
:101FB000E5021092E3021092ED021092EB021092F1
:101FC000F5021092F30208950F931F93CF93DF93BE
:101FD00000D0CDB7DEB78B01823109F48CC08131DE
:101FE00009F495C0853109F4B0C0863109F4F7C011
:101FF000803109F4E1C0813209F4B2C0833109F4BF
:10200000F7C0843109F402C1873109F40DC1883168
:1020100009F42DC1893109F4E6C08C3109F415C1E8
:102020008D3109F416C18E3109F41CC18A3109F4CD
:1020300022C18B3109F43BC18F3109F448C1803290
:1020400009F454C1863509F464C1873409F423C105
:10205000833709F458C1833509F464C1843409F421
:1020600067C1833409F4BAC1823709F4B3C1883730
:1020700009F470C18F3409F4B9C18E3409F487C1F1
:10208000873509F45BC1813509F49EC1813409F4B7
:1020900098C1883509F491C1863409F4E0C18D34C2
:1020A00009F4C6C1843509F4ACC18B3441F586E02E
:1020B00049835A830E94681D9F938F9384EF91E018
:1020C0009F938F9349815A815F934F9349835A839A
:1020D0000E94A01F49815A81FA01DF010D90002062
:1020E000E9F711978A2F8E1B0F900F900F900F908A
:1020F0000F900F9005C08091FA02811119C080E005
:102100000F900F90DF91CF911F910F9108958091C3
:10211000FA028F3FA1F38091FA028F5F8093FA0257
:1021200080E00F900F90DF91CF911F910F91089554
:102130008091FA0281508093FA0280E00F900F9014
:10214000DF91CF911F910F9108958FEF8093FA0245
:1021500080E00F900F90DF91CF911F910F91089524
:10216000DB01EC91E93058F6F0E0EE0FFF1FEE0FC7
:10217000FF1FEA55FE4F8281938120813181309388
:10218000BA022093B9029093BC028093BB02809163
:10219000BE02877F8093BE021092CE021092E502AB
:1021A0001092E3021092ED021092EB021092F502EF
:1021B0001092F30280E0A4CF80910702813009F4ED
:1021C0003FC0809107028630C1F180910702809361
:1021D000080280E090E00E94931380E091CF10927B
:1021E000FA0280E08DCF85E08093070280E088CFFF
:1021F0008091CF0288300CF082CF8F5F8093CF0226
:1022000089EB92E00E94840780E07ACF8091CF0230
:10221000893F0CF474CF81508093CF0289EB92E018
:102220000E94840780E06CCF809107028230B1F079
:1022300082E08093070280E063CF10920802C9CF4A
:1022400084E08093070280E05BCF1092FC0280E084
:1022500057CF81E08093FC0280E052CF10920702BA
:1022600080E04ECF82E08093FC0280E049CF0E9464
:10227000140A80E045CFE091FC02F0E0EE0FFF1F72
:10228000EE0FFF1FEE0FFF1FEE51FD4F81818F5F9D
:10229000818380E035CF80910702FA0180838091AD
:1022A000CF0281838091FA02828383E029CFE0917B
:1022B000FC02F0E0EE0FFF1FEE0FFF1FEE0FFF1FFF
:1022C000EE51FD4F81818150818380E019CFE091F3
:1022D000FC02F0E0EE0FFF1FEE0FFF1FEE0FFF1FDF
:1022E000EE51FD4F8FEF818380E00ACFE091FC0239
:1022F000F0E0EE0FFF1FEE0FFF1FEE0FFF1FEE517E
:10230000FD4F1182FCCEDB018C918093CF0280E0E7
:10231000F7CE809109021F928F9381EE91E09F93F7
:102320008F93D2CEFB0180818093070280E0E8CEBC
:10233000DB018C918093FA0280E0E2CEDB018C918C
:10234000882309F457C080910602806280930602B8
:1023500080E0D6CECB010E94EC09882309F4CFCED1
:10236000F80101900020E9F73197E01BF10B0E0F07
:10237000111DD80112966C91129711968C910E94A2
:102380004F1AF80183810E94891380E0B9CECB01F6
:1023900049835A830E94F70949815A81CA010196EB
:1023A0000E94E40949815A81FA01DF010D90002061
:1023B000E9F711978A2F8E1BA3CE10926D01109210
:1023C0006C010E942D159BCE10926D0110926C0134
:1023D00080E096CE0E945A0280E092CEFB014281BC
:1023E000618180810E94791380E08ACE0E948F13E0
:1023F00080E086CE809106028F7D8093060280E089
:102400007FCEDB0113969C91139780E014962C915C
:102410001497FC01E20FF11D9F0112964C91129747
:1024200011966C9111978C910E94C01280E068CE39
:10243000DB0113969C91139780E014962C911497CE
:10244000FC01E20FF11D9F0112964C91129711961B
:102450006C9111978C910E94141380E051CEFB0176
:10246000938180E02481AC01420F511D9A01428189
:10247000618180810E94651380E042CEAB01BC0186
:102480006F5F7F4FFC0180810C94E40FCF93DF934B
:1024900000D000D0CDB7DEB719821A821B821C8211
:1024A00089819A81AB81BC8180319742A105B105B8
:1024B000A0F489819A81AB81BC810196A11DB11DD7
:1024C00089839A83AB83BC8389819A81AB81BC81E8
:1024D00080319742A105B10560F383E00E94961810
:1024E0008823B1F00E946C0B80EC96E00E94F30B05
:1024F00044E061E084E00E94DC0B80E09BE40E9409
:10250000040C66E080E00E942A0C80E00E94900D9E
:102510000F900F900F900F90DF91CF91089581E071
:1025200080936B018091060283FB882780F980935A
:102530002D02089580912F0290913002892B41F055
:1025400080916E0190916F019093300280932F02E1
:1025500080910702823099F080910702873079F0EC
:10256000809107028093080282E0809307028091A5
:102570006E0190916F019093300280932F02089525
:10258000CF92DF92EF92FF920F931F93CF93DF933F
:102590008093E5026093ED024093F502A0E9B0E07C
:1025A0000E94BE1E6B017C01C0E0D0E08E01000FD6
:1025B000111F000F111F000F111FF801EE51FD4FE9
:1025C00061818381681741F170E0681B710977FDB3
:1025D00027C070E080E090E022E1660F771F881F3F
:1025E000991F2A95D1F7A70196010E94DE1E832F1D
:1025F0009927F801EE51FD4F858324832196C3303E
:10260000D105A1F6DF91CF911F910F91FF90EF902F
:10261000DF90CF900C949A1288B18C7F88B9EECF5E
:10262000719561957109D5CFCF92DF92EF92FF92AC
:102630008093E5026093ED024093F50240E050E0A4
:10264000C12CFA01EE0FFF1FEE0FFF1FEE0FFF1F51
:10265000EE51FD4F8181638190E0861B910997FDCA
:1026600030C0C81608F4C82E4F5F5F4F4330510585
:1026700041F7D12CE12CF12C62E1CC0CDD1CEE1CDD
:10268000FF1C6A95D1F7A0E9B0E00E94BE1E9B0135
:10269000AC01C701B6010E94DE1E832F99278093EB
:1026A000E7022093E6028093EF022093EE028093EC
:1026B000F7022093F602FF90EF90DF90CF900C94FA
:1026C0009A12919581959109CCCF8093E502609300
:1026D000ED024093F5023093E7022093E602309337
:1026E000EF022093EE023093F7022093F6020C944F
:1026F0009A12F8948093E3028093E5026093EB02D0
:102700006093ED024093F3024093F50278940C94A9
:102710009A1280932E0282E080936B01089583E0E9
:1027200080936B01089590932C0280932B0283E099
:1027300080930702089580910702893069F08091A3
:102740000702883049F060E574E08CED96E00E9465
:10275000C80F88E08093070208950F931F93CF93CB
:10276000DF931F92CDB7DEB780910702853009F461
:10277000D4C0B0F1873009F419C108F453C08830CF
:1027800009F40AC1893009F4ECC080916C01909180
:102790006D01009771F02091700130917101A901D4
:1027A000415051095093710140937001232B09F45A
:1027B00074C080912F0290913002009759F00197D8
:1027C0009093300280932F02892B21F4809108028C
:1027D000809307020F90DF91CF911F910F91089581
:1027E000823009F492C098F0833009F4E8C0843054
:1027F00061F68091FB028093FA0280910602886064
:10280000809306028091080280930702BECF811157
:10281000BCCF81E080932D02809106028860809376
:102820000602B3CF8091350290913602A091370213
:10283000B09138020196A11DB11D8093350290938D
:102840003602A0933702B093380240913102509182
:102850003202609133027091340284179507A60703
:10286000B70709F092CF10923502109236021092FB
:102870003702109238028091FA0281508093FA0256
:102880008091FA02811181CF81E0809307028091CB
:102890000602877F8093060278CF90937101809320
:1028A000700186E00E94681D182F20916B01213075
:1028B00009F4BDC01092A40680912E028093A10657
:1028C00099830E942C1A8093A0060E942C1A809350
:1028D000A2068FEF8093A50620916B01998121308C
:1028E00009F4A8C0223009F4B6C0809109028E31E3
:1028F00008F082C081E08093A60682E48093A70658
:1029000080EA96E00E94561A54CF10922D028091D0
:102910000602877F8093060238CF1092350210920C
:10292000360210923702109238026091FA0284EE59
:1029300097E570E00E94CA1ECB01AA2797FDA095DB
:10294000BA2F8093310290933202A0933302B09356
:1029500034028091FA028093FB0286E080930702A2
:1029600014CF80912B0290912C029C0121503109AF
:1029700030932C0220932B02892B09F006CF12B83A
:1029800083B7817F846083BF83B7816083BF88956D
:1029900083B78E7F83BFF8CF88EB9BE090932C02A8
:1029A00080932B0289E080930702EFCE81E0809331
:1029B0002D0280910602877F80930602E6CE8091E9
:1029C0002B0290912C029C012150310930932C0252
:1029D00020932B02892B09F0D8CE8091FA028093A4
:1029E000FB021092FA0280910602877F8093060212
:1029F00081E080930702C9CE9F931F9384EF91E0FB
:102A00009F938F9307EA16E01F930F930E94A01FD6
:102A1000F80101900020E9F7E85AF640E093A60695
:102A20000F900F900F900F900F900F9069CF209301
:102A3000A40642CF82E58093A70688EA96E00E942A
:102A4000E409E7EAF6E001900020E9F7E85AF640E9
:102A5000E093A60655CF89E4EECF80910603A895B2
:102A6000109205021092040290916B01933049F08C
:102A7000682F0E944F1A81E080932E0283E080939A
:102A80006B0108951F920F920FB60F9211242F938E
:102A90008F939F93EF93FF938091C8002091CE0076
:102AA0008871E0913B02EF5FEF7190913A02E91774
:102AB00091F0E0933B02F0E0E25CFD4F20838093D5
:102AC0003902FF91EF919F918F912F910F900FBE3F
:102AD0000F901F90189582E0F2CF1F920F920FB6C1
:102AE0000F9211248F939F93EF93FF9390913D0248
:102AF00080913C029817A9F0E0913C02EF5FEF73E0
:102B0000E0933C02F0E0E25AFD4F80818093CE00DA
:102B1000FF91EF919F918F910F900FBE0F901F909B
:102B200018958091C9008F7D8093C900F1CF1092D4
:102B30003D0210923C0210923B0210923A0297FF23
:102B400004C022E02093C8009F779093CD0080932B
:102B5000CC0088E98093C90086E08093CA0008957C
:102B600090913B0280913A02981791F0E0913A02DD
:102B7000EF5FEF71E0933A02F0E0E25CFD4F80819D
:102B800090913902392F20E0280F311DC901089595
:102B900020E031E0C901089520913D022F5F2F739D
:102BA00090913C022917E1F3E22FF0E0E25AFD4F49
:102BB000808320933D028091C90080628093C90088
:102BC0000895FC0120812223C9F0DC011196909127
:102BD0003D029F5F9F7380913C029817E1F3E92FBC
:102BE000F0E0E25AFD4F208390933D028091C900AE
:102BF00080628093C9002D912111E9CF08959C0135
:102C00002F5F3F4FFC0184918823D1F040913D021A
:102C10004F5F4F7390913C024917E1F3A42FB0E04E
:102C2000A25ABD4F8C9340933D028091C9008062AF
:102C30008093C900F9012F5F3F4F84918111E6CF46
:102C40000895CF93C82F813621F08C2FCF910C940B
:102C5000CC1581E60E94CC158C2FCF910C94CC150D
:102C6000CF93DF93EC018881811107C010C0899157
:102C70000E94CC158881882351F08136C1F70E94CB
:102C8000CC1589910E94CC1588818111F6CFDF91F6
:102C9000CF9108950F931F93CF93DF93EC016115AC
:102CA0007105B1F08C01060F171F06C021960E9416
:102CB000CC15C017D10761F088818136B9F70E9421
:102CC000CC15888121960E94CC15C017D107A1F799
:102CD000DF91CF911F910F91089581E60E94CC154D
:102CE00083E60C94CC1581E60E94CC1582E60C9408
:102CF000CC15CF93DF93EC0181E60E94CC1583E6DF
:102D00000E94CC15CE010E94301681E60E94CC159F
:102D100082E6DF91CF910C94CC15CF93C82F81E63A
:102D20000E94CC1583E60E94CC158C2F0E942116A0
:102D300081E60E94CC1582E6CF910C94CC15CF93FE
:102D4000DF93EC010E94AF1D8C8182FD35C083FDB5
:102D50002EC08E81811104C080E0DF91CF91089553
:102D600081E60E94CC1583E60E94CC158C8180FD03
:102D700029C080E50E94CC1580E00E94CC15898195
:102D80000E94211688810E9421166E8170E0CE017A
:102D900007960E944A1681E60E94CC1582E60E94A0
:102DA000CC150E94B41D80E0DF91CF9108958CEF87
:102DB00091E00E947916CDCF89EF91E00E947916BB
:102DC0008C81C5CF82E40E94CC15D6CFCF93DF9300
:102DD000EC0180919F029091A002892B31F18091AA
:102DE0009205803551F0823441F01092A002109289
:102DF0009F0280E0DF91CF91089580919E028883A9
:102E00009091930599838A830E942C1A8B8382E088
:102E10008C8380919205823461F080919F02825070
:102E20008E8381E0DF91CF91089580E0DF91CF9193
:102E3000089583E08C83F1CFCF93DF93EC018091F1
:102E40009F029091A002892B21F481E0DF91CF9124
:102E50000895CE010E94E6169E01295F3F4F4E81E4
:102E600084E995E050E0BC01C9010E948E1F1092D8
:102E7000A00210929F0280E0DF91CF91089581E03F
:102E800008951F93CF93DF9300D0CDB7DEB7182FEF
:102E90004A8369830E948F124A81642F89810E942C
:102EA000441A10939E020F900F90DF91CF911F91C3
:102EB000089508958091A1028111089589E40E94E6
:102EC0008D1681E08093A102089580919F029091D8
:102ED000A002089583E995E008951092A00210924F
:102EE0009F020895CF93DF9300D0CDB7DEB70E9445
:102EF000B01590FF08C020E030E0C9010F900F909E
:102F0000DF91CF91089589839A830E94A31D8981BF
:102F10009091A202813601F1992331F01092A20220
:102F2000833661F18236E9F02091A3023091A40248
:102F3000F901EE56FA4F8083C90101969093A402DD
:102F40008093A3028E309140B4F28DE091E0909393
:102F5000A4028093A302CFCF992351F01092A20232
:102F6000E3CF0E94A81D2091A3023091A402C5CFF7
:102F700081E08093A20220E030E0BFCF1092A40253
:102F80001092A30220E030E0B8CF80919F02909190
:102F9000A002892B09F008950E9472170097D9F3B7
:102FA000209192052934B1F0273539F0223761F0AC
:102FB0009093A00280939F02089540E050E063E95F
:102FC00075E087E50C94E40F01979093A00280933D
:102FD0009F02089540919505609194058091930515
:102FE0000C9441170C94FB1BCF93DF93EC018C8165
:102FF00081FF09C092E098279C8381E08093A5021D
:1030000088818093A602EBE4FCE02E8130E0295F0A
:103010003F4FA901BE01CF010E948E1F8E8190E01B
:1030200007960E94C61B80E0DF91CF910895CF9351
:10303000DF93EC018091AD02882321F08091A502FD
:10304000811114C00E94E71B079720F480E0DF91F4
:10305000CF91089587E0EDE3FBE0DE0101900D9252
:103060008A95E1F781E0DF91CF9108951E828091EA
:10307000A60289830E942C1A88830E942C1A8A83B4
:103080000E942C1A8B8384E08C8381E0DF91CF91A6
:103090000895CF93DF93D82FC92F2091AD0222231B
:1030A00021F08091A50281111AC00E94E71B892B93
:1030B00021F481E0DF91CF9108950E94E71B2DE379
:1030C0003BE0AC01B9018D2F9C2F0E948E1F0E9406
:1030D000C71B0E94CA1B80E0DF91CF9108958D2FFE
:1030E0000E9417181092A5021092AD0280E0DF91A5
:1030F000CF9108950C94C01B0C94201C089530911E
:103100007201332391F0E1E8F1E090E004C09F5FA9
:103110003F96931751F0DF011E972C912813F7CF9C
:1031200060839F5F3F969313F6CF0895609172017D
:10313000662391F090917301981781F0E2E8F1E035
:1031400021E030E007C0A90190812F5F3F4F3F96FB
:10315000981731F02617B8F380E0089540E050E06A
:103160008FE0849FF001859FF00D1124ED58FE4FF4
:103170008685089560917201662391F090917301A4
:10318000981781F0E2E8F1E021E030E007C0A90102
:1031900090812F5F3F4F3F96981731F02617B8F375
:1031A0008FEF089540E050E08FE0849FF001859F0D
:1031B000F00D1124ED58FE4F85850895CF93DF93D0
:1031C000909172019923B9F0C0E0DFE003C0CF5FB6
:1031D000C91788F4DC9FF0011124ED58FE4F868555
:1031E0008823A9F30184F285E02D0995909172015D
:1031F000CF5FC91778F3DF91CF910895982F9E5F25
:10320000923028F160917201662391F090917301E0
:10321000981781F0E2E8F1E021E030E007C0A90171
:1032200090812F5F3F4F3F96981731F02617B8F3E4
:1032300080E0089540E050E08FE0849FF001859F9A
:10324000F00D1124ED58FE4F8685811102C081E0FA
:1032500008950780F085E02D09941F93CF93DF93A5
:10326000182FEB0160917201662391F08091730138
:10327000811799F0E2E8F1E021E030E007C0A90110
:1032800090812F5F3F4F3F96911749F02617B8F373
:1032900081E0DF91CF911F91089540E050E08FE0F1
:1032A000849FF001859FF00D1124ED58FE4F03809F
:1032B000F481E02DCE0109951D83DF91CF911F91FF
:1032C0000895EF92FF920F931F93CF93DF938C019A
:1032D000909172019923D1F0F12C8FE0E82E03C078
:1032E000F394F91698F4EF9CE0011124CD58DE4FC9
:1032F0008E858823A9F3ED81FE81C801099581118E
:103300000DC090917201F394F91668F38EEFDF917E
:10331000CF911F910F91FF90EF9008958881F80150
:103320008583DF91CF911F910F91FF90EF900895CA
:10333000A0917201AA2391F090917301981781F0E6
:10334000E2E8F1E021E030E007C0A90190812F5FC1
:103350003F4F3F96981731F02A17B8F381E0089550
:1033600040E050E08FE0849FF001859FF00D112434
:10337000ED58FE4F8685811102C080E008950180DE
:10338000F281E02DCB010994FF920F931F93CF930D
:10339000DF93082FEB01209172012223A1F1EEE7C8
:1033A000F1E030E090E004C09F5F3F96921769F033
:1033B000DF011B978C918013F7CF80818823A1F3C5
:1033C00031E09F5F3F969213F3CF332319F110E062
:1033D0003FE0F32E03C01F5F1217A8F4F19EF00127
:1033E0001124ED58FE4F80818017A9F3868588232C
:1033F00091F30180F281E02DCE01099520917201B7
:103400001F5F121758F380E0DF91CF911F910F914A
:10341000FF90089541111DC010E09FE0F92E03C0F8
:103420001F5F121780F7F19EF0011124ED58FE4F37
:1034300080818017A9F38485882391F3868588236A
:1034400079F30180F281E02DCE010995209172017E
:10345000E7CF2111BCCFD7CF8091A80208958091EA
:10346000A702089521E0FC0193818091A80298139E
:1034700020E0822F089521E0FC0191818091A70234
:10348000981320E0822F08958093A8026093A702EA
:103490000E94FD1A6FEF8091A8020C94901B8093FC
:1034A000A8026093A7026FEF0C94901BCF93DF9359
:1034B000EC018091060285FD17C08C8180FF23C03E
:1034C0008D818F3FA1F0CE010E94111B9D81209123
:1034D000A8022A8329812B839F3F79F040E0BE0117
:1034E000DF91CF910C94C419DF91CF910895809111
:1034F000A8028A8389818B838FEF41E0BE01DF912F
:10350000CF910C94C4198091A8028A83CE010E94A5
:10351000841B8B83CE010E941D1BBE01DF91CF91C6
:103520000C949819CF93DF93EC010E94291B8C8196
:1035300080FD23C08091A8029981981731F09B816A
:103540008917B1F0DF91CF910895CE010796BC01A4
:103550000E943E129C8181112CC091FFF3CF94E018
:103560009C838E83888189838091A8028A83888343
:10357000CE01DF91CF910C94561ACE010E94561ABB
:1035800089819091A702891711F0811106C060E02E
:1035900070E0CE0107960E943E128C8181FFD2CF4F
:1035A00084E08C831E82888189838091A80288832D
:1035B000DFCF91FFD6CFD3CFCF930E94DE180E94EA
:1035C0009B1B80EA96E00E946119C82F8E3F41F054
:1035D00080EA96E00E941D1B0E94FE18811102C025
:1035E000CF91089560EA76E08C2F0E942D196C2F00
:1035F00080EA96E0CF910C94921AE0E4F7E09EEF17
:103600008FEFDF0113979C93DF0112971C92DF016C
:1036100011978C93108234962BE0E034F20789F7EF
:103620000895DC011296EC91F0E0EE0FFF1FEE0F13
:10363000FF1FE35CF84F80810895DC011396EC9145
:10364000F0E0EE0FFF1FEE0FFF1FE35CF84F8081ED
:103650000895FF920F931F93CF93DF93EC01062FF2
:103660001881862F0E94BA18F82E0E942C1A8117F2
:1036700011F0111136C01A810E942C1A181759F135
:10368000EA81EE2341F1F0E0EE0FFF1FEE0FFF1F86
:10369000E35CF84F82818F15F0F000838A81E82F78
:1036A000F0E0EE0FFF1FEE0FFF1FE35CF84F81838A
:1036B000EA81F0E0EE0FFF1FEE0FFF1FE35CF84F13
:1036C000F282EA81F0E0EE0FFF1FEE0FFF1FE35CD6
:1036D000F84F8CE38383DF91CF911F910F91FF907F
:1036E0000895E12FF0E0EE0FFF1FEE0FFF1FE35CE8
:1036F000F84F82818F1508F4BECF00838A818183C1
:10370000F2828CE38383B7CFDC011196EC91F0E079
:10371000EE0FFF1FEE0FFF1FE35CF84F818108954E
:10372000E82FF0E0EE0FFF1FEE0FFF1FE35CF84FF6
:103730006083818308958091A0019091A1019C01F3
:10374000215031093093A1012093A001892BB9F4B4
:1037500088EE93E09093A1018093A001E0E4F7E06C
:103760002FEF8081982F91509083811103C0DF014A
:1037700011972C9334968BE0E833F80791F708956E
:103780009091A90281E0911180E00895089510922E
:10379000AB0208958091AB02811118C08091AC02F8
:1037A000811114C08091A902811110C08FB7F894C3
:1037B00090E99093C100449845981092AC02109201
:1037C000AF021092AE021092AB028FBF08958091AB
:1037D000AE029091AF02892B51F08091AB02882309
:1037E00031F02091AE023091AF02C901089520E07E
:1037F00030E0C90108959FB7F8941092C50089E0A0
:103800008093C40086E08093C200E1ECF0E0808108
:1038100088698083E0ECF0E080818D7F80839FBFAA
:103820003C9A3D9A1092B1021092B0021092AF02EF
:103830001092AE021092B3021092B2020C94CA1B04
:103840008091B0029091B102892B21F08091A90260
:10385000882359F08091B0029091B102892B21F414
:103860008091AB02882351F008958091AC028111C0
:10387000F1CF8091B0029091B102ECCF0C94CA1BB1
:103880001F920F920FB60F9211242F933F934F93D5
:103890005F936F937F938F939F93AF93BF93EF93B8
:1038A000FF938091A902813009F454C08091A9024C
:1038B0008230F9F08091A9028330D1F18091A90280
:1038C000843009F454C08091A902853009F458C0AD
:1038D000FF91EF91BF91AF919F918F917F916F91E8
:1038E0005F914F913F912F910F900FBE0F901F90BE
:1038F00018958091B602811124C08091B4029091F4
:10390000B502FC01E55BF34F20812C3509F446C07C
:1039100020812093C60001969093B5028093B40253
:103920002091B0023091B1028217930789F603C04B
:103930008CE58093C6008091A9028F5F8093A902D5
:10394000C7CF8093C6001092B6028091B4029091C6
:10395000B502E1CF80E38093C6008091A9028F5F1A
:103960008093A9021092B5021092B402B1CF81E304
:103970008093C6008091A9028F5F8093A902A8CF8F
:103980001092A90281E08093AA021092B1021092D3
:10399000B0028093AD020E94CA1B9ACF2093C6004A
:1039A0002093B60295CF1F920F920FB60F9211245B
:1039B0002F933F938F939F93EF93FF938091C0003A
:1039C00083FD1DC08091C00084FD19C02091C600F8
:1039D00031E03093AC028091B7022C3599F181111E
:1039E0001BC08091AE029091AF02FC01E35CF44FEA
:1039F000208301969093AF028093AE0202C0809123
:103A0000C600FF91EF919F918F913F912F910F9061
:103A10000FBE0F901F9018951092B7022033D1F06F
:103A20002133F9F61092AC028091AE029091AF0270
:103A3000892B11F03093AB028FB7F8941092C1002C
:103A40008FBFDFCF882319F01092B702CACF30930F
:103A5000B702D7CF3093B8021092AF021092AE02E5
:103A6000D0CFCF93DF930E94201C0E946517EC01FA
:103A70000097D9F40E94E71BEC01009719F4DF913D
:103A8000CF9108958FEF91E00E94E115BE018DE383
:103A90009BE00E944A1680ED91E00E94E1150E9491
:103AA000C71BDF91CF910C94CA1B0E94C01B8823B7
:103AB00009F30E946A172BE43CE0AE01BC01C90186
:103AC0000E948E1FCE010E94C61B0E946D17D2CF8E
:103AD000CF93DF931F92CDB7DEB789830E94AD1DD0
:103AE00090917C00907F90937C0090917C008981E4
:103AF000982B90937C0080917A00806480937A0068
:103B000080917A0086FDFCCF0E94AE1D2091780046
:103B100030917900C9010F90DF91CF91089580EC29
:103B200080937C0087EC80937A0086E00E94681D79
:103B300086E00E94681D86E00C94681D0F9A0D9A1D
:103B40000C9A159A08958FB7F894159A8FBF089517
:103B50008FB7F89415988FBF0895089508958FB77B
:103B6000F894149A8FBF08958FB7F89414988FBF64
:103B700008959FB7F89482B1805882B99FBF089585
:103B8000CF93DF9300D000D0CDB7DEB788E10FB67A
:103B9000F89480936000109260000FBE84B7877F16
:103BA00084BF809160008861809360001092600003
:103BB0002098289A29E288E190E00FB6F894A89519
:103BC000809360000FBE20936000A89519821A822E
:103BD0001B821C8289819A81AB81BC810A97A105D5
:103BE000B10598F489819A81AB81BC810196A11DB0
:103BF000B11D89839A83AB83BC8389819A81AB8110
:103C0000BC810A97A105B10568F3189997C08EE1A8
:103C1000809309020E949E1DA8958091090285311A
:103C200009F497C0809109028E3109F49FC0A895CC
:103C30000E94750384E090E00E94971580E091E077
:103C400090935C0D80935B0D0E949408A8950E9450
:103C50009B060E943E0A80910902853109F483C0C7
:103C6000809109028E3109F477C00E948F12A895C5
:103C70000E94F2170E94FB1B0E94461260E080E047
:103C80000E94441AA89560915F0D7091600D80E0CC
:103C900090E00E94851F0E94801F7093600D6093CA
:103CA0005F0D7894A8950E94B91D80910A02813217
:103CB00040F010920A028091060285FD39C00E94F0
:103CC000DC1A8091060286FD30C08091060282FDDA
:103CD00024C08091060281FF05C0809106028D7F7D
:103CE000809306028091060280FF10C08091060238
:103CF0008E7F8093060280912D0281111CC08091DD
:103D0000060283FFCFCF0E94AE06CCCF0E94A80848
:103D10000E947E180E94C517C5CF0E94AD138091E6
:103D200006028B7F80930602D4CF0E949B13CDCFD7
:103D30000E94311DC6CF0E94BC03E1CF85E1809374
:103D400009020E949E1DA89580910902853109F003
:103D500069CF3B98439A6BCF339987CF60E083E07C
:103D60000E947F1882CF339BF9CF7ACF3B98439A3A
:103D70000E948F1D86E00E94681D59CFA29FB0014E
:103D8000B39FC001A39F01D0B29F700D811D11246C
:103D9000911D089597FB072E16F4009407D077FD28
:103DA00009D00E941C1F07FC05D03EF49095819518
:103DB0009F4F0895709561957F4F0895A1E21A2E47
:103DC000AA1BBB1BFD010DC0AA1FBB1FEE1FFF1FBF
:103DD000A217B307E407F50720F0A21BB30BE40B0F
:103DE000F50B661F771F881F991F1A9469F7609556
:103DF0007095809590959B01AC01BD01CF01089510
:103E0000052E97FB16F4009407D057FD0DD00E94A5
:103E1000DE1E07FC09D07EF4909580957095619523
:103E20007F4F8F4F9F4F0895509540953095219526
:103E30003F4F4F4F5F4F0895AA1BBB1B51E107C077
:103E4000AA1FBB1FA617B70710F0A61BB70B881F2A
:103E5000991F5A95A9F780959095BC01CD010895B9
:103E60008F929F92AF92BF92CF92DF92EF92FF928A
:103E7000CF93DF93EC01688179818A819B81611501
:103E800071058105910521F464E279ED8BE597E0F8
:103E90002DE133EF41E050E00E94001F49015A013B
:103EA0009B01AC01A7EAB1E40E9471226B017C0185
:103EB000ACEEB4EFA50194010E947F22C60ED71E7E
:103EC000E81EF91EF7FE06C081E0C81AD108E10815
:103ED00080E8F80AC882D982EA82FB82E894F7F87F
:103EE000B601C701DF91CF91FF90EF90DF90CF90A7
:103EF000BF90AF909F908F9008950E94301F0895BB
:103F000082EA91E00E94301F08956093A2017093AD
:103F1000A3018093A4019093A5010895FB01DC0106
:103F200002C001900D9241505040D8F70895FB0116
:103F3000DC018D91019080190110D9F3990B08953E
:103F4000A0E1B0E0E6EAFFE10C9492220F89188D1F
:103F500086E08C831A8309838FEF9FE79E838D838E
:103F6000AE01455E5F4F588B4F87698D7A8DCE01CC
:103F700001960E94C41FEF81F885E00FF11F1082A7
:103F80006096E4E00C94AE22ACE0B0E0EAECFFE135
:103F90000C9484227C016B018A01FC011782168239
:103FA000838181FFC7C188248394912C8C0E9D1E30
:103FB000F7019381F60193FD859193FF81916F0144
:103FC000882309F4B3C1853239F493FD859193FFB9
:103FD00081916F01853229F4B70190E00E94E721B9
:103FE000E7CF712C312C20E02032A8F48B3261F025
:103FF00028F4803251F0833271F40BC08D3239F0E5
:10400000803349F4216028C02260246025C02860E4
:1040100023C0206121C027FD27C0382F30533A30FC
:1040200078F426FF06C0FAE07F9E300D1124732E2F
:1040300013C08AE0389E300D1124332E20620CC04C
:104040008E3221F426FD72C1206406C08C3611F434
:10405000206802C0883641F4F60193FD859193FFF4
:1040600081916F018111C0CF982F9554933018F032
:104070009052933028F40C5F1F4FFFE3F9830DC07B
:10408000833631F0833771F0833509F05EC023C089
:10409000F801808189830E5F1F4F66246394712C21
:1040A000540115C02801F2E04F0E511CF801A08008
:1040B000B18026FF03C0672D70E002C06FEF7FEF75
:1040C000C5012C870E94DC213C0182012C856FE711
:1040D000262E222218C02801F2E04F0E511CF801B2
:1040E000A080B18026FF03C0672D70E002C06FEF93
:1040F0007FEFC5012C870E94D1213C012C8550E81F
:10410000252E222A820123FC1CC006C0B70180E2B2
:1041100090E00E94E7213A94832D90E0681679069A
:10412000A8F30FC0F50127FC859127FE81915F015F
:10413000B70190E00E94E72131103A94F1E06F1A44
:1041400071086114710471F7EEC0843611F089367C
:1041500041F5F80127FF07C0608171818281938159
:104160000C5F1F4F08C060817181882777FD8095A3
:10417000982F0E5F1F4F4FE6642E622297FF09C0F3
:1041800090958095709561957F4F8F4F9F4FF0E888
:104190006F2A2AE030E0A4010E941322A82EA8185A
:1041A00044C0853731F43FEEB32EB2222AE030E02E
:1041B00024C099EFB92EB2228F36B9F020F4883599
:1041C00009F0B4C00DC0803721F0883709F0AEC0C7
:1041D00002C020E1B22AB4FE0BC084E0B82A08C0B5
:1041E00024FF09C0E6E0BE2A06C028E030E005C092
:1041F00020E130E002C020E132E0F801B7FE07C064
:1042000060817181828193810C5F1F4F06C0608144
:10421000718180E090E00E5F1F4FA4010E94132285
:10422000A82EA8188FE7682E6B2066FE0BC0362DCF
:104230003E7FA71450F464FE0AC062FC08C0362D0D
:104240003E7E05C0BA2C362D03C0BA2C01C0B72C57
:1042500034FF0DC0FE01EA0DF11D8081803311F4A1
:10426000397E09C032FF06C0B394B39404C0832FD3
:10427000867809F0B39433FD14C030FF0FC07A2C58
:10428000B31460F4730C7B18B32C08C0B70180E240
:1042900090E03C870E94E721B3943C85B314B0F3CF
:1042A00004C0B31410F43B1801C0312C34FF12C009
:1042B000B70180E390E03C870E94E7213C8532FF14
:1042C0001EC031FF03C088E590E002C088E790E09F
:1042D000B7010CC0832F867891F031FD02C080E2D7
:1042E00001C08BE237FD8DE2B70190E00E94E7212B
:1042F00006C0B70180E390E00E94E7217A94A714FA
:10430000C0F3AA94F401EA0DF11DB701808190E099
:104310000E94E721A110F5CF06C0B70180E290E02E
:104320000E94E7213A943110F8CF42CEF70126815E
:10433000378102C02FEF3FEFC9012C96E2E10C94C8
:10434000A022DC01CB01FC01F999FECF06C0F2BD31
:10435000E1BDF89A319600B40D9241505040B8F743
:104360000895F999FECF92BD81BDF89A992780B53D
:104370000895DC01CB0103C02D910E94C42141505E
:104380005040D0F70895262FF999FECF1FBA92BD5D
:1043900081BD20BD0FB6F894FA9AF99A0FBE019626
:1043A0000895FC010590615070400110D8F7809588
:1043B00090958E0F9F1F0895FC01615070400190F1
:1043C0000110D8F7809590958E0F9F1F08950F9339
:1043D0001F93CF93DF938C01EB018B8181FD03C091
:1043E0000FEF1FEF1AC082FF0DC02E813F818C811D
:1043F0009D812817390764F4E881F9810193F983D5
:10440000E88306C0E885F985802F0995892B41F757
:104410008E819F8101969F838E83C801DF91CF910A
:104420001F910F910895FA01AA27283051F12031E8
:1044300081F1E8946F936E7F6E5F7F4F8F4F9F4F38
:10444000AF4FB1E03ED0B4E03CD0670F781F891F7A
:104450009A1FA11D680F791F8A1F911DA11D6A0F48
:10446000711D811D911DA11D20D009F468943F91FB
:104470002AE0269F11243019305D3193DEF6CF01FA
:104480000895462F4770405D4193B3E00FD0C9F7C0
:10449000F6CF462F4F70405D4A3318F0495D31FD2D
:1044A0004052419302D0A9F7EACFB4E0A695979580
:1044B000879577956795BA95C9F700976105710556
:1044C00008959B01AC010A2E0694579547953795A0
:1044D0002795BA95C9F7620F731F841F951FA01DFA
:1044E00008950E94BE1EA59F900DB49F900DA49F9D
:1044F000800D911D11240895B7FF0C9471220E9424
:104500007122821B930B08952F923F924F925F92DC
:104510006F927F928F929F92AF92BF92CF92DF92D3
:10452000EF92FF920F931F93CF93DF93CDB7DEB738
:10453000CA1BDB0B0FB6F894DEBF0FBECDBF0994CC
:104540002A88398848885F846E847D848C849B8423
:10455000AA84B984C884DF80EE80FD800C811B8131
:10456000AA81B981CE0FD11D0FB6F894DEBF0FBE60
:0A457000CDBFED010895F894FFCFD0
:10457A000000000200000000550200000000400692
:10458A00310583058F05A405C605120638063E06C1
:10459A000202010303050000000000000000000001
:1045AA0000000000000000000000000000000003FE
:1045BA0004060100000000000000000000000000E6
:1045CA0000000000000000000000000000060700D4
:1045DA0000000000000000CD07010501E80390017A
:1045EA00E80303019F161C17E6163F175A17010125
:1045FA000A0102F417491817187A187C18000014CF
:10460A000103FB0E850F460FB40F650E00001E0155
:10461A00E80301000000DC06A402DC06CC02DC068A
:10462A003003DC064C03DC067803DC06A403DC0654
:10463A00C003DC060404DC06200461634452430020
:10464A006162006E65776C616D702E6C6F63616C70
:10465A0000443D4D617920313720323031332048D2
:10466A003D256400563D25750053440053540061AE
:04467A006352000087
:00000001FF
