:100000000C9436020C9453020C9453020C94B80EC8
:100010000C9453020C9453020C9453020C9453020C
:100020000C9453020C9453020C9453020C945302FC
:100030000C9453020C94C8040C94D0050C945302F5
:100040000C9453020C9453020C9465090C945302C3
:100050000C94691E0C9453020C94DC1D0C945302F6
:100060000C9453020C9453020C9453020C945302BC
:100070000C9401160C942D160C94530202000800E7
:1000800012001F003100470060007E009F00C50085
:10009000EE001B014D018201BB01F80139027E0215
:1000A000C70213036403B90311046E04CE043305BD
:1000B0009B0507067706EC066407E0076008E4087E
:1000C0006B09F709870A1A0BB20B4E0CED0C900D59
:1000D000380EE30E920F4510FC10B711761239134B
:1000E0000014CB1499156C1643171D18FC18DE1953
:1000F000C41AAF1B9D1C8F1D851E7F1F7D207F2175
:1001000084228E239C24AE25C326DD27FA281B2AB1
:10011000412B6A2C972DC82EFD2F36317332B43304
:10012000F93442368E37DF38333A8C3BE83C493E6F
:10013000AD3F15418142F1436545DD465948D949F6
:100140005D4BE54C704E005094512B53C65466568F
:100150000958B0595B5B0B5DBE5E75602F62EE6344
:10016000B16578674269116BE46CBA6E9470737212
:1001700055743B762578137A067CFB7DF57FF381F9
:10018000F583FB850488128A238C398E52907092F5
:100190009194B696DF980C9B3D9D729FABA1E8A30E
:1001A00029A66DA8B6AA03AD53AFA8B100B45CB63A
:1001B000BDB821BB89BDF5BF65C2D9C451C7CDC982
:1001C0004CCCD0CE58D1E3D373D606D99EDB39DEE2
:1001D000D8E07BE322E6CEE87DEB2FEEE6F0A1F35C
:1001E00060F623F9E901B4048207550A2B0D0510C6
:1001F000E412C615AC18961B841E76216C24652764
:10020000632A652D6A30743382369339A83CC23F25
:10021000DF42004625494E4C7B4FAC52E1551A59FE
:10022000565C975FDC6224667169C16C15706E73F1
:10023000CA762A7A8E7DF6806284D287468BBE8EFD
:100240003992B9953D99C49C50A0DFA372A70AAB1F
:10025000A5AE44B2E7B58EB939BDE8C09BC452C85B
:100260000CCCCBCF8ED354D71FDBEDDEBFE296E6AE
:1002700070EA4EEE30F216F610FF00026007000042
:100280001000400011FF4000600700001100400016
:1002900012FF4000600700001200400010FF400005
:1002A00030F7000040000000400100004002000064
:1002B000507D000011FF000F6002000011000001DE
:1002C0006002000030FC0000800000004000FF00E1
:1002D0004001000040020000507D0000400000008E
:1002E0004001FF0040020000507D0000400000007F
:1002F000400100004002FF00507D000040008000EF
:100300004001000040020000507D0000400000005D
:100310004001800040020000507D000040000000CD
:100320004001000040028000507D000030E80000E5
:1003300000002202600700000001220260070000A6
:10034000000222026007000030FA000010FF0002E5
:10035000600700001000400011FF4000600700002F
:100360001100400012FF4000600700001200400032
:1003700010FF400030F70000400000004001000086
:100380004002000010FF0002600500001000400065
:1003900012FF4000600500001200400010FF400006
:1003A00030FA0000400000004002000040019600CA
:1003B000507D000040010000507D000030FC000036
:1003C00040000000400100004002000012FF004019
:1003D00060040000500200001200004060040000B1
:1003E0005006000012FF00406004000050020000B0
:1003F00012000040600400005032000030F40000A1
:100400008000000040010000400200004000960013
:10041000507D000040000000507D000030FC0000D6
:1004200040000000400100004002000010A0100049
:1004300011A0090012A008006007000010002000B1
:1004400011002000120020006007000030F80000BA
:10045000400100004002000040009600507D000076
:1004600040000000507D000030FC000011241FBE41
:10047000CFEFD0E1DEBFCDBF12E0A0E0B1E0E2E11E
:10048000F7E402C005900D92AE30B107D9F71DE038
:10049000AEE0B2E001C01D92A736B107E1F70E94BD
:1004A00061020C9488230C94000088E190E029E01C
:1004B0000FB6F894A895809360000FBE209360005B
:1004C000FFCFCBEFD0E1DEBFCDBF88E10FB6F89410
:1004D00080936000109260000FBE84B7877F84BF56
:1004E0008091600088618093600010926000209885
:1004F000289A19821A821B821C8289819A81AB8177
:10050000BC810A97A105B10598F489819A81AB81D4
:10051000BC810196A11DB11D89839A83AB83BC83E5
:1005200089819A81AB81BC810A97A105B10568F3E5
:10053000189991C08EE1809311020E942D1F809125
:100540001102853109F49DC0809111028E3109F4A8
:1005500090C00E946F0584E090E00E94571680E0F2
:1005600091E09093640D8093630D0E94080A0E94AD
:1005700024060E94BD0B80911102853109F476C0DA
:10058000809111028E3109F46AC00E94F0130E941A
:1005900019190E94961D0E94A11360E080E00E943C
:1005A0009F1C6091670D7091680D882799270E94A4
:1005B000B31F0E94AE1F7093680D6093670D78940F
:1005C0000E94481F80911202813240F01092120264
:1005D00080910E0285FD39C00E94771C80910E0229
:1005E00086FD30C080910E0282FD24C080910E02F3
:1005F00081FF05C080910E028D7F80930E02809155
:100600000E0280FF10C080910E028E7F80930E023A
:1006100080913E028823E1F480910E0283FFD0CFC7
:100620000E943706CDCF0E941C0A0E9491180E949A
:100630003717C6CF0E946C1480910E028B7F809377
:100640000E02D4CF0E94EF15CDCF0E94C91EC6CF97
:100650000E946C04E1CF85E1809311026ECF339943
:1006600094CF60E083E00E941C198FCF339BF9CFB9
:1006700087CF3B98439A0E941D1F86E00E94FE1E72
:1006800068CF3B98439A65CF0E948E1680E090E039
:10069000089589E080938100EFE6F0E08081866034
:1006A000808380E09AEF909389008093880088EEA1
:1006B0009DEF90938B0080938A0008950F931F9372
:1006C000CF93DF93CDB7DEB723970FB6F894DEBF95
:1006D0000FBECDBF8E010F5F1F4FD801EEE0F1E0DE
:1006E00083E001900D928150E1F720E030E090919D
:1006F0000203D901AA0FBB1FAA0FBB1FAA0FBB1F62
:10070000FD01E651FD4F8181882341F08F3F09F4BF
:1007100041C0989FC0011124892F9927A651BD4F30
:10072000FD0182832F5F3F4F2330310501F731E018
:1007300051E080E090E0B801680F791FD801A30F65
:10074000B11D4C91E42FFF27EE0FFF1FEE0FFF1F8F
:10075000EE0FFF1FE651FD4F9281FB012081E22F3A
:10076000FF27EE0FFF1FEE0FFF1FEE0FFF1FE651DB
:10077000FD4F8281981718F4FB0140832C933F5F53
:100780003330E0F2352F3F5F852F333039F0532F70
:100790009927D1CF9F3F09F0BCCFC0CFD80140E00F
:1007A00010E050E0BE016C5F7F4F8C91282F332703
:1007B000220F331F220F331F220F331FF901E6517F
:1007C000FD4F82818823B9F182818F3FA1F1553B92
:1007D00098F48281853B80F0842F9927FC01EE0FED
:1007E000FF1FE80FF91FE652FD4F88EE9DEF928341
:1007F00081838FEF80834F5FF901E651FD4F828146
:10080000581708F04BC08681182B5281242F3327AC
:10081000E281FF27EE0FFF1FE658FF4F859194916D
:10082000F901EE0FFF1FE20FF31FE652FD4F928317
:10083000818310834F5F1196A617B70709F0B5CFD4
:10084000553B80F4842F9927FC01EE0FFF1FE80F22
:10085000F91FE652FD4F88EE9DEF928381838FEF63
:1008600080834F5F1092E6024093E7021092E80205
:100870008091EC028823F9F49FEF8091F4028823A1
:1008800021F08091F802809598238091FC028823C2
:10089000B1F0809100038095982311C08681182BB8
:1008A000842F9927FC01EE0FFF1FE80FF91FE95273
:1008B000FD4F1083C0CF9091F0029095DECF9093C2
:1008C000E90223960FB6F894DEBF0FBECDBFDF91CD
:1008D000CF911F910F91089560E070E0AB01440F3C
:1008E000551F440F551F440F551FFA01E651FD4F88
:1008F00091818381981709F444C0A18191818381FA
:100900009817B8F48081918124813581280F391F8F
:100910003183208381818A17D8F09181838189175F
:10092000B8F0FA01E651FD4F91818381981749F59E
:1009300019C0918183818917A0F7808191812481D9
:100940003581821B930B918380838181A81788F462
:10095000838181831082FA01E651FD4F9181838169
:10096000981779F4FA01EF50FD4F80818160808300
:1009700008C0918183819817A0F6838181831082BA
:10098000EACF6F5F7F4F6330710509F0A7CF0895FD
:100990001F920F920FB60F9211242F933F934F93F4
:1009A0005F936F937F938F939F93AF93BF93EF93D7
:1009B000FF938091E802882311F16091E602809113
:1009C0000E02846080930E028091E702681708F09F
:1009D00066C0862F9927FC01EE0FFF1FE80FF91F55
:1009E000E652FD4F8181928190938B0080938A0023
:1009F00080818093E8026F5F6093E6025FC082B1FE
:100A0000887F82B992B18091E90280958770892BA5
:100A100082B980918400909185006091E602462F12
:100A20005527DA01AA0FBB1FFD01E40FF51FE6529F
:100A3000FD4F218132818053984F2817390748F59F
:100A4000809184009091850082179307C8F392B13A
:100A5000A40FB51FA652BD4F8C9187708095892336
:100A600082B96F5F8091840090918500462F552751
:100A7000DA01AA0FBB1FFD01E40FF51FE652FD4F7F
:100A8000218132818053984F28173907C8F260932B
:100A9000E60280910E02816080930E0290CF109248
:100AA000E60280910E02826080930E0288EE9DEF36
:100AB00090938B0080938A000E945E03FF91EF91D8
:100AC000BF91AF919F918F917F916F915F914F9166
:100AD0003F912F910F900FBE0F901F901895CF93BD
:100AE000DF9389E08093810080916F00866080931E
:100AF0006F0080E09AEF909389008093880088EEE1
:100B00009DEF90938B0080938A008FEF8093020378
:100B1000109204031092EB021092ED0280E091E03B
:100B20009093EF028093EE028091F1028E7F80938A
:100B3000F1021092EA0281E08093F00221E030E0BD
:100B4000F901EE0FFF1FEE0FFF1FEE0FFF1FDF017A
:100B5000A651BD4FED0119821B8280E091E09D837B
:100B60008C83EF50FD4F80818E7F80831C9281E0CB
:100B700090E0022E02C0880F991F0A94E2F78E833C
:100B80002F5F3F4F23303105D9F60E945E0382B1BB
:100B9000887F82B981B1876081B9DF91CF91089553
:100BA0001F920F920FB60F9211242F933F934F93E2
:100BB0005F936F937F938F939F93AF93BF93EF93C5
:100BC000FF9382B19091E80297709095982392B923
:100BD0002091E6028091E7022817B0F4822F99272E
:100BE000FC01EE0FFF1FE80FF91FE652FD4F818158
:100BF000928190938B0080938A0080818093E80299
:100C00002F5F2093E6020FC01092E60280910E0241
:100C1000826080930E0288EE9DEF90938B0080930C
:100C20008A000E945E03FF91EF91BF91AF919F9167
:100C30008F917F916F915F914F913F912F910F9085
:100C40000FBE0F901F9018951092C2021092C10211
:100C50001092C4021092C3028091C602887F8860FD
:100C60008093C6021092D6021092D7020895809106
:100C7000F10280FD24C090E08091F90280FF08C05D
:100C80008091F802982B8091F9028E7F8093F9026F
:100C90008091010380FF08C080910003982B809110
:100CA00001038E7F809301038091C602982B977079
:100CB000887F892B8093C60283FF09C00895909195
:100CC000F0028091F1028E7F8093F102D5CFE09106
:100CD000C102F091C20281EC92E009950895EF9271
:100CE000FF920F931F93CF93DF93CDB7DEB7249777
:100CF0000FB6F894DEBF0FBECDBF8C017E01089405
:100D0000E11CF11CF80182819381AC014F5F5F4FC0
:100D100053834283FC018491F8018483282F2F7030
:100D200029839A012F5F3F4F33832283FA019491E5
:100D30009A83A9014F5F5F4FF80153834283F90102
:100D400094919B834F5F5F4FF801538342834150DF
:100D50005040FA0194919C8382958F70E82FFF2771
:100D6000EE0FFF1FEF5EFE4F0190F081E02DB80106
:100D7000C7010995823021F0813009F0C3CF04C04A
:100D8000F80185818860858324960FB6F894DEBFCC
:100D90000FBECDBFDF91CF911F910F91FF90EF90CC
:100DA0000895DC01FC018281938101979383828302
:100DB000892BC1F485898150858B9927FC01EE0F21
:100DC000FF1FEE0FFF1FE80FF91FEA0FFB1F8681C1
:100DD000978111969C938E9380859185FD019383D5
:100DE000828314820895DC01FC01428153812581B4
:100DF000322F3770832F992784239523892BF1F085
:100E0000842F80958323287F282B258385898150F3
:100E1000858B9927FC01EE0FFF1FEE0FFF1FE80FD8
:100E2000F91FEA0FFB1F8681978111969C938E9381
:100E300080859185FD01938382831482089581E0EA
:100E400090E00895CF93DF93EC01DB018B8199272C
:100E5000382F22278A81280F311D8881682F772714
:100E6000422FFB01E651FD4F238FFD01868987FD4F
:100E70000DC08823F1F002C0220F331F8A95E2F7DC
:100E8000C901232B89F44FEF9FEF19C0992787FDE4
:100E90009095909581959F4F02C0369527958A959C
:100EA000E2F7C901232B49F0482F892F9927982F62
:100EB00006C0832F9927982F02C041E090E08981D6
:100EC000FB01EE0FFF1FEE0FFF1FEE0FFF1FE6519E
:100ED000FD4F83834483958380E090E0DF91CF9141
:100EE0000895CF93DF93FC018481807F803509F4DE
:100EF00047C0668940E050E0A62FBB27A7FDB0950C
:100F0000CC27DD27CA1BDB0BFA01E651FD4F838D91
:100F1000282F332767FD26C0662349F00A2E02C01A
:100F2000220F331F0A94E2F721153105B1F0722F19
:100F3000832F9927FA01EE0FFF1FEE0FFF1FEE0F11
:100F4000FF1FE651FD4F74838583358324834F5FF4
:100F50005F4F43305105C1F638C02FEF3FEF7FEFB1
:100F60008FEFE8CF0C2E02C0369527950A94E2F752
:100F700021153105E1F621E030E071E080E0DACFC3
:100F80002789308D868987FD0FC0882351F002C0E4
:100F9000369527958A95E2F72115310511F421E060
:100FA00030E03383228311C0992787FD9095909577
:100FB00081959F4F02C0220F331F8A95E2F72115BA
:100FC000310579F72FEF3FEFECCFDF91CF91089507
:100FD000FC0181818093ED0282818093F5028381FF
:100FE0008093FD0280E090E00895CF93DF93FB01B2
:100FF000EC018981282F332727FD309537FF02C068
:1010000021503040220F331F220F331F82819381E2
:10101000820F931F9383828380E090E0DF91CF91D2
:101020000895FC01A181BB278281AA0FBB1FAA0FD3
:10103000BB1FAA0FBB1FA651BD4FFD018183838338
:1010400080E090E00895CF93DF93FC01DB01828183
:101050009927382F22278181280F311DED01388FE4
:101060002F8B8E8987FD0DC08823D9F002C036955D
:1010700027958A95E2F72115310599F421E030E0B2
:1010800010C0992787FD9095909581959F4F02C03C
:10109000220F331F8A95E2F72115310511F42FEF46
:1010A0003FEFFD0185899927FC01EE0FFF1FEE0F31
:1010B000FF1FE80FF91FEA0FFB1F8D919C911197FD
:1010C00097838683ED018D899927FC01EE0FFF1F21
:1010D000EE0FFF1FE80FF91FEA0FFB1F8A819B81AC
:1010E0009187808781ED96E08D939C933B832A8343
:1010F0008D898F5F8D8B81E090E0DF91CF91089596
:10110000CF93DF93DB01EB012D893327F901EE0F3C
:10111000FF1FEE0FFF1FE20FF31FE60FF71F2D91CA
:101120003C911197378326832D893327F901EE0FE0
:10113000FF1FEE0FFF1FE20FF31FEA0FFB1F2A81B5
:101140003B813187208723EF36E02D933C93FC01D0
:10115000818199279B838A838D898F5F8D8B81E025
:1011600090E0DF91CF910895FB018581887F858391
:1011700080E090E0089582E090E008950F931F933F
:10118000CF93DF93EC0119810E94AE1F2A81260FB5
:1011900009F421E0012F1127000F111F000F111F6B
:1011A000000F111FF801E651FD4F24830E94AE1F6E
:1011B0008B81861718F466958617E8F3E801C65107
:1011C000DD4F6D830E94AE1F8B81681729F40E944A
:1011D000AE1F8B818617D9F306511D4FF80163832B
:1011E00080E090E0DF91CF911F910F910895AF9231
:1011F000BF92CF92DF92EF92FF920F931F93CF9304
:10120000DF93CDB7DEB724970FB6F894DEBF0FBEDD
:10121000CDBF8C01E2E0AE2EB12CAC0EBD1E6E0136
:101220000894C11CD11C75E0E72EF12CEC0EFD1EBC
:10123000F801828193810196938382830197F999C2
:10124000FECF92BD81BDF89A20B5F8012483822F8C
:101250008F708983D501F8018281938101969383F0
:1012600082830197F999FECF92BD81BDF89A80B52E
:101270008D93AE15BF0579F722952F70E22FFF27CA
:10128000EE0FFF1FEF5EFE4F0190F081E02DB801E1
:10129000C6010995823021F0813009F0C9CF04C020
:1012A000F80185818860858324960FB6F894DEBFA7
:1012B0000FBECDBFDF91CF911F910F91FF90EF90A7
:1012C000DF90CF90BF90AF90089578941F920F92C7
:1012D0000FB60F9211242F933F934F935F936F9309
:1012E0007F938F939F9320910B0330910C038091F8
:1012F0001102853109F448C0809111028E3109F440
:1013000047C090E060E070E08EEF86BD40910A0338
:101310004F5F40930A034E3450F036FD32C035FF24
:1013200030C0309309032093080320E030E050914F
:101330000D039527892F9927062E02C0959587952D
:101340000A94E2F780FF28C0852F809580930D03D3
:101350004A3168F420E030E0992702C095958795DE
:101360006A95E2F780FF216010920A0315C02115EB
:10137000310591F3443380F036FDEECF220F331F59
:10138000EBCF20E030E0D3CF99B166E070E0BCCF86
:1013900093B161E070E0B8CF30930C0320930B035E
:1013A000809112028F5F809312029F918F917F91A3
:1013B0006F915F914F913F912F910F900FBE0F90C2
:1013C0001F9018950097B9F0892F992786958695D3
:1013D0008695982F9170209113022F5F209313020E
:1013E00080912301981751F01092130290932301DA
:1013F00081E090E0089580E090E008952A3029F09F
:101400002B30C9F78AE08093130281E090E00895C1
:1014100084E085BD80916E00816080936E00809134
:101420001102853139F0809111028E3109F0089551
:10143000299A08955E9A0895EF92FF920F931F9351
:10144000CF93DF93CDB7DEB721970FB6F894DEBF09
:101450000FBECDBFF894E0900803F09009031092FE
:101460000903109208037894C7010E94E2098823B7
:1014700019F481E090E028C18701002E012F000CB3
:10148000001F110B000C001F111F0F71C701809569
:101490009095880F892F881F990B80742E2D2F739C
:1014A000822B898384E291E00E94A416802F0E94FF
:1014B0008E1689810E948E168AE291E00E94A416FF
:1014C0000530B9F680910F02813009F443C099814B
:1014D000933109F466C0923109F459C0903209F48D
:1014E0006AC0913209F471C09C3009F478C0892F28
:1014F0008150893008F43FC0903109F484C09131A3
:1015000081F1903309F489C0973309F49AC09F3070
:1015100009F4A1C09E3009F46CC09C3209F469C082
:10152000892F8E52823008F4A0C09C3309F47FC00A
:10153000953209F47CC0943109F4A9C0953109F4BD
:10154000B0C09F3309F4B7C09B3209F498C080E063
:1015500090E0BAC099819C3009F2973309F089CFA5
:10156000C6CF40E050E060E070E084E10E94971157
:1015700080E090E0A9C0898340E050E0BE016F5F49
:101580007F4F81E20E94971180E090E09DC040E093
:1015900050E060E070E081E10E94971180E090E00F
:1015A00093C040E050E060E070E082E10E9497115B
:1015B00080E090E089C040E050E060E070E085E1CC
:1015C0000E94971180E090E07FC040E050E060E032
:1015D00070E086E10E94971180E090E075C040E0E5
:1015E00050E060E070E080E10E94971180E090E0C0
:1015F0006BC040E050E060E070E08CE10E94971129
:1016000080E090E061C040E050E060E070E083E1A5
:101610000E94971180E090E057C040E050E060E009
:1016200070E087E10E94971180E090E04DC040E0BB
:1016300050E060E070E08EE10E94971180E090E061
:1016400043C040E050E060E070E088E10E94971104
:1016500080E090E039C040E050E060E070E089E177
:101660000E94971180E090E02FC040E050E060E0E1
:1016700070E08DE10E94971180E090E025C040E08D
:1016800050E060E070E080E20E94971160CF40E09F
:1016900050E060E070E08AE10E94971180E090E005
:1016A00013C040E050E060E070E08BE10E949711D1
:1016B00080E090E009C040E050E060E070E08FE141
:1016C0000E94971180E090E021960FB6F894DEBF5B
:1016D0000FBECDBFDF91CF911F910F91FF90EF9083
:1016E0000895F999FECF92BD81BDF89A80B59927EA
:1016F0000895F999FECF1FBA92BD81BD60BD0FB6A6
:10170000F894FA9AF99A0FBE089560918101709148
:10171000820121E73BE042E350E00E94CE1F0895A2
:10172000CF93DF93C0E0D0E0BC018EE093E00E9455
:10173000C51F892B11F4C1E0D0E0CE01DF91CF911C
:101740000895DC01FC0101900020E9F731974E2F4C
:10175000481B433328F0FC0111AA42E350E003C0C8
:1017600055274F5F5F4F29E73BE0BD018091810125
:10177000909182010E94EB1F089521E73BE042E037
:1017800050E060E070E08AE493E00E94CE1F809118
:101790004B03882309F44EC08FEF8093020310920D
:1017A000D7028FE696E09093C2028093C10288E749
:1017B00092E09093C4028093C3028091C602877F17
:1017C0008093C6028AEF8093EB028093ED028091B2
:1017D0000E02886080930E0210920F0280910E021A
:1017E0008F7D80930E02609181017091820121E7CB
:1017F0003BE042E350E08EE093E00E94CE1F8091F8
:101800000E038F3F09F00895AEE0B3E0E3E7F1E0A7
:101810008EE001900D928150E1F729E73BE042E331
:1018200050E06EE073E080918101909182010E940E
:10183000EB1F089521E73BE04EE150E062E070E0ED
:101840008AEE92E00E94CE1F21E73BE049E150E0A2
:1018500060E270E081EC92E00E94CE1F21E73BE065
:1018600040E150E069E370E08AED92E00E94CE1F13
:1018700021E73BE044E050E069E470E08EE092E074
:101880000E94CE1FB0CF0F931F9310924B0309E716
:101890001BE0980142E050E06AE473E080E090E0F1
:1018A0000E94EB1F98014EE150E06AEE72E082E088
:1018B00090E00E94EB1F980149E150E061EC72E07A
:1018C00080E290E00E94EB1F980140E150E06AED59
:1018D00072E089E390E00E94EB1F980144E050E041
:1018E0006EE072E089E490E00E94EB1F1F910F917F
:1018F00008959C017727762F662740E007C0220FC6
:10190000331F4F5F483081F0660F771FCB0182276E
:10191000932797FFF4CF220F331F81E290E128270E
:1019200039274F5F483081F7C901089582E58CBDA2
:1019300008959C01EA982C98892F99278EBD0DB4A3
:1019400007FEFDCF8EB52EBD0DB407FEFDCF2EB523
:101950009927982F88272C9AEA9A3327822B932B42
:101960000895CF93DF93CDB7DEB724970FB6F894E1
:10197000DEBF0FBECDBF84B1806B84B926982C9A90
:101980002E9A0E94960C2B9A2B9819821A821B82EF
:101990001C8289819A81AB81BC81805A9B4BAD406E
:1019A000B040A0F489819A81AB81BC810196A11DD0
:1019B000B11D89839A83AB83BC8389819A81AB8172
:1019C000BC81805A9B4BAD40B04060F32B9A20E025
:1019D00080E094EB0197F1F72F5F2436C9F780EE92
:1019E00090EC0E94990C87ED90E80E94990C8BEA8C
:1019F00092EC0E94990C81E89AEC0E94990C80E08C
:101A000090EE0E94990C80E098EC0E94990C87EF70
:101A100094EC0E94990C80E090E00E94990C8091D7
:101A20004C03887F80934C0322982A9A8091690006
:101A3000806280936900EA9A24960FB6F894DEBF1C
:101A40000FBECDBFDF91CF91089599278770907019
:101A5000880F991F82959295907F9827807F98276D
:101A6000552747705070842B952B946977276370A6
:101A70007070660F771F660F771F660F771F862BB4
:101A8000972B0E94990C08958036910548F02FE01D
:101A90008034920710F4906A05C08FE39FE0FBCF7B
:101AA00080E690EA0E94990C089522E08739920717
:101AB00020F125E18831920788F49C0144275527BD
:101AC00060E678EA80E090E00E940323DA01C90131
:101AD00001978068966C0E94990C08959C01442798
:101AE00055276CEF72E485E090E00E94E122DA0174
:101AF000C9010197966C0E94990C089599278770E7
:101B00009070986977276F70707062957295707F8A
:101B10007627607F7627862B972B0E94990C089555
:101B200080914C0382FD1DC081FD1EC080FF03C05B
:101B300083E090E0089588EC92E80E94990C81E897
:101B40009AEC0E94990C83E89AEC0E94990C1092EE
:101B5000140280914C03816080934C0380E090E0FC
:101B6000089581E090E0089582E090E008951F9349
:101B7000CF93DF93EC0180914C0380FD50C082FF36
:101B800049C08B7F80934C03809183018823B1F4FB
:101B900040914D03442309F440C020E0E22FFF2789
:101BA000DF01AC0FBD1FE35BFC4F81818C932F5F86
:101BB00080914D03281790F3992733C0A0E0B0E03F
:101BC00010E0E0E0F0E0E35BFC4F6081CD010E94BB
:101BD000790CDC011F5FE12FFF2740914D03842F1B
:101BE00099270196E817F90774F3E35BFC4F20810E
:101BF00033271F5FE12FFF27E35BFC4F808199278D
:101C0000982F8827822B932BA817B90719F280E009
:101C100090E007C08EEF90E004C080E0CDCF8FEF62
:101C200090E0DF91CF911F91089580914C0381FF47
:101C300003C08FEF90E0089580E090E0089588E081
:101C400092E80E94990C80914C03887F80934C030A
:101C500080E090E00E94990C0895EF92FF920F931C
:101C60001F93CF93DF93EC01F62E0E943E1F8091CD
:101C70004C0381FD74C094E69F1518F484E090E055
:101C800070C0826080934C0389E0F80EF0921402D9
:101C900097EFF90E80911402E82FFF27E35BFC4FCA
:101CA0009AEA90838150E82FFF27E35BFC4F9083F3
:101CB0008150E82FFF27E35BFC4F90838150E82F92
:101CC000FF27E35BFC4F9DE290838150E82FFF27C5
:101CD000E35BFC4F94ED90838150E82FFF27E35B9B
:101CE000FC4FF082E82EEA946F2D80E090E00E9495
:101CF000790C9C01FF2091F01E2D00E0E12FFF27C1
:101D0000E35BFC4F8881808311506991C9010E9477
:101D1000790C9C010F5F0F1589F7EF18EE2DFF2747
:101D2000E35BFC4F2083EE2DE150AE2FBB27A35B7E
:101D3000BC4F832F99278C93E150AE2FBB27A35B19
:101D4000BC4F8AEA8C93E150FF27E35BFC4F808312
:101D500088E392E80E94990C80E090E002C082E063
:101D600090E0DF91CF911F910F91FF90EF90089538
:101D700078941F920F920FB60F9211242F933F93D6
:101D80004F935F936F937F938F939F93AF93BF9383
:101D9000EF93FF9380914C0380FF27C08091140242
:101DA0008436C8F188E092E80E94990C0E94371F9F
:101DB00080914C038E7F80934C0320911402332733
:101DC00080914D0399270396281739070CF447C0D3
:101DD00088E092E80E94990C0E94371F80914C0382
:101DE0008E7F846080934C033AC081FF38C0E091BD
:101DF0001402FF27E35BFC4F80819927986B0E94B8
:101E0000990C809114028823F9F08091140281507A
:101E10008093140224C00E94321F80E090EB0E9445
:101E2000990C282F80911402882319F4253608F084
:101E300024E680911402E82FFF27E35BFC4F208308
:101E40008F5F80931402B9CF80914C038D7F809374
:101E50004C0388E092E80E94990C0E94431FFF9176
:101E6000EF91BF91AF919F918F917F916F915F9112
:101E70004F913F912F910F900FBE0F901F9018958B
:101E80000895982FEFE1F2E020E030E0808189179B
:101E9000E9F02F5F3F4F32962A303105B9F7809134
:101EA0001E02E82FFF27EE0FFF1FE15EFD4F90831C
:101EB00061838F5F80931E028A3019F081E090E089
:101EC000089510921E0281E090E0089590E0F901DB
:101ED000EE0FFF1FE15EFD4F8181861391E061836C
:101EE000892F9927089580911A028F5F80931A0293
:101EF0009927089520E030E080918401853011F425
:101F000021E030E0C9010895CF93DF93EC01809187
:101F10008401853019F081E090E03EC01092840188
:101F20008C8180FF2AC082E480935E0481E08093EC
:101F30001B02809317029C8191FF06C081E0809371
:101F40001D0282E098279C8380911A0280935F048F
:101F50004E815527495F5F4FBE0180E694E00E94A5
:101F6000BC1F8E81875F80931802809115028B7F42
:101F70008093150280E090E00FC080E580935E04BE
:101F800010921B028AE0809317028B818093BD031D
:101F90008A818093BE03CFCFDF91CF910895CF93F5
:101FA000DF93EC0180911D02882301F1209115023D
:101FB000822F992782FD02C081FF1AC01E82809164
:101FC000600489830E94551B88830E94551B8A8365
:101FD0000E94551B8B838EEF8D838091150281FFAC
:101FE00017C088E08C8381E090E016C02091150234
:101FF00020FD03C080E090E00FC0FE01ADEFB4E033
:1020000087E00D9001928150E1F781E090E004C0FB
:1020100084E08C8381E090E0DF91CF910895FC0112
:1020200080911D028823A9F080911502282F332763
:1020300022FD02C021FF0FC0CF010E94CF0F80916F
:102040001502897F8093150210921D0280E090E0B6
:1020500008958091150280FD03C081E090E008950D
:10206000409103055527495F5F4F6DEF74E0CF0145
:102070000E94BC1F8091150291E089278093150270
:1020800080E090E00895EF92FF920F931F93CF931B
:10209000DF93CDB7DEB724970FB6F894DEBF0FBE3F
:1020A000CDBF8C01FC018081813461F042E0E42EDF
:1020B000F12CE00EF11E823409F452C0803509F093
:1020C0006AC019C0218180911A028F5F281709F018
:1020D00062C09091BD038281981709F05CC0909115
:1020E000BE038381981709F056C081E080931902DE
:1020F00020931A0250C0C7010E945D1B882321F45F
:1021000080911C02882389F081E48983F801818110
:102110008F5F8A8384818C8385818B830E941F0ECD
:1021200064E0CE0101960E942D0EF8016181848148
:102130000E94410F882321F480911C02882359F1C9
:10214000F80140855527495F5F4FB7018DEF94E057
:102150000E94BC1F809115028160809315021BC0F4
:10216000C7010E94691B882321F480911C028823E7
:1021700079F0F80140855527495F5F4FB7018DEF32
:1021800094E00E94BC1F809115028160809315022B
:10219000F801808193CF24960FB6F894DEBF0FBE6E
:1021A000CDBFDF91CF911F910F91FF90EF900895D8
:1021B0000E941F0E609118028EE594E00E942D0E81
:1021C00008958FEB93E00E94B70D682F81508D3FEB
:1021D00058F10E94150E882331F5809184018230D8
:1021E00041F1833070F48823F1F58091170281501A
:1021F000809317028F3F09F468C081E080938401C7
:102200000895843049F50E94900D80911902882329
:1022100009F050C0809116028150809316028823E5
:1022200011F41092840108958FEB93E00E94431003
:10223000D0CF80911602815080931602882399F79F
:1022400080E090E00E94990C90FDD7CF0E94D810BA
:1022500083E08093840108958430A0F0853019F7DD
:102260000E94900D08958130F1F680E090E00E9488
:10227000990C90FDD8CF83E08093160282E0809382
:10228000840108950E94150E882369F60E94900D1E
:1022900084E1809316021092190280911B02882318
:1022A000E9F08091150284608093150285E08093A7
:1022B00084010895809115028460809315020E9424
:1022C000900D85E0809384010895809115028260CD
:1022D0008093150285E080938401089584E08093C3
:1022E000840108951092ED028091ED028093EB023B
:1022F0001092F5028091F5028093F3021092FD0294
:102300008091FD028093FB0208959093C202809316
:10231000C1027093C4026093C3028091C602877F9A
:102320008093C6021092D6020E94721108950F93F4
:102330001F93CF93DF93EB018A01823109F446C0EA
:10234000813109F44FC0853109F458C0863109F450
:1023500075C0803109F45EC0813209F455C0833103
:1023600009F490C0843109F49BC0873109F47CC022
:10237000883109F4B5C0893109F4A7C08C3109F45A
:10238000AAC08D3109F4B1C08E3109F4B9C08A31C7
:1023900009F4BCC08B3109F4CAC08F3109F4D8C02C
:1023A000803209F4E5C0863509F4F1C0873409F0BC
:1023B0000DC180910F02FA0180838091D702818341
:1023C00080910203828383E090E0ACC1809102039C
:1023D0008823E9F08091020381508093020380E01A
:1023E00090E0A0C1809102038F3F89F080910203A9
:1023F0008F5F8093020380E090E094C18FEF809321
:10240000020380E090E08EC168816930E0F080E0F6
:1024100090E088C180910F02813009F450C0809112
:102420000F02863061F180910F028093100280E0EC
:1024300090E00E94541480E090E074C11092020376
:1024400080E090E06FC1E62FFF27EE0FFF1FEE0F39
:10245000FF1FE356FE4F62817381808191810E944C
:10246000851180E090E05EC180910F02823009F416
:1024700042C082E080930F0280E090E053C110924E
:102480001002D5CF8091D70288300CF68F5F8093F1
:10249000D70281EC92E00E94710780E090E042C197
:1024A0008091D702893F0CF4B2CF81508093D7023C
:1024B00081EC92E00E94710780E090E033C184E0FB
:1024C00080930F0280E090E02DC185E080930F02A1
:1024D00080E090E027C11092040380E090E022C1E8
:1024E0000E94430C80E090E01DC181E080930403D2
:1024F00080E090E017C110920F0280E090E012C1DE
:1025000082E08093040380E090E00CC1E09104033A
:10251000FF27EE0FFF1FEE0FFF1FEE0FFF1FE6510D
:10252000FD4F81818F5F818380E090E0FBC0E0916F
:102530000403FF27EE0FFF1FEE0FFF1FEE0FFF1F1D
:10254000E651FD4F81818150818380E090E0EAC0B7
:10255000E0910403FF27EE0FFF1FEE0FFF1FEE0FAA
:10256000FF1FE651FD4F8FEF818380E090E0DAC0DE
:10257000E0910403FF27EE0FFF1FEE0FFF1FEE0F8A
:10258000FF1FE651FD4F118280E090E0CBC08091AB
:10259000110299279F938F9385E891E09F938F93E2
:1025A0001F930F930E940820F80101900020E9F783
:1025B0003197E01B8E2F99272DB73EB72A5F3F4FEB
:1025C0000FB6F8943EBF0FBE2DBFACC0833751F19C
:1025D000833509F4A2C0843409F499C0833409F422
:1025E0008EC0823709F486C0883709F468C08F34FA
:1025F00009F460C08E3409F445C08735C1F18135D6
:1026000079F1813441F1883511F1863489F08B34C8
:1026100009F0FDCE86E00E94FE1E9F938F9388E90D
:1026200091E0BCCF88818093D70280E090E07AC0AF
:102630002B813327322F22278C81280F311D4A818D
:10264000698188810E94221480E090E06BC0109222
:10265000C9011092C8010E945C1480E090E062C041
:102660001092C9011092C80180E090E05BC088819F
:102670008823C1F080910E02806280930E0280E078
:1026800090E050C0CB010E94A10BC80101960E94AE
:10269000850BF80101900020E9F73197E01B8E2FA0
:1026A000992740C080910E028F7D80930E0280E0BA
:1026B00090E038C00E94501480E090E033C0CB011D
:1026C0000E94900B882309F4A2CEFE010190002005
:1026D000E9F73197EC1B8E010E0F111DF801628195
:1026E00081810E94971CF80183810E944A1480E036
:1026F00090E018C00E94550280E090E013C04A812B
:10270000698188810E94391480E090E00BC0888143
:102710008093020380E090E005C0888180930F02DF
:1027200080E090E0DF91CF911F910F910895FC011F
:10273000AB01BC016F5F7F4F80810E949711992789
:102740000895CF93DF93CDB7DEB724970FB6F894F3
:10275000DEBF0FBECDBF19821A821B821C82898107
:102760009A81AB81BC8180519742A040B040A0F4D7
:1027700089819A81AB81BC810196A11DB11D89839C
:102780009A83AB83BC8389819A81AB81BC81805160
:102790009742A040B04060F383E00E943219882342
:1027A000B1F00E94B10C80EC96E00E94440D44E030
:1027B00061E084E00E94250D80E09BE40E94550DBD
:1027C00066E080E00E947E0D80E00E94400F24962B
:1027D0000FB6F894DEBF0FBECDBFDF91CF91089545
:1027E00081E08093CA0180910E0286958695869538
:1027F000817080933E02089580913B0290913C024B
:10280000892B41F08091C6019091C70190933C02C1
:1028100080933B0280910F02823099F080910F02E9
:10282000873079F080910F028093100282E08093CC
:102830000F028091C6019091C70190933C02809352
:102840003B0208958093ED026093F5024093FD02F0
:10285000832F99278093EF022093EE028093F70253
:102860002093F6028093FF022093FE020E94FC1345
:102870000895F8948093EB028093ED026093F30245
:102880006093F5024093FB024093FD0278940E940E
:10289000FC13089580933D0282E08093CA0108955D
:1028A00083E08093CA0108959093400280933F0291
:1028B00083E080930F02089590910E038091CA01E6
:1028C000833049F0692F892F0E94971C81E00E9474
:1028D0004A140E94501408950F931F93CF93DF93CF
:1028E00080910F02853009F4B8C08630A0F187309E
:1028F00009F4E0C0873008F452C0883009F4D0C031
:10290000893009F488C02091C8013091C90121158E
:10291000310569F08091CB019091CC0101979093A2
:10292000CC018093CB018F5F9F4F09F4E8C0809169
:102930003B0290913C02009709F44CC1019790939F
:102940003C0280933B02892B09F044C18091100224
:1029500080930F023FC1823009F477C0833098F032
:10296000833009F4B0C0843071F680910303809302
:10297000020380910E02886080930E028091100203
:1029800080930F02C0CF882309F0BDCF81E08093F0
:102990003E0280910E02886080930E02B4CF809137
:1029A000330290913402A0913502B0913602019623
:1029B000A11DB11D8093330290933402A093350280
:1029C000B09336022091370230913802409139029B
:1029D00050913A0282179307A407B50709F093CFE5
:1029E0001092330210923402109235021092360285
:1029F0008091020381508093020380910203882317
:102A000009F081CF81E080930F0280910E02877FD1
:102A100080930E0278CF80913F02909140020197FF
:102A20009093400280933F028F5F9F4F09F06BCFDE
:102A300012B883B7817F846083BF83B7816083BF0F
:102A4000889583B78E7F83BFF8CF10923E02809126
:102A50000E02877F80930E0256CF1092330210929F
:102A600034021092350210923602609102037727E9
:102A700084EE97E50E94CE22882777FD8095982FD7
:102A800060933702709338028093390290933A0230
:102A9000809102038093030386E080930F0233CF7B
:102AA00088EB9BE09093400280933F0289E0809303
:102AB0000F0229CF81E080933E0280910E02877F32
:102AC00080930E0220CF80913F02909140020197A7
:102AD0009093400280933F028F5F9F4F09F013CF86
:102AE00080910203809303031092020380910E02EF
:102AF000877F80930E0281E080930F0204CF309392
:102B0000CC012093CB0186E00E94FE1EEC01809157
:102B1000CA01813039F11092AC0680913D02809358
:102B2000A9060E94551B8093A8060E94551B8093FE
:102B3000AA068FEF8093AD068091CA01813099F18A
:102B4000823009F443C0809111028E3170F481E02B
:102B50008093AE0682E48093AF0688EA96E00E94F6
:102B6000E71BE5CE8093AC06D8CF0FEA16E0DF93E3
:102B7000CF9381EC91E09F938F931F930F930E94CB
:102B80000820F80101900020E9F78F01005B164052
:102B90000093AE068DB79EB706960FB6F8949EBF0B
:102BA0000FBE8DBFDACF0FEA16E082E58093AF0645
:102BB000C80101960E94850BF80101900020E9F7F9
:102BC0008F01005B16400093AE06C7CF0FEA16E0F8
:102BD00089E4ECCFDF91CF911F910F9108958091FF
:102BE0000F02893069F080910F02883049F060E56A
:102BF00074E08FE696E00E94851188E080930F02D2
:102C000008951F920F920FB60F9211242F938F9356
:102C10009F93EF93FF939091C8002091CE00E09195
:102C2000A302EF5FEF718091A402E81749F0892FAA
:102C30008871E093A302FF27EF57FD4F208301C067
:102C400082E08093A502FF91EF919F918F912F9148
:102C50000F900FBE0F901F9018951F920F920FB6F6
:102C60000F9211248F939F93EF93FF939091A10262
:102C70008091A202981769F0E091A202EF5FEF73D2
:102C8000E093A202FF27EF5BFD4F80818093CE008F
:102C900005C08091C9008F7D8093C900FF91EF919D
:102CA0009F918F910F900FBE0F901F9018959C01D0
:102CB0001092A1021092A2021092A3021092A402FA
:102CC00097FF04C082E08093C8003F77832F992745
:102CD0008093CD002093CC0088E98093C90086E0E2
:102CE0008093CA0008959091A3028091A40298173E
:102CF00091F0E091A402EF5FEF71E093A402FF274F
:102D0000EF57FD4F20818091A5029927982F8827A2
:102D1000820F911D089580E091E00895282F9091F1
:102D2000A1029F5F9F738091A2029817E1F3E92FA0
:102D3000FF27EF5BFD4F20839093A1028091C90094
:102D400080628093C9000895CF93DF93EC0188815E
:102D5000882331F021960E948E1688818823D1F72E
:102D6000DF91CF910895CF93DF93FC018491882365
:102D700049F0EF0121960E948E16FE012196849162
:102D80008823C9F7DF91CF91089581E090E00895FD
:102D900008958091A6029091A70208958BE995E08D
:102DA00008951092A7021092A6020895CF93DF9380
:102DB0000E947316EC0190FF03C080E090E042C0D7
:102DC0000E94321F2C2FC13619F18091A90288234D
:102DD00031F01092A902C33679F1C23631F18091F7
:102DE000AA029091AB02FC01E656FA4F20830196AD
:102DF0009093AB028093AA028E509140F4F28DE042
:102E000091E09093AB028093AA0280E090E01AC018
:102E10008091A902882331F481E08093A90280E0A7
:102E200090E010C01092A902DACF0E94371F809163
:102E3000AA029091AB0206C01092AB021092AA02B5
:102E400080E090E0DF91CF910895FF920F931F9360
:102E5000F82E062F142F0E94F013612F802F0E944E
:102E60009F1CF092A8021F910F91FF9008958091EE
:102E7000A6029091A702892B09F008950E94D61608
:102E80000097D9F320919A05293479F02735B1F0CC
:102E9000223729F09093A7028093A6020895019704
:102EA0009093A7028093A602089540919D0560919A
:102EB0009C0580919B050E942517089540E050E0F5
:102EC0006BE975E087E50E9497110895CF93DF9332
:102ED000EC018091A6029091A702892B51F080917C
:102EE0009A05803549F0823439F01092A702109289
:102EF000A60280E090E01AC09091A8029883809189
:102F00009B0589839A830E94551B8B8382E08C8367
:102F100080919A05823439F08091A60282508E8386
:102F200081E090E003C083E08C83F6CFDF91CF9106
:102F30000895CF93DF93EC018091A6029091A702B0
:102F4000892B19F481E090E011C0CE010E94661730
:102F50004E8155276CE975E0CE0107960E94BC1F93
:102F60001092A7021092A60280E090E0DF91CF912C
:102F7000089581E60E948E1682E60E948E160895BC
:102F800081E60E948E1683E60E948E160895EF92C7
:102F9000FF920F931F93CF93DF93EC017B01672B7D
:102FA000C1F000E010E008C00E948E160F5F1F4FB6
:102FB0000E151F0571F0219688818136A9F70E94B0
:102FC0008E1688810E948E160F5F1F4F0E151F05EB
:102FD00091F7DF91CF911F910F91FF90EF9008959E
:102FE000CF93DF93EC018881882339F411C02196B7
:102FF0000E948E168881882359F08136C1F70E947D
:103000008E16888121960E948E1688818823A9F7C2
:10301000DF91CF9108951F93182F813619F481E61F
:103020000E948E16812F0E948E161F9108950F9375
:103030001F938C0181E60E948E1683E60E948E16F5
:10304000C8010E94F01781E60E948E1682E60E9457
:103050008E161F910F910895CF93DF93EC010E947C
:103060003E1F8C81992782FD2EC083FD27C08E8153
:103070008823A1F181E60E948E1683E60E948E16B7
:103080008C8180FF27C082E40E940B1880E00E94A0
:103090000B1889810E940B1888810E940B186E8181
:1030A0007727CE0107960E94C71781E60E948E16E9
:1030B00082E60E948E160E94431F10C080ED91E0B0
:1030C0000E941718D4CF8DEC91E00E9417188C81C4
:1030D0009927CBCF80E50E940B18D8CF80E090E0F5
:1030E000DF91CF9108951F93182F81E60E948E16CD
:1030F00083E60E948E16812F0E940B1881E60E94A3
:103100008E1682E60E948E161F9108958091AC0261
:103110008111089589E40E94731881E08093AC02C4
:10312000089508950E94BC1D08950E94591D992775
:103130000895CF93DF93EC018091B102882321F0B1
:103140008091AE02882391F40E94841D079718F4A1
:1031500080E090E01CC0FE01A5E4BBE087E00D909C
:1031600001928150E1F781E090E011C01E828091D0
:10317000AD0289830E94551B88830E94551B8A8358
:103180000E94551B8B8384E08C8381E090E0DF916B
:10319000CF910895CF93DF93EC018091B102882302
:1031A00021F08091AE028823B1F40E94841D892B06
:1031B00019F481E090E018C00E94841DAC0165E420
:1031C0007BE0CE010E94BC1F0E94641D0E94671D0F
:1031D00080E090E009C0CE010E9499181092AE02E2
:1031E0001092B10280E090E0DF91CF910895CF93EB
:1031F000DF93EC019C8191FF09C082E098279C83BA
:1032000081E08093AE0288818093AD024E81552784
:10321000495F5F4FBE0183E59CE00E94BC1F8E8129
:10322000992707960E94631D80E090E0DF91CF917F
:1032300008950E94961D0895382F209100022223A0
:1032400081F0E3EDF1E090E004C09F5F3F969217BC
:1032500041F080818317C9F766879F5F3F96921779
:10326000C1F70895A82F709100027723E9F08091AB
:10327000D3018A17E1F060E014C0262F3327A9019B
:10328000440F551FFA01E20FF31FCF01880F991F5A
:10329000880F991FE80FF91FED52FE4F80818A17A2
:1032A00051F06F5F671749F780E090E0089520E0E4
:1032B00030E040E050E0FA01E20FF31FCF01880F49
:1032C000991F880F991FE80FF91FED52FE4F868551
:1032D00099270895A82F709100027723E9F0809133
:1032E000D3018A17E1F060E014C0262F3327A9012B
:1032F000440F551FFA01E20FF31FCF01880F991FEA
:10330000880F991FE80FF91FED52FE4F80818A1731
:1033100051F06F5F671749F78FEF90E0089520E055
:1033200030E040E050E0FA01E20FF31FCF01880FD8
:10333000991F880F991FE80FF91FED52FE4F8585E1
:10334000992708951F9340910002442309F110E04A
:1033500003C01F5F1417E0F4812F99279C01220FEF
:10336000331F280F391FF901EE0FFF1FEE0FFF1F4C
:10337000E20FF31FED52FE4F8685882351F301843F
:10338000F285E02D0995409100021F5F141720F38C
:103390001F910895CF93DF93782F8E5F8230C0F115
:1033A000A0910002AA23E9F08091D3018717E1F0F0
:1033B00060E014C0262F3327A901440F551FFA01DE
:1033C000E20FF31FCF01880F991F880F991FE80F95
:1033D000F91FED52FE4F8081871751F06F5F6A171A
:1033E00049F780E090E01BC020E030E040E050E092
:1033F000CA01820F931FDC01AA0FBB1FAA0FBB1FBC
:10340000A80FB91FAD52BE4FED018E85882319F468
:1034100081E090E004C0EF81F88509959927DF915C
:10342000CF9108951F93CF93DF93182FEB017091E5
:1034300000027723E9F08091D3018117E1F060E089
:1034400014C0262F3327A901440F551FFA01E20F9C
:10345000F31FCF01880F991F880F991FE80FF91FDD
:10346000ED52FE4F8081811751F06F5F671749F76A
:1034700081E090E017C020E030E040E050E0FA0149
:10348000E20FF31FCF01880F991F880F991FE80FD4
:10349000F91FED52FE4F0380F481E02DCE01099516
:1034A0001D839927DF91CF911F910895EF92FF928D
:1034B0001F93CF93DF937C0140910002442319F1C5
:1034C00010E003C01F5F1417F0F4812F99279C01AF
:1034D000220F331F280F391FE901CC0FDD1FCC0F3E
:1034E000DD1FC20FD31FCD52DE4F8E85882351F3CF
:1034F000ED81FE81C7010995882341F440910002C6
:103500001F5F141710F38EEF90E005C08881F7015C
:10351000858388819927DF91CF911F91FF90EF904C
:1035200008951F93CF93DF93182FB0910002BB2310
:10353000E9F08091D3018117E1F0A0E014C02A2FB7
:103540003327A901440F551FFA01E20FF31FCF01E2
:10355000880F991F880F991FE80FF91FED52FE4F32
:103560008081811751F0AF5FAB1749F781E090E0A0
:103570001DC020E030E040E050E0CA01820F931F00
:10358000DC01AA0FBB1FAA0FBB1FA80FB91FAD52AA
:10359000BE4FED018E85882319F480E090E006C0CF
:1035A000ED01E981FA81CB0109959927DF91CF914E
:1035B0001F9108950F931F93CF93DF93082FEB0173
:1035C000509100025523E9F1E3EDF1E090E020E0B5
:1035D00004C09F5F3F96951759F080818017C9F707
:1035E00083858823B1F321E09F5F3F969517A9F764
:1035F000222339F110E004C01F5F151708F04EC0F8
:10360000812F99279C01220F331F280F391FF901A1
:10361000EE0FFF1FEE0FFF1FE20FF31FED52FE4FE5
:103620008081801749F38685882331F30180F281F8
:10363000E02DCE010995509100021F5F151700F390
:103640002DC0442341F5552349F110E003C01F5F0D
:10365000151720F5812F99279C01220F331F280F62
:10366000391FF901EE0FFF1FEE0FFF1FE20FF31FCF
:10367000ED52FE4F8081801751F38485882339F302
:103680008685882321F30180F281E02DCE01099502
:1036900050910002DCCF552309F0ACCF80E090E0E0
:1036A000DF91CF911F910F9108958091AF029927DB
:1036B00008958091B0029927089520E030E0FC0140
:1036C00093818091AF02981711F421E030E0C90195
:1036D000089520E030E0FC0191818091B0029817BC
:1036E00011F421E030E0C90108958823B9F0209158
:1036F000AF02821799F08130A1F0823001F183305E
:10370000A9F0843009F448C08530E1F4822F99276C
:1037100083FF09C0807F9070C09729F481E090E01A
:10372000089523FDFBCF80E090E00895822F992734
:1037300083FFF9CF807F90704097A9F7EFCF23FDEB
:10374000F2CFECCF863029F4822F992783FDEBCF7F
:10375000F1CF8730B1F0883049F1893091F18A306A
:1037600041F480E090E0207F2032D1F681E090E0CB
:1037700008958B30C1F680E090E0207F2033B1F3D4
:103780000895332723FDCFCF80E090E0207F307075
:103790002032310559F30895822F992783FFC3CF33
:1037A000807F9070809709F0BECFB8CF332723FD7C
:1037B000BACF80E090E0207F307020333105B1F245
:1037C000089580E090E0207F203181F20895CF932A
:1037D000DF93EC0180910E0285FD33C08C8180FF68
:1037E00011C09D819F3FE1F42FEF8091AF028A834A
:1037F00089818B839F3F01F140E0BE01822F0E94AF
:10380000DA1A1FC08091AF028A83CE010E94D91CB0
:103810008B83CE010E94C91CBE010E94911A11C067
:10382000CE010E94B91C282F9D818091AF028A830E
:1038300089818B839F3F01F741E0BE01822F0E9467
:10384000DA1ADF91CF910895CF93DF93EC010E94B4
:10385000161D8C8180FD0AC09091AF028981891765
:1038600001F18B81981709F03FC017C0CE010E946B
:10387000E71B89810E94751B882359F58C8181FF84
:1038800033C084E08C831E82888189838091AF025B
:103890008883CE010E94E71B27C0CE010E94E71B50
:1038A00023C0CE010796BC010E949713982F88234E
:1038B000B9F48C8181FF18C084E08C839E83888159
:1038C00089838091AF028A838883CE010E94E71B9F
:1038D0000BC060E070E0CE0107960E949713CECF38
:1038E0008C8181FFEBCFE8CFDF91CF9108951F93BB
:1038F0000E94A2190E94F41C88EA96E00E94561ABF
:10390000182F8E3F91F088EA96E00E94C91C0E9411
:10391000CA19882351F068EA76E0812F0E94121AB2
:10392000612F88EA96E00E94241C1F9108958093DD
:10393000AF026093B0026FEF0E94E91C089580937C
:10394000AF026093B0020E94AB1C6FEF8091AF0298
:103950000E94E91C0895E5E4F7E08EEF8083118270
:103960008FEF8283138234968BE0E534F807A9F752
:103970000895CF93DF93EC01EA81FF27EE0FFF1F3D
:10398000EE0FFF1FEB5BF84F80819927DF91CF91FE
:103990000895CF93DF93EC01EB81FF27EE0FFF1F1C
:1039A000EE0FFF1FEB5BF84F80819927DF91CF91DE
:1039B0000895CF93DF93EC01E981FF27EE0FFF1FFE
:1039C000EE0FFF1FEB5BF84F81819927DF91CF91BD
:1039D0000895E82FFF27EE0FFF1FEE0FFF1FEB5B91
:1039E000F84F6083818308958091010290910202D3
:1039F000019790930202809301028F5F9F4F09F01D
:103A0000089588EE93E09093020280930102E5E42A
:103A1000F7E005C034968BE0ED33F80789F3838136
:103A2000815083838F3FB1F78283F4CFFF920F934E
:103A30001F93CF93DF93EC01F62E1881862F0E94FF
:103A40006A19082F0E94551B811711F01123C9F420
:103A50001A810E94551B181731F19A81992319F187
:103A6000E92FFF27EE0FFF1FEE0FFF1FEB5BF84F55
:103A700082818017C0F0F082918302838CE383837C
:103A800012C0E12FFF27EE0FFF1FEE0FFF1FEB5BB2
:103A9000F84F82818017E0F2F0828A81818302836D
:103AA0008CE38383D5CFDF91CF911F910F91FF904E
:103AB00008958091B50290E0811191E081E098270E
:103AC000892F9927089508951092B302089580913F
:103AD000B3028823C1F48091B2028823A1F48091BB
:103AE000B502882381F49FB7F89480E98093C100E0
:103AF000449845981092B2021092C0021092BF02F0
:103B00001092B3029FBF08958091BF029091C002AE
:103B1000892B49F08091B302882329F08091BF025C
:103B20009091C002089580E090E008959FB7F894C6
:103B30001092C50089E08093C40086E08093C200A3
:103B4000E1ECF0E0808188698083E0ECF0E0808146
:103B50008D7F80839FBF3C9A3D9A1092BE02109247
:103B6000BD021092C0021092BF021092BC021092CD
:103B7000BB020E94671D08958091BD029091BE0214
:103B8000892B21F08091B502882369F08091BD02D4
:103B90009091BE02892B19F48091B302811108958E
:103BA0000E94671D08958091B202882379F7809161
:103BB000BD029091BE02EACF1F920F920FB60F92F4
:103BC00011242F933F934F935F936F937F938F9322
:103BD0009F93AF93BF93EF93FF938091B502813092
:103BE00099F08091B5028230E1F08091B502833086
:103BF000B9F18091B502843009F452C08091B502C8
:103C0000853009F055C03EC080E38093C6008091A6
:103C1000B5028F5F8093B5021092B9021092B8027C
:103C200047C08091BA02882321F52091B8023091D3
:103C3000B902F901ED5AF34F80818C35A9F18081E9
:103C40008093C6002F5F3F4F3093B9022093B80294
:103C50008091BD029091BE022817390749F503C033
:103C60008CE58093C6008091B5028F5F8093B5028A
:103C70001FC08093C6001092BA022091B802309102
:103C8000B902E0CF1092B50281E08093B4021092A5
:103C9000BE021092BD028093B1020E94671D08C04F
:103CA00081E38093C600DFCF8093C6008093BA0281
:103CB000FF91EF91BF91AF919F918F917F916F9104
:103CC0005F914F913F912F910F900FBE0F901F90DA
:103CD00018951F920F920FB60F9211242F933F93B6
:103CE0008F939F93EF93FF938091C00083FD04C057
:103CF0008091C00084FF03C08091C6003FC0209126
:103D0000C60031E03093B2022C35C1F08091B70289
:103D1000882331F01092B702203351F12133C1F0E2
:103D20008091BF029091C002FC01EB5BF44F2083B5
:103D300001969093C0028093BF0220C08091B70289
:103D4000882319F01092B702EBCF3093B70216C058
:103D50001092B2028091BF029091C002892B11F0A3
:103D60003093B3028FB7F8941092C1008FBF06C092
:103D70003093B6021092C0021092BF02FF91EF91F1
:103D80009F918F913F912F910F900FBE0F901F9099
:103D90001895CF93DF930E94BC1D0E94C916EC01B9
:103DA000892BB9F40E94841DEC01892B21F183E059
:103DB00092E00E94A416BE0185E49BE00E94C71712
:103DC00087E092E00E94A4160E94641D0E94671D75
:103DD00012C00E94591D882329F30E94CE16AE01FD
:103DE000BC0183E59CE00E94BC1FCE010E94631DC4
:103DF0000E94D116D7CFDF91CF9108951F93182F2E
:103E00000E943C1F80917C00807F80937C00809189
:103E10007C00812B80937C0080917A008064809369
:103E20007A0080917A0086FDFCCF0E943D1F809130
:103E30007800909179001F91089580EC80937C0028
:103E400087EC80937A0086E00E94FE1E86E00E9446
:103E5000FE1E86E00E94FE1E08950F9A0D9A0C9A8F
:103E6000159A08958FB7F894159A8FBF08958FB754
:103E7000F89415988FBF0895089508958FB7F89412
:103E8000149A8FBF08958FB7F89414988FBF089530
:103E90009FB7F89482B1805882B99FBF0895A0E07F
:103EA000B0E0E5E5FFE10C945923EC0168817981EC
:103EB0008A819B81611571058105910549F484E230
:103EC000A82E89EDB82E8BE5C82E87E0D82E02C02B
:103ED0005B016C01C601B5012DE133EF41E050E01B
:103EE0000E94032327EA31E440E050E00E9432239D
:103EF0007B018C01C601B5012DE133EF41E050E0BB
:103F00000E940323CA01B90124E13BE040E050E0F4
:103F10000E943223E61AF70A080B190B17FF08C094
:103F20008FEF9FEFAFEFBFE7E80EF91E0A1F1B1FD1
:103F3000E882F9820A831B838FEF9FEFAFEFBFE721
:103F4000E822F9220A231B23C801B701EAE0CDB712
:103F5000DEB70C9475230E944F1F08958AE092E00B
:103F60000E944F1F089560930A0270930B02809382
:103F70000C0290930D020895FB01DC0102C0019038
:103F80000D9241505040D8F70895FB01DC018D910E
:103F9000019080190110D9F3990B0895A0E0B0E0C9
:103FA000E4EDFFE10C945B237C018B01EA016901E4
:103FB00008C0C8010F5F1F4FF6010995F7018193F3
:103FC0007F012197FFEFCF3FDF0799F7E8E0CDB7FB
:103FD000DEB70C947723A0E0B0E0E1EFFFE10C94B2
:103FE0005B238C017B01EA01690108C0F701619143
:103FF0007F01C8010F5F1F4FF60109952197FFEF61
:10400000CF3FDF0799F7E8E0CDB7DEB70C94772311
:10401000A0E1B0E0EEE0F0E20C945F230F89188D90
:1040200086E08E831C830B838FEF9FE798878F83B7
:10403000AE01455E5F4F5A834983698D7A8DCE010B
:1040400003960E942D2029853A85020F131FF8013F
:104050001082E4E060960C947B232F923F925F9253
:104060006F927F928F929F92AF92BF92CF92DF9288
:10407000EF92FF920F931F93CF93DF93CDB7DEB7ED
:104080002B970FB6F894DEBF0FBECDBF3C014B019E
:104090006A01FC0117821682838181FD03C08FEFC4
:1040A0009FEFC3C11E010894211C311CF301338111
:1040B000F40133FD859133FF81914F01882309F489
:1040C000B1C1853239F433FD859133FF81914F01C0
:1040D000853229F4B30199270E944322E7CF982F14
:1040E00010E05524AA241032B0F49B3269F09C32BF
:1040F00028F4903251F0933271F40BC09D3239F0B4
:10410000903349F411602AC01260146027C018600F
:1041100025C0106123C017FD2AC0292F20532A3043
:1041200088F416FF07C08AE0A89EC0011124A22EC1
:10413000A80E14C08AE0589EC0011124522E580EB9
:1041400010620CC09E3221F416FD6CC1106406C0D2
:104150009C3611F4106802C0983649F4F40133FD1E
:10416000959133FF91914F01992309F0BCCF892F8D
:104170008554833018F08052833038F424E030E0E6
:10418000C20ED31E8FE389830FC0933631F093376D
:1041900081F0933509F056C020C0F60180818983F3
:1041A00022E030E0C20ED31E710181E0A82EB12CB6
:1041B00012C0F601E080F18016FD03C06FEF7FEFC3
:1041C00002C06A2D772722E030E0C20ED31EC7015D
:1041D0000E9438225C011F7713C0F601E080F18055
:1041E00016FD03C06FEF7FEF02C06A2D772722E034
:1041F00030E0C20ED31EC7010E942D225C01106860
:1042000013FF07C01BC0B30180E290E00E9443226D
:104210005A94852D9927A816B906A8F30FC0F7015F
:1042200017FD859117FF81917F01B30199270E94A6
:10423000432251105A940894A108B108A114B10462
:1042400071F7EDC0943611F0993669F517FF0AC081
:10425000F601608171818281938124E030E0C20E99
:10426000D31E0DC0F601808191819C01B901882780
:1042700077FD8095982F42E050E0C40ED51E012FA7
:104280000F7697FF08C090958095709561957F4F48
:104290008F4F9F4F00682AE030E0A1010E947022FA
:1042A000B82EB21840C0953721F41F7E2AE030E0C6
:1042B0001CC0197F9F3661F0903720F4983509F0C3
:1042C000B1C00FC0903739F0983709F0ABC004C0C7
:1042D00028E030E00AC0106114FD146020E130E0F5
:1042E00004C014FD166020E132E017FF0AC0F60199
:1042F000608171818281938144E050E0C40ED51EBB
:104300000BC0F60180819181AC01BA018827992701
:10431000E2E0F0E0CE0EDF1EA1010E947022B82E76
:10432000B218012F0F7706FF0BC00E7FBA1440F4AE
:10433000802F992784FF06C082FD04C00F7E02C033
:104340001B2D01C01A2D202F332724FF0CC0FE0186
:10435000EB0DF11D8081803311F4097E08C01F5FD1
:1043600022FF05C003C0822F867809F01F5FE02E70
:10437000FF24E3FC14C0E0FE0FC0151510F0AB2CB9
:104380000BC0AB2CA50CA11A152D06C0B30180E201
:1043900090E00E9443221F5F1515C0F304C015155D
:1043A00010F4511A01C05524E4FE10C0B30180E39B
:1043B00090E00E944322E2FE1EC0E1FE03C088E5B9
:1043C00090E002C088E790E0B3010CC08E2D8678A3
:1043D00091F0E1FE02C08BE201C080E207FD8DE2B8
:1043E000B30199270E94432206C0B30180E390E005
:1043F0000E944322AA94BA14C0F3BA94F101EB0DBF
:10440000F11D8081B30199270E944322BB2039F01E
:10441000F4CFB30180E290E00E9443225A945520E9
:10442000C1F744CEF301868197812B960FB6F8949D
:10443000DEBF0FBECDBFDF91CF911F910F91FF90D7
:10444000EF90DF90CF90BF90AF909F908F907F9034
:104450006F905F903F902F900895FC010590615000
:1044600070400110D8F7809590958E0F9F1F08958A
:10447000FC016150704001900110D8F78095909533
:104480008E0F9F1F08950F931F93CF93DF938C017F
:10449000EB018B81992781FF1BC082FF0DC02E810C
:1044A0003F818C819D812817390764F4E881F98167
:1044B0000193F983E88306C0E885F985802F099583
:1044C000892B31F48E819F8101969F838E8302C058
:1044D0000FEF1FEFC801DF91CF911F910F9108954A
:1044E000FA01AA27283051F1203181F1E8946F9325
:1044F0006E7F6E5F7F4F8F4F9F4FAF4FB1E03ED0CB
:10450000B4E03CD0670F781F891F9A1FA11D680F68
:10451000791F8A1F911DA11D6A0F711D811D911D9B
:10452000A11D20D009F468943F912AE0269F112410
:104530003019305D3193DEF6CF010895462F477074
:10454000405D4193B3E00FD0C9F7F6CF462F4F70CF
:10455000405D4A3318F0495D31FD4052419302D02D
:10456000A9F7EACFB4E0A6959795879577956795D3
:10457000BA95C9F700976105710508959B01AC01D3
:104580000A2E06945795479537952795BA95C9F7FA
:10459000620F731F841F951FA01D089597FB092E9E
:1045A00007260AD077FD04D049D006D000201AF49F
:1045B000709561957F4F0895F6F7909581959F4F7F
:1045C0000895A1E21A2EAA1BBB1BFD010DC0AA1F54
:1045D000BB1FEE1FFF1FA217B307E407F50720F06C
:1045E000A21BB30BE40BF50B661F771F881F991FE7
:1045F0001A9469F760957095809590959B01AC0130
:10460000BD01CF01089597FB092E05260ED057FD59
:1046100004D0D7DF0AD0001C38F45095409530956F
:1046200021953F4F4F4F5F4F0895F6F79095809536
:10463000709561957F4F8F4F9F4F0895AA1BBB1BAD
:1046400051E107C0AA1FBB1FA617B70710F0A61B92
:10465000B70B881F991F5A95A9F780959095BC01B3
:10466000CD010895629FD001739FF001829FE00DFC
:10467000F11D649FE00DF11D929FF00D839FF00DE1
:10468000749FF00D659FF00D9927729FB00DE11D8D
:10469000F91F639FB00DE11DF91FBD01CF0111246A
:1046A00008952F923F924F925F926F927F928F92D6
:1046B0009F92AF92BF92CF92DF92EF92FF920F93B1
:1046C0001F93CF93DF93CDB7DEB7CA1BDB0B0FB6BB
:1046D000F894DEBF0FBECDBF09942A883988488878
:1046E0005F846E847D848C849B84AA84B984C8840E
:1046F000DF80EE80FD800C811B81AA81B981CE0F05
:10470000D11D0FB6F894DEBF0FBECDBFED010895E9
:02471000FFCFD9
:10471200000000020000000044030000000000014D
:1047220002BE082207E807F507110823088008B42B
:1047320008BB08026163445243006162000607003D
:104742000000000000000002010303050000000059
:104752000000000000000000000000000000000057
:104762000000000000030406010000000000000039
:104772000000000000000000000000000000000037
:104782000000006E65776C616D702E6C6F63616CFA
:1047920000CD070105443D5365702020332032309F
:1047A200303920483D256400563D2575006F06A42A
:1047B200026F06CC026F0630036F064C036F067859
:1047C200036F06A4036F06C0036F0604046F06207E
:1047D20004563D2575009001E80301E803534400A7
:1047E200535400012C1899176617C5168618010133
:1047F2000A0102F718CA189918951892180000149D
:104802000103840F0F10CF0F7A0FE11000001E0179
:0E48120003E8036163520061620001000000D0
:00000001FF
